:020000040800F2
:10000000E818002059020008596A00082D56000817
:10001000556A000869050008817D0008000000009D
:10002000000000000000000000000000CD6A000891
:100030007507000800000000C96A0008256B000869
:1000400073020008730200087302000873020008BC
:1000500073020008730200087302000873020008AC
:10006000730200087302000873020008730200089C
:100070008D0500089D050008730200087302000842
:10008000AD0500087302000873020008730200083F
:100090006D0500087D050008730200087302000862
:1000A000730200087302000873020008730200085C
:1000B000730200087302000873020008730200084C
:1000C000730200087302000873020008730200083C
:1000D00073020008517D0008617D0008717D0008F1
:1000E0007302000873020008730200080D6C000818
:1000F000496C0008396C0008296C0008BD0500082F
:1001000073020008730200087302000873020008FB
:10011000730200087302000873020008FD6B0008F8
:100120007302000873020008CD050008730200087E
:1001300073020008730200087302000873020008CB
:1001400073020008730200087302000873020008BB
:1001500073020008730200087302000873020008AB
:10016000730200087302000873020008730200089B
:100170007302000873020008730200080000000008
:10018000730200087302000800F002F800F054F84F
:1001900014A696E8000CB244B344DA4501D100F04D
:1001A0004BF8BAE80F000FA696E83000A5EB04055F
:1001B00004EB0607AAEB0704A7F101074FEA1515A0
:1001C0004FEA3414A4F10104AC4201D300F034F836
:1001D00013F0010F18BFFB1A43F0010300F001F800
:1001E000DBE71847B8D70000D8D70000103A24BF83
:1001F00078C878C1FAD8520724BF30C830C144BF8C
:1002000004680C6070470000704700000023002461
:1002100000250026103A28BF78C1FBD8520728BF16
:1002200030C148BF0B6070471FB50CF070FD00F087
:100230003BF91FBD10B510BD00F060F91146FFF786
:10024000F3FF0CF059F900F07EF903B4FFF7F2FF69
:1002500003BC00F081F900000948804709480047C5
:10026000FEE7FEE7FEE7FEE7FEE7FEE7FEE7FEE766
:10027000FEE7FEE704480549054A064B70470000C3
:10028000E96B000889010008E8120020E818002046
:10029000E8140020E814002053EA020C00F0698002
:1002A0002DE9F04B4FF00006002B1FBFB3FA83F58A
:1002B00003FA05F424FA05F65E4012BF1643B2FABB
:1002C00082F502FA05F4C5F120051EBF22FA05FCED
:1002D00044EA0C04203556EA044C4FEA144418BF93
:1002E000641C4FF000084FF00009904271EB030CC2
:1002F00039D3002919BFB1FA81F701FA07F6B0FA2C
:1003000080F700FA07F6C7F120071EBF20FA07FCA6
:1003100046EA0C062037B6FBF4FCA7EB0507103FB6
:1003200007F01F0BCBF120062CFA06F60CFA0BFB9C
:1003300044BFB3460026202FA4BF5E464FF0000BFB
:100340005BEA060C08BF4FF0010B19EB0B0948EBF9
:100350000608ABFB027C06FB02CC0BFB03CCC01BEC
:1003600071EB0C01C1E70B46024641464846BDE829
:10037000F08B13B5084318BF4FF0FF300146AFF3C1
:100380000080BDE81C40704753EA020C23D010B532
:100390004C1084EA530404D54042C1F1000138BF37
:1003A000491E1B4204D55242C3F1000338BF5B1EF5
:1003B000FFF772FF14F0804F04D04042C1F10001FA
:1003C00038BF491E14F0004F04D05242C3F100035D
:1003D00038BF5B1E10BD13B540424FF0000070EBFC
:1003E0000104B8BF012001F0004100281CBF6FF0DC
:1003F00000414FF0FF30AFF300801CBD40EA010325
:1004000010B59B070FD1042A0DD310C808C9121FBD
:100410009C42F8D020BA19BA884201D9012010BDF7
:100420004FF0FF3010BD1AB1D30703D0521C07E0C4
:10043000002010BD10F8013B11F8014B1B1B07D128
:1004400010F8013B11F8014B1B1B01D1921EF1D199
:10045000184610BD4FF0000200B51346944696466C
:10046000203922BFA0E80C50A0E80C50B1F12001C7
:10047000BFF4F7AF090728BFA0E80C5048BF0CC075
:100480005DF804EB890028BF40F8042B08BF7047D3
:1004900048BF20F8022B11F0804F18BF00F8012B45
:1004A000704770477047704708487CB578440090A3
:1004B00007487844009C0546019004E02046016806
:1004C00008448047241DAC42F8D17CBD0CD5000007
:1004D0000AD5000010B500F009F8006810BD10B58D
:1004E000044600F003F8046010BD000000487047A7
:1004F0004800002000487047480000207546FFF77C
:10050000F9FFAE4605006946534620F007008546D0
:1005100018B020B5FFF7AEFEBDE820404FF0000652
:100520004FF000074FF000084FF0000BAC46ACE86E
:10053000C009ACE8C009ACE8C009ACE8C00921F0CA
:1005400007018D46704710B50446AFF30080204682
:10055000BDE81040FFF779BE01491820ABBEFEE7A9
:100560002600020070470000FFE7FEE780B540F676
:10057000FC30C2F2000000F00BFB80BD80B540F6FD
:10058000FC30C2F2000000F003FB80BD80B540F6F5
:10059000A450C2F2000000F0BDFF80BD80B540F65F
:1005A0002440C2F2000000F0B5FF80BD80B540F6E7
:1005B0004450C2F2000000F0ADFF80BD80B540F6AF
:1005C0008440C2F2000000F0A5FF80BD80B540F677
:1005D000E440C2F2000000F09DFF80BD82B00190B7
:1005E0000198007810384AF6AB21CAF6AA21A0FB80
:1005F00001100009009000994CF64A50C0F6000026
:10060000405C0199C8650098042807D3FFE7019969
:100610000868042262F30900886506E00199086809
:1006200040F2FF3290438865FFE70198806D02B089
:100630007047000086B0059000208DF813000598E3
:10064000806A03900598806910BBFFE703980290C9
:1006500003281BD80299DFE801F0020D0218059863
:1006600090F82F00C00720B1FFE701208DF813009C
:10067000FFE70CE00598C06AB0F1C07F04D1FFE746
:1006800001208DF81300FFE701E000E0FFE745E0FF
:1006900005988069B0F5005F25D1FFE703980190C8
:1006A00003281ED80199DFE801F00206021101209B
:1006B0008DF8130016E0059890F82F00C00720B1C0
:1006C000FFE701208DF81300FFE70BE00598C06AF3
:1006D000B0F1C07F04D1FFE701208DF81300FFE7E0
:1006E00000E0FFE719E003980090032804D3FFE738
:1006F0000098032804D00EE001208DF813000BE0D1
:10070000059890F82F00C00720B1FFE701208DF871
:100710001300FFE700E0FFE7FFE7FFE79DF81300A6
:1007200006B0704784B00390029101920093039841
:100730000168086820F4802008600098039909681F
:10074000486003988068402809D1FFE70198039921
:1007500009688860029803990968C86008E00298EF
:10076000039909688860019803990968C860FFE7E0
:1007700004B070477047000072B6FFE7FEE7000064
:1007800084B002900191029890F820008DF8030047
:100790009DF80300012805D0FFE79DF8030002281B
:1007A0000AD1FFE7019A029801684869104348613D
:1007B00000208DF80F0008E00299486A40F480207C
:1007C000486201208DF80F00FFE79DF80F0004B08C
:1007D0007047000086B004900391049890F82000C0
:1007E0008DF803009DF80300012806D0FFE79DF86F
:1007F0000300022840F0B080FFE746F20040C4F258
:10080000000001900199D1F8000240F00100C1F808
:1008100000020199D1F8000220F47C50C1F80002D6
:100820000398426A0199D1F8000240EA0220C1F817
:1008300000020398406900F01F01012088400290E7
:10084000029A0199D1F81C029043C1F81C02039846
:10085000C069F0B9FFE7029A0199D1F80C02904300
:10086000C1F80C02039A9088D168526940EA0140AD
:10087000019901EBC201C1F84002039A1088916806
:10088000526940EA0140019901EBC201C1F84402FA
:10089000FFE70398C06901281ED1FFE7029A01997A
:1008A000D1F80C021043C1F80C02039A9088116829
:1008B000526940EA0140019901EBC201C1F84002CE
:1008C000039A90899168526940EA0140019901EBCD
:1008D000C201C1F84402FFE70398806940B9FFE70D
:1008E000029A0199D1F804029043C1F8040207E08A
:1008F000029A0199D1F804021043C1F80402FFE7FB
:100900000398006940B9FFE7029A0199D1F81402EF
:100910009043C1F8140207E0029A0199D1F8140239
:100920001043C1F81402FFE70398006A012808D1B8
:10093000FFE7029A0199D1F81C021043C1F81C028A
:10094000FFE70199D1F8000220F00100C1F8000290
:1009500000208DF8170008E00499486A40F48020D0
:10096000486201208DF81700FFE79DF8170006B0D8
:100970007047000081B0009001B0704786B00490CD
:10098000039102920193049890F820008DF80300DF
:100990009DF80300012806D0FFE79DF80300022818
:1009A00040F0E880FFE7039880B9FFE7049800680B
:1009B000C068800748B9FFE70499486A40F400100E
:1009C000486201208DF81700DDE00FE00498006810
:1009D0000069800748B9FFE70499486A40F40010AD
:1009E000486201208DF81700CDE0FFE70498006809
:1009F000039900EB0110D0F8B00100F00400029957
:100A000088600298806858B9FFE7049800680399E5
:100A100000EB0110D0F8B001400D029908600AE027
:100A200004980068039900EB0110D0F8B001C008E9
:100A300002994860FFE704980068039900EB0110F1
:100A4000D0F8B00100F002000299C8600498006874
:100A5000039900EB0110D0F8B40100F00F00082852
:100A600004D3FFE70299082008610BE004980068AE
:100A7000039900EB0110D0F8B40100F00F000299C7
:100A80000861FFE704980068039900EB0110D0F8B3
:100A9000B40180B2000A0299886104980068039941
:100AA00000EB0110D0F8B401000C029948610498E1
:100AB0000068039900EB0110D0F8B80101990870A3
:100AC00004980068039900EB0110D0F8B801000AFF
:100AD0000199487004980068039900EB0110D0F860
:100AE000B801000C0199887004980068039900EB24
:100AF0000110D0F8B801000E0199C8700498006880
:100B0000039900EB0110D0F8BC0101990871049819
:100B10000068039900EB0110D0F8BC01000A0199AC
:100B2000487104980068039900EB0110D0F8BC01EB
:100B3000000C0199887104980068039900EB01107A
:100B4000D0F8BC01000E0199C871039838B9FFE7CD
:100B500004980168C86840F02000C86006E0049866
:100B60000168086940F020000861FFE700208DF867
:100B7000170008E00499486A40F480204862012088
:100B80008DF81700FFE79DF8170006B070470000CA
:100B900080B58AB0099000200890099800684069E3
:100BA0000790099800684068069009980068806876
:100BB000059009980068C068049009980068006969
:100BC000039009980068806902909DF81C00C00796
:100BD000002800F09480FFE79DF81400C00758B388
:100BE000FFE709980168012088609DF814008007DC
:100BF000002804D5FFE7099800F0DCFB1BE09DF816
:100C000014004007002805D5FFE7089840F400606D
:100C100008900FE09DF814000007002805D5FFE7B5
:100C2000089840F48050089003E0099800F0BEFB5B
:100C3000FFE7FFE7FFE7FFE79DF81500C00760B398
:100C4000FFE7099801684FF4807088609DF81500EF
:100C50008007002804D5FFE7099800F0B3FB1BE0EC
:100C60009DF815004007002805D5FFE7089840F4D7
:100C7000005008900FE09DF815000007002805D5EA
:100C8000FFE7089840F48040089003E0099800F0DE
:100C900095FBFFE7FFE7FFE7FFE79DF81600C007BA
:100CA00060B3FFE7099801684FF4803088609DF8D1
:100CB00016008007002804D5FFE7099800F08AFB9A
:100CC0001BE09DF816004007002805D5FFE70898AF
:100CD00040F4004008900FE09DF81600000700283F
:100CE00005D5FFE7089840F48030089003E00998A4
:100CF00000F06CFBFFE7FFE7FFE7FFE7FFE79DF88A
:100D00001C000007002810D5FFE79DF81000C00662
:100D1000002809D5FFE7089840F40070089009986A
:100D200001681020C860FFE7FFE79DF81C0040073E
:100D300000280FD5FFE79DF810000007002808D510
:100D4000FFE7099801680820C860099800F064FA74
:100D5000FFE7FFE79DF81C00800700280BD5FFE7A1
:100D600009980068C068800720B1FFE7099800F083
:100D700057FAFFE7FFE79DF81C004006002810D552
:100D8000FFE79DF80C00C006002809D5FFE708988A
:100D900040F4806008900998016810200861FFE71E
:100DA000FFE79DF81C00800600280FD5FFE79DF89F
:100DB0000C000007002808D5FFE709980168082003
:100DC0000861099800F068FAFFE7FFE79DF81C004A
:100DD000C00600280BD5FFE7099800680069800766
:100DE00020B1FFE7099800F05BFAFFE7FFE79DF805
:100DF0001E00800700280FD5FFE79DF81800C006E9
:100E0000002808D5FFE70998016810204860099874
:100E100000F082FAFFE7FFE79DF81E00C00778B1F7
:100E2000FFE79DF818000007002808D5FFE709989C
:100E3000016808204860099800F0D0FAFFE7FFE752
:100E40009DF81D000006002840F18D80FFE79DF809
:100E500018004007002840F18180FFE79DF81D0041
:100E6000C00750B1FFE79DF80800C00728B1FFE7B1
:100E7000089840F001000890FFE79DF81D008007EA
:100E800000280BD5FFE79DF808008007002805D54E
:100E9000FFE7089840F002000890FFE79DF81D006A
:100EA000400700280BD5FFE79DF808004007002801
:100EB00005D5FFE7089840F004000890FFE79DF88B
:100EC0001D000007002848D5FFE79DF8080010F036
:100ED000700F42D0FFE7029800F0700001460191C8
:100EE000102814D0FFE70198202815D0FFE70198BB
:100EF000302816D0FFE70198402817D0FFE7019867
:100F0000502818D0FFE70198602819D01DE00898F4
:100F100040F00800089019E0089840F01000089090
:100F200014E0089840F0200008900FE0089840F086
:100F3000400008900AE0089840F08000089005E022
:100F4000089840F48070089000E0FFE70998016875
:100F5000886920F070008861FFE7FFE70998016861
:100F600004204860FFE7089848B1FFE7089A09990C
:100F7000486A104348620998FFF7FCFCFFE70AB093
:100F800080BD000080B584B00290029820B9FFE7D0
:100F900001208DF80F00E0E0029890F8200020B9C1
:100FA000FFE7029800F0DEF8FFE7029801680868A2
:100FB00040F00100086000F06DFF0190FFE702982B
:100FC00000684068C007A8B9FFE700F063FF019917
:100FD000401A0B280DD3FFE70299486A40F400300D
:100FE00048620299052081F8200001208DF80F0049
:100FF000B3E0E4E702980168086820F002000860A6
:1010000000F048FF0190FFE7029800684068800701
:10101000002815D5FFE700F03DFF0199401A0B2885
:101020000DD3FFE70299486A40F400304862029904
:10103000052081F8200001208DF80F008DE0E3E706
:101040000298007E012807D1FFE70298016808682E
:1010500040F08000086006E002980168086820F00F
:1010600080000860FFE70298407E012807D1FFE773
:1010700002980168086840F04000086006E00298A5
:101080000168086820F040000860FFE70298807E51
:10109000012807D1FFE702980168086840F02000A6
:1010A000086006E002980168086820F020000860E7
:1010B000FFE70298C07E012807D1FFE70298016888
:1010C000086820F01000086006E0029801680868CF
:1010D00040F010000860FFE70298007F012807D168
:1010E000FFE702980168086840F00800086006E021
:1010F00002980168086820F008000860FFE702987D
:10110000407F012807D1FFE702980168086840F096
:101110000400086006E002980168086820F00400F6
:101120000860FFE7029B19685A689868D3F80CC0FA
:1011300040EA0C00D3F810C040EA0C005B69184389
:10114000013A1043C861029900204862029A0121C5
:1011500082F820108DF80F00FFE79DF80F0004B013
:1011600080BD000080B58CB00B9000200A900990E3
:101170000890079006900B98006846F20041C4F270
:101180000001884246D1FFE7FFE70020059043F6C3
:101190004000C4F20200016841F000710160006883
:1011A00000F0007005900598FFE7FFE7002004902D
:1011B00043F63000C4F20200016841F0080101600A
:1011C000006800F0080004900498FFE703200690F0
:1011D00002210791002102910891099009200A90AB
:1011E00040F60040C4F2020006A900F05FFC029A3B
:1011F00014200190114601F003FC019801F0F6FB68
:10120000029A15200390114601F0FAFB039801F0B1
:10121000EDFBFFE70CB080BD81B0009001B07047DE
:1012200080B586B005900598006846F20041C4F28A
:101230000001884212D1FFE7059840F2A801C2F2EE
:10124000000103910A1D049201F120030021FFF720
:1012500095FB03990498896A88471BE00598006804
:1012600046F60001C4F20001884212D1FFE705985A
:1012700040F2D401C2F2000101910A1D029201F173
:1012800020030021FFF77AFB01990298896A8847B9
:10129000FFE7FFE706B080BD81B0009001B0704766
:1012A00080B586B005900598006846F20041C4F20A
:1012B0000001884212D1FFE7059840F2A801C2F26E
:1012C000000103910A1D049201F120030121FFF79F
:1012D00055FB03990498896A88471BE005980068C4
:1012E00046F60001C4F20001884212D1FFE70598DA
:1012F00040F2D401C2F2000101910A1D029201F1F3
:1013000020030121FFF73AFB01990298896A884777
:10131000FFE7FFE706B080BD81B0009001B07047E5
:1013200080B584B00290029890F8200001282FD157
:10133000FFE70299022081F82000029801680868FE
:1013400020F00100086000F0A5FD0190FFE7029881
:1013500000684068C007A8B1FFE700F09BFD019955
:10136000401A0B280DD3FFE70299486A40F4003079
:1013700048620299052081F8200001208DF80F00B5
:101380000FE0E4E70299002048628DF80F0008E0C2
:101390000299486A40F40020486201208DF80F004D
:1013A000FFE79DF80F0004B080BD000081B0009001
:1013B00001B0704781B0009001B0704781B00090DB
:1013C00001B0704781B0009001B0704781B00090CB
:1013D00001B0704781B0009001B0704781B00090BB
:1013E00001B0704780B584B002900298806D019082
:1013F00000F050FD0090029890F8350002280DD0C2
:10140000FFE7029980204865FFE70299002081F8F4
:101410003400FFE701208DF80F0055E002980168C5
:10142000086820F01600086002980168486920F0FA
:10143000800048610298006C20B9FFE70298806C38
:1014400038B1FFE702980168086820F008000860DA
:10145000FFE702980168086820F001000860FFE7D4
:10146000029800680068C007C8B1FFE700F012FDED
:101470000099401A062811D3FFE7029920204865F9
:101480000299032081F83500FFE70299002081F8D6
:101490003400FFE703208DF80F0015E0E0E7029825
:1014A000C16D3F208840019988600299012081F830
:1014B0003500FFE70299002081F83400FFE7FFE7DD
:1014C00000208DF80F00FFE79DF80F0004B080BDED
:1014D00082B00090009890F83500022807D0FFE70E
:1014E00000998020486501208DF807000EE00099E2
:1014F000052081F8350000980168086820F0010097
:101500000860FFE700208DF80700FFE79DF807005F
:1015100002B0704780B586B005900020039040F27D
:101520000000C2F20000006848F2B511C1F64E3169
:10153000A0FB0110800A02900598806D019001982F
:101540000068049004980599C96DC84000070028F8
:101550001AD5FFE70598006800684007002812D5F3
:10156000FFE705980168086820F004000860059806
:10157000C16D08208840019988600599486D40F048
:1015800001004865FFE7FFE704980599C96DC84069
:10159000C007A0B1FFE70598006840690006002871
:1015A0000CD5FFE70598C16D01208840019988603E
:1015B0000599486D40F002004865FFE7FFE7049891
:1015C0000599C96DC8404007002814D5FFE7059864
:1015D00000680068800700280CD5FFE70598C16DFA
:1015E00004208840019988600599486D40F0040006
:1015F0004865FFE7FFE704980599C96DC840C00634
:10160000002847D5FFE70598006800680007002814
:101610003FD5FFE70598C16D10208840019988608B
:10162000059800680068400300281AD5FFE7059870
:10163000006800680003002809D4FFE70598006CE3
:1016400020B1FFE70598016C8847FFE708E005989F
:10165000806C20B1FFE70598816C8847FFE7FFE7C2
:1016600016E0059800680068C005002807D4FFE769
:1016700005980168086820F008000860FFE70598F1
:10168000006C20B1FFE70598016C8847FFE7FFE792
:10169000FFE7FFE704980599C96DC8408006002858
:1016A00040F18D80FFE7059800680068C0060028BB
:1016B00040F18480FFE70598C16D202088400199A2
:1016C0008860059890F83500052834D1FFE7059823
:1016D0000168086820F016000860059801684869EC
:1016E00020F0800048610598006C20B9FFE705985C
:1016F000806C38B1FFE705980168086820F00800A1
:101700000860FFE70598C16D3F2088400199886017
:101710000599012081F83500FFE70599002081F83F
:101720003400FFE70598006D20B1FFE70598016DD3
:101730008847FFE77BE005980068006840030028C1
:101740001AD5FFE70598006800680003002809D44F
:10175000FFE70598406C20B1FFE70598416C88478A
:10176000FFE708E00598C06B20B1FFE70598C16B63
:101770008847FFE7FFE720E0059800680068C0059C
:10178000002811D4FFE705980168086820F01000D0
:1017900008600599012081F83500FFE705990020D0
:1017A00081F83400FFE7FFE70598C06B20B1FFE741
:1017B0000598C16B8847FFE7FFE7FFE7FFE705985C
:1017C000406DA0B3FFE70598406DC00730B3FFE759
:1017D0000599052081F8350005980168086820F012
:1017E00001000860FFE703980130039002998842E6
:1017F00001D9FFE707E0FFE7059800680068C00728
:101800000028F0D1FFE70599012081F83500FFE7B6
:101810000599002081F83400FFE7FFE70598C06CC8
:1018200020B1FFE70598C16C8847FFE7FFE706B0E6
:1018300080BD000080B586B004900020039000F0C9
:1018400029FB0290049820B9FFE701208DF81700CA
:10185000A3E00498406A08B1FFE7FFE7049902207B
:1018600081F83500FFE70499002081F83400FFE794
:1018700004980168086820F001000860FFE70498F8
:1018800000680068C00790B1FFE700F003FB029911
:10189000401A06280AD3FFE70499202048650499D6
:1018A000032081F835008DF8170076E0E7E704980B
:1018B000006800680390039848F23F01CFF21001DE
:1018C00008400390049900914868D1F808C0CB689B
:1018D0000A6940EA0C00184310434A6910438A69B8
:1018E0001043CA691043096A0143039808430390EF
:1018F0000498406A042808D1FFE70499C86A096B74
:101900000143039808430390FFE70398049909688B
:1019100008600498006840690390039820F007006D
:1019200003900498416A0398084303900498406A1E
:1019300004281AD1FFE70498816A039808430390AA
:101940000498C06A80B1FFE70498FEF773FE50B1B7
:10195000FFE70499402048650499012081F835008B
:101960008DF8170019E0FFE7FFE70398049909686D
:1019700048610498FEF732FE01900498C16D3F2043
:10198000884001998860049900204865049A0121E3
:1019900082F835108DF81700FFE79DF8170006B0A4
:1019A00080BD000080B588B0069005910492039335
:1019B00000208DF80B000698806D0190FFE70698D7
:1019C00090F83400012804D1FFE702208DF81F00B1
:1019D00045E00699012081F83400FFE7FFE706980B
:1019E00090F8350001282BD1FFE70699022081F8F5
:1019F000350006990020486506980599049A039BCE
:101A0000FEF790FE0698C16D3F20884001998860DE
:101A100006980168086840F0160008600698006C97
:101A200038B1FFE706980168086840F008000860D0
:101A3000FFE706980168086840F00100086009E0C7
:101A4000FFE70699002081F83400FFE702208DF8B7
:101A50000B00FFE79DF80B008DF81F00FFE79DF8D6
:101A60001F0008B080BD000080B584B0039000F076
:101A700011FA0290039801900198013048B1FFE7F4
:101A800040F24000C2F20000017801980844019041
:101A9000FFE7FFE700F0FEF90299401A019988423A
:101AA00001D2FFE7F6E704B080BD00008EB00D90D4
:101AB0000C9100200A90099008900B90FFE70B987A
:101AC0000F2800F2CC81FFE70B99012088400A9093
:101AD0000C9800680A990840099009980A99884268
:101AE00040F0B881FFE70C98406800F0030001283F
:101AF00007D0FFE70C98406800F0030002282FD1C0
:101B0000FFE70D98806808900B984100032000FAC9
:101B100001F10898884308900C98C0680B99490017
:101B200000FA01F108980843089008980D99886018
:101B30000D98406808900B99012000FA01F108986F
:101B4000884308900C984068C0F300100B9900FA85
:101B500001F108980843089008980D994860FFE73C
:101B60000C98406800F00300032818D0FFE70D9898
:101B7000C06808900B984100032000FA01F1089812
:101B8000884308900C9880680B99490000FA01F18D
:101B900008980843089008980D99C860FFE70C98CA
:101BA000406800F00300022826D1FFE70D980B994A
:101BB0006FF0030202EA51010844006A08900B9892
:101BC00000F0070081000F2000FA01F10898884317
:101BD00008900C9800690B9901F00701890000FA40
:101BE00001F108980843089008980D990B9B02EAA8
:101BF000530211440862FFE70D98006808900B98A3
:101C00004100032000FA01F10898884308900C98DD
:101C1000406800F003000B99490000FA01F10898B0
:101C20000843089008980D9908600C9880798007FF
:101C3000002800F00E81FFE7FFE70020079043F641
:101C40004400C4F20200016841F480410160006870
:101C500000F4804007900798FFE70B9820F00300FE
:101C600043F60801C4F20101405808900B9800F0B7
:101C7000030081000F2000FA01F1089888430890C2
:101C80000D980021C4F20201884203D1FFE7002031
:101C900006905EE00D9840F20041C4F202018842D5
:101CA00003D1FFE70120059050E00D9840F60001B8
:101CB000C4F20201884203D1FFE70220049042E00F
:101CC0000D9840F60041C4F20201884203D1FFE7BB
:101CD0000320039034E00D9841F20001C4F20201A8
:101CE000884203D1FFE70420029026E00D9841F2DC
:101CF0000041C4F20201884203D1FFE705200190B0
:101D000018E00D9841F60001C4F20201884203D1A7
:101D1000FFE7062000900AE00D9941F60042C4F268
:101D200002020820914208BF07200090FFE70098B8
:101D30000190FFE701980290FFE702980390FFE708
:101D400003980490FFE704980590FFE70598069034
:101D5000FFE70698C0B20B9901F00301890000FA71
:101D600001F108980843089008980B9921F00301A5
:101D700043F60802C4F20102885043F60840C4F258
:101D800001000068089009990898884308900C9809
:101D90008079C006002805D5FFE70999089808430F
:101DA0000890FFE7089843F60841C4F20101086073
:101DB00043F60C40C4F201000068089009990898A5
:101DC000884308900C9880798006002805D5FFE7A5
:101DD0000999089808430890FFE7089843F60C41D2
:101DE000C4F20101086043F60440C4F20100006837
:101DF000089009990898884308900C988079800782
:101E0000002805D5FFE70999089808430890FFE7DF
:101E1000089843F60441C4F20101086043F600400B
:101E2000C4F2010000680890099908988843089056
:101E30000C988079C00728B1FFE7099908980843F2
:101E40000890FFE7089843F60041C4F201010860DA
:101E5000FFE7FFE7FFE70B9801300B902FE60EB08E
:101E60007047000082B00190ADF802108DF801209B
:101E70009DF8010028B1FFE7BDF8020001998861D3
:101E800005E0BDF80200000401998861FFE702B097
:101E90007047000041F2E020C2F200000068704785
:101EA00080B58EB00C900C9820B9FFE701208DF81A
:101EB000370043E10C9890F83D0040B9FFE70C99DA
:101EC000002081F83C000C9800F06AFCFFE70C99B8
:101ED000242081F83D000C980168086820F001007A
:101EE00008600C980168086840F4004008600C988D
:101EF0000168086820F40040086000F0DBFE0A90EA
:101F00000C98406848F2A061C0F2010188420BD8E9
:101F1000FFE70A9948F28042C0F21E020020914277
:101F200038BF012009900AE00A9940F60012C0F279
:101F30003D020020914238BF01200990FFE7099837
:101F4000012804D1FFE701208DF83700F6E00A9858
:101F50004DF68361C4F21B31A0FB0110800C0B9085
:101F60000C980068406820F03F000B9908430C99DA
:101F7000096848600C980068006A20F03F000890EB
:101F80000C98406848F2A061C0F20101884204D870
:101F9000FFE70B98013007900EE00B984FF4967115
:101FA000484344F6D351C1F26201A0FB0101012074
:101FB00000EB91100790FFE70898079908430C99E8
:101FC000096808620C980068C0694CF6FF71884384
:101FD00006900C98406848F2A061C0F20101884266
:101FE0001FD8FFE70A9801380C9949684900B0FBEF
:101FF000F1F001306FF31F30032803D8FFE704200E
:1020000005900BE00A9801380C9949684900B0FB2B
:10201000F1F001306FF31F300590FFE70598049051
:102020004CE00C98806868B9FFE70A9801380C9971
:10203000496801EB4101B0FBF1F001306FF31F3053
:1020400003900DE00A9801380C9949681922514310
:10205000B0FBF1F00130042161F31F300390FFE782
:102060000398000518B9FFE70120029023E00C98BF
:10207000806868B9FFE70A9801380C99496801EB54
:102080004101B0FBF1F001306FF31F3001900DE022
:102090000A9801380C99496819225143B0FBF1F0B4
:1020A0000130042161F31F300190FFE7019840F4F3
:1020B00000400290FFE702980490FFE70698049919
:1020C00008430C990968C8610C980068006820F002
:1020D000C0000C9B1968DA691B6A1A431043086038
:1020E0000C980068806848F2FF3188430C9A1168A8
:1020F000D36812691A43104388600C980068C0685E
:1021000020F0FF000C9B19685A699B691A43104321
:10211000C8600C980168086840F0010008600C99DC
:10212000002008640C9A202182F83D100C99086365
:102130000C9981F83E008DF83700FFE79DF83700D5
:102140000EB080BD10B58CB0844610980F98DDF8A5
:1021500038E0CDF828C0ADF82610ADF82420ADF851
:102160002230ADF82000FFF795FE07900A9890F80E
:102170003D00202840F00282FFE70A9807996A464E
:1021800011600221C0F210010122192303F068FC42
:1021900020B1FFE702208DF82F00F3E1FFE70A9856
:1021A00090F83C00012804D1FFE702208DF82F00B1
:1021B000E8E10A99012081F83C00FFE7FFE70A986F
:1021C0000068006800F00100012807D0FFE70A98C6
:1021D0000168086840F001000860FFE70A9801689C
:1021E000086820F4006008600A99222081F83D0008
:1021F0000A99402081F83E000A99002008640E9850
:102200000A994862BDF820000A9948850A98408DCD
:102210000A9908850A990020CFF6FF70C8620A98CB
:10222000BDF82610BDF82420BDF82230DDF840C0EE
:10223000079CEE46CEF80440CEF800C003F02AFA20
:1022400020B1FFE701208DF82F009BE10A98008D57
:10225000A0B9FFE7FFE7002006900A9800684069F0
:1022600006900A980068806906900698FFE70A9829
:102270000168086840F4007008604DE00A98008D1D
:1022800001281AD1FFE70A980168086820F48060E5
:102290000860FFE7002005900A98006840690590F3
:1022A0000A980068806905900598FFE70A98016818
:1022B000086840F4007008602DE00A98008D02283C
:1022C0001AD1FFE70A980168086820F48060086066
:1022D0000A980168086840F400600860FFE7002081
:1022E00004900A980068406904900A980068806920
:1022F00004900498FFE70DE0FFE7002003900A98A0
:102300000068406903900A98006880690390039808
:10231000FFE7FFE7FFE7FFE7FFE70A98008D0028E8
:1023200000F01A81FFE70A98008D032800F2CC80A4
:10233000FFE70A98008D01281ED1FFE70A9810993F
:10234000079A03F0BBFC20B1FFE701208DF82F00B6
:1023500018E10A98006800690A99496A08700A99A0
:10236000486A013048620A99088D013808850A993F
:10237000488D01384885A6E00A98008D02283CD196
:10238000FFE70A98109B07996A4611600421C0F282
:102390000101002203F064FB20B1FFE701208DF86A
:1023A0002F00EFE00A980168086840F400700860A8
:1023B0000A98006800690A99496A08700A99486A87
:1023C000013048620A99088D013808850A99488DBC
:1023D000013848850A98006800690A99496A0870B6
:1023E0000A99486A013048620A99088D01380885BF
:1023F0000A99488D0138488564E00A98109B07992E
:102400006A4611600421C0F20101002203F028FB9A
:1024100020B1FFE701208DF82F00B3E00A98016892
:10242000086820F4806008600A98006800690A99CA
:10243000496A08700A99486A013048620A99088D09
:10244000013808850A99488D013848850A98109BFB
:1024500007996A4611600421C0F20101002203F0CD
:10246000FFFA20B1FFE701208DF82F008AE00A98DB
:102470000168086840F4007008600A980068006904
:102480000A99496A08700A99486A013048620A99AB
:10249000088D013808850A99488D013848850A98C1
:1024A000006800690A99496A08700A99486A013007
:1024B00048620A99088D013808850A99488D0138C3
:1024C0004885FFE7FFE746E00A981099079A03F06E
:1024D000F5FB20B1FFE701208DF82F0052E00A98AC
:1024E000006800690A99496A08700A99486A0130C7
:1024F00048620A99088D013808850A99488D013883
:1025000048850A980068406900F004010120B0EB9A
:10251000910F1FD1FFE70A98008D032807D1FFE72D
:102520000A980168086820F480600860FFE70A984C
:10253000006800690A99496A08700A99486A013076
:1025400048620A99088D013808850A99488D013832
:102550004885FFE7FFE7E0E60A99202081F83D0083
:102560000A99002081F83E00FFE70A99002081F8CF
:102570003C00FFE700208DF82F0003E002208DF8DB
:102580002F00FFE79DF82F000CB010BD10B588B0EC
:1025900084460C980B98DDF828E0CDF818C0ADF80B
:1025A0001610ADF81420ADF81230ADF81000FFF79A
:1025B00071FC0390069890F83D00202840F0E880D8
:1025C000FFE7069803996A4611600221C0F21001E4
:1025D0000122192303F044FA20B1FFE702208DF80D
:1025E0001F00D9E0FFE7069890F83C00012804D1CD
:1025F000FFE702208DF81F00CEE00699012081F848
:102600003C00FFE7FFE706980068006800F0010063
:10261000012807D0FFE706980168086840F001002C
:102620000860FFE706980168086820F40060086009
:102630000699212081F83D000699402081F83E004E
:102640000699002008640A9806994862BDF81000AF
:10265000069948850698408D0699088506990020B8
:10266000CFF6FF70C8620698BDF81610BDF81420AA
:10267000BDF81230DDF830C0039CEE46CEF80440C1
:10268000CEF800C003F0F8F820B1FFE701208DF884
:102690001F0081E0FFE70698008D002849D0FFE782
:1026A00006980C99039A03F077FB80B1FFE7069830
:1026B000006C042807D1FFE706980168086840F419
:1026C00000700860FFE701208DF81F0064E00698A5
:1026D0000168406A007808610699486A01304862DA
:1026E0000699088D013808850699488D0138488576
:1026F00006980068406900F004010120B0EB910FDA
:1027000016D1FFE70698008D90B1FFE706980168A3
:10271000406A007808610699486A01304862069963
:10272000088D013808850699488D01384885FFE7EE
:10273000B1E706980C99039A03F03CF980B1FFE7E2
:102740000698006C042807D1FFE70698016808681E
:1027500040F400700860FFE701208DF81F001BE0C7
:1027600006980168086840F4007008600699202007
:1027700081F83D000699002081F83E00FFE70699A8
:10278000002081F83C00FFE700208DF81F0003E0E7
:1027900002208DF81F00FFE79DF81F0008B010BD54
:1027A00080B58AB0099000200890079006900590A7
:1027B00004900998006845F60001C4F200018842BF
:1027C00040F08980FFE7FFE70020039043F63000E8
:1027D000C4F20200016841F002010160006800F0EB
:1027E000020003900398FFE74FF44060049012202A
:1027F000059000200690032007900420089040F2E6
:102800000040C4F2020004A9FFF750F9FFE70020DE
:10281000029043F64000C4F20200016841F48001D6
:102820000160006800F4800002900298FFE740F623
:102830002440C2F20000019046F24001C4F20201BD
:1028400001604FF06061416000218160C1604FF420
:102850008062026141618161C16101624162FEF792
:10286000E9FF18B1FFE7FDF787FFFFE7FFE70998EA
:1028700040F62441C2F20001816309988863FFE7B2
:1028800040F68440C2F20000009046F2B801C4F263
:10289000020101604FF060614160402181600021D0
:1028A000C1604FF48062026141618161C161016276
:1028B0004162FEF7BFFF18B1FFE7FDF75DFFFFE7DD
:1028C000FFE7099840F68441C2F20001416309988C
:1028D0008863FFE7FFE70AB080BD000040F24000D8
:1028E000C2F20000027841F2E021C2F20001086861
:1028F000104408607047000080B543F60041C4F200
:102900000201086840F400700860086840F48060C4
:102910000860086840F480700860032000F08AF8BE
:102920000F2000F005F800F03BF8002080BD00000B
:1029300080B582B0009040F20000C2F20000006852
:1029400040F24001C2F200010A784FF47A71B1FB03
:10295000F2F1B0FBF1F000F0A5FD20B1FFE701209E
:102960008DF8070018E000980F280DD8FFE70099B0
:102970004FF0FF30002200F043F8009840F244018D
:10298000C2F20001086003E001208DF8070003E0B7
:1029900000208DF80700FFE79DF8070002B080BD1A
:1029A00082B0FFE70020019043F64400C4F2020029
:1029B000016841F480410160006800F480400190AA
:1029C0000198FFE7FFE70020009043F64000C4F2C3
:1029D0000200016841F080510160006800F0805001
:1029E00000900098FFE702B07047000080B582B009
:1029F0008DF807009DF9070009F016FD02B080BDB3
:102A000080B586B08DF817000491039200200290E3
:102A100009F022FD02909DF9170001900298049997
:102A2000039A04F01BF80146019809F01DFD06B059
:102A300080BD000080B582B00190019809F036FD9C
:102A400002B080BD80B584B002900191029820B997
:102A5000FFE701208DF80F0021E1019843F60041C6
:102A6000C4F20201096801F00701884212D9FFE7A8
:102A7000019943F60040C4F202000170006800F0C2
:102A800007000199884204D0FFE701208DF80F006C
:102A900005E1FFE702980078800700282AD5FFE7C4
:102AA000029800784007002809D5FFE743F608019F
:102AB000C4F20201086840F4E0500860FFE70298A1
:102AC00000780007002809D5FFE743F60801C4F2A3
:102AD0000201086840F460400860FFE743F608011F
:102AE000C4F20201086820F0F000029A92681043D4
:102AF0000860FFE702980078C00700286ED0FFE763
:102B000002984068012811D1FFE743F60000C4F2A3
:102B10000200006800F400310020B0EB514F04D1F6
:102B2000FFE701208DF80F00B9E02CE00298406823
:102B3000022805D0FFE702984068032811D1FFE77B
:102B400043F60000C4F20200006800F000710020AB
:102B5000B0EB516F04D1FFE701208DF80F009EE02C
:102B600010E043F60000C4F20200006800F0020129
:102B70000020B0EB510F04D1FFE701208DF80F00CA
:102B80008DE0FFE7FFE743F60801C4F202010868A1
:102B900020F00300029A526810430860FFF77AF9A8
:102BA0000090FFE743F60800C4F20200006800F05E
:102BB0000C0002994968B0EB810F0ED0FFE7FFF7D8
:102BC00069F90099401A41F28931884204D3FFE73C
:102BD00003208DF80F0062E0E4E7FFE7019843F679
:102BE0000041C4F20201096801F00701884212D2D3
:102BF000FFE7019943F60040C4F20200017000684B
:102C000000F007000199884204D0FFE701208DF809
:102C10000F0044E0FFE702980078400700280CD539
:102C2000FFE743F60801C4F20201086820F4E0500F
:102C3000029AD26810430860FFE702980078000704
:102C400000280DD5FFE743F60801C4F20201086829
:102C500020F46040029A126940EAC2000860FFE76F
:102C600000F04CF843F60801C4F202010968C9B249
:102C70000A094CF63251C0F60001895CC84040F2A6
:102C80000001C2F20001086040F24400C2F20000FC
:102C90000068FFF74DFE00208DF80F00FFE79DF85C
:102CA0000F0004B080BD000040F20000C2F200003E
:102CB0000068704780B5FFF7F7FF43F60801C4F2DC
:102CC00002010968C1F382224CF64251C0F60001AC
:102CD000895CC84080BD000080B5FFF7E5FF43F682
:102CE0000801C4F20201096889B24A0B4CF642514C
:102CF000C0F60001895CC84080BD000080B586B088
:102D00000020059004900390029043F60800C4F25E
:102D10000200006800F00C000146019140B1FFE79D
:102D2000019804280AD0FFE7019808280CD04FE04A
:102D300042F20040C0F2F40002904FE041F6003051
:102D4000C0F2B700029049E043F60400C4F202006A
:102D5000016801F03F01059100684002002813D589
:102D6000FFE743F60400C4F202000068C0F38810D5
:102D700041F60031C0F2B701A0FB0101059A002322
:102D8000FDF78AFA049012E043F60400C4F2020050
:102D90000068C0F3881042F20041C0F2F401A0FBC9
:102DA0000101059A0023FDF777FA0490FFE743F647
:102DB0000400C4F20200006800F44031022000EB7D
:102DC000D130039004980399B0FBF1F0029005E034
:102DD00042F20040C0F2F4000290FFE7029806B011
:102DE00080BD000080B586B00490049820B9FFE74C
:102DF00001208DF8170050E304980078C0070028E0
:102E000000F0A580FFE743F60800C4F20200006866
:102E100000F00C00042813D0FFE743F60800C4F2CA
:102E20000200006800F00C0008281ED1FFE743F6FE
:102E30000400C4F2020000684002002815D5FFE734
:102E400043F60000C4F20200006800F400310020E4
:102E5000B0EB514F08D0FFE70498406820B9FFE776
:102E600001208DF8170018E370E0FFE70498406830
:102E7000B0F5803F09D1FFE743F60001C4F202013B
:102E8000086840F48030086020E004984068B0F59D
:102E9000A02F0DD1FFE743F60001C4F2020108683C
:102EA00040F480200860086840F4803008600CE03E
:102EB00043F60001C4F20201086820F48030086083
:102EC000086820F480200860FFE7FFE7FFE7049828
:102ED0004068E8B1FFE7FEF7DDFF0390FFE743F648
:102EE0000000C4F20200006800F400310020B0EBE2
:102EF000514F0CD1FFE7FEF7CDFF0399401A65282B
:102F000004D3FFE703208DF81700C6E2E7E71CE0D3
:102F1000FEF7C0FF0390FFE743F60000C4F2020093
:102F2000006800F400310020B0EB514F0CD0FFE7F7
:102F3000FEF7B0FF0399401A652804D3FFE703208A
:102F40008DF81700A9E2E7E7FFE7FFE7FFE704983E
:102F500000788007002840F19680FFE743F60800DC
:102F6000C4F20200006810F00C0F13D0FFE743F624
:102F70000800C4F20200006800F00C0008282CD100
:102F8000FFE743F60400C4F2020000684002002894
:102F900023D4FFE743F60000C4F20200006800F00B
:102FA00002010020B0EB510F09D0FFE70498C06880
:102FB000012804D0FFE701208DF817006DE243F6E9
:102FC0000001C4F20201086820F0F800049A1269B6
:102FD00040EAC2000860FFE754E00498C06870B39C
:102FE000FFE70021C4F2472101200860FEF752FFED
:102FF0000390FFE743F60000C4F20200006800F00F
:1030000002010020B0EB510F0CD1FFE7FEF742FFA9
:103010000399401A032804D3FFE703208DF8170013
:103020003BE2E7E743F60001C4F20201086820F042
:10303000F800049A126940EAC200086021E0002109
:10304000C4F2472100200860FEF724FF0390FFE749
:1030500043F60000C4F20200006800F00201002004
:10306000B0EB510F0CD0FFE7FEF714FF0399401AA5
:10307000032804D3FFE703208DF817000DE2E7E7EC
:10308000FFE7FFE7FFE704980078000700284BD52B
:10309000FFE70498406918B3FFE740F68061C4F287
:1030A000472101200860FEF7F5FE0390FFE743F695
:1030B0007400C4F20200006800F002010020B0EBCE
:1030C000510F0CD1FFE7FEF7E5FE0399401A0328E4
:1030D00004D3FFE703208DF81700DEE1E7E722E0E5
:1030E00040F68061C4F2472100200860FEF7D2FE5E
:1030F0000390FFE743F67400C4F20200006800F09A
:1031000002010020B0EB510F0CD0FFE7FEF7C2FE2A
:103110000399401A032804D3FFE703208DF8170012
:10312000BBE1E7E7FFE7FFE70498007840070028E6
:1031300040F1CE80FFE700208DF8070043F6400005
:10314000C4F202000068C000002815D4FFE7FFE7C2
:103150000020009043F64000C4F20200016841F0F4
:1031600080510160006800F0805000900098FFE7F7
:1031700001208DF80700FFE747F20000C4F20000CD
:103180000068C005002822D4FFE747F20001C4F21E
:103190000001086840F480700860FEF77BFE039031
:1031A000FFE747F20000C4F200000068C0050028F5
:1031B0000CD4FFE7FEF76EFE0399401A032804D3F0
:1031C000FFE703208DF8170067E1EAE7FFE7FFE775
:1031D00004988068012809D1FFE743F67001C4F222
:1031E0000201086840F0010008601FE00498806850
:1031F00005280DD1FFE743F67001C4F2020108680B
:1032000040F004000860086840F0010008600CE02D
:1032100043F67001C4F20201086820F00100086062
:10322000086820F004000860FFE7FFE7FFE7049864
:103230008068F8B1FFE7FEF72DFE0390FFE743F645
:103240007000C4F20200006800F002010020B0EB40
:10325000510F0ED1FFE7FEF71DFE0399401A41F210
:103260008931884204D3FFE703208DF8170014E169
:10327000E5E71EE0FEF70EFE0390FFE743F6700061
:10328000C4F20200006800F002010020B0EB510F10
:103290000ED0FFE7FEF7FEFD0399401A41F2893197
:1032A000884204D3FFE703208DF81700F5E0E5E737
:1032B000FFE79DF80700012809D1FFE743F6400129
:1032C000C4F20201086820F080500860FFE7FFE7C1
:1032D00004988069002800F0DC80FFE743F60800CE
:1032E000C4F20200006800F00C00082800F085809D
:1032F000FFE70498806902285CD1FFE76021C4F2EF
:10330000472100200860FEF7C5FD0390FFE743F664
:103310000000C4F20200006800F000710020B0EB71
:10332000516F0CD0FFE7FEF7B5FD0399401A032853
:1033300004D3FFE703208DF81700AEE0E7E7049918
:10334000C869D1F820C04B6A8A6A40EA0C0040EA9A
:103350008310D2034FF6FF739A43A2F580321043D5
:10336000C96A40EA016043F60401C4F20201086040
:103370006021C4F2472101200860FEF78BFD039015
:10338000FFE743F60000C4F20200006800F000719D
:103390000020B0EB516F0CD1FFE7FEF77BFD0399E6
:1033A000401A032804D3FFE703208DF8170074E0C8
:1033B000E7E721E06021C4F2472100200860FEF722
:1033C00069FD0390FFE743F60000C4F202000068C5
:1033D00000F000710020B0EB516F0CD0FFE7FEF75A
:1033E00059FD0399401A032804D3FFE703208DF801
:1033F000170052E0E7E7FFE74AE0049880690128F8
:1034000004D1FFE701208DF8170046E043F60400E1
:10341000C4F202000068029004988069012831D04B
:10342000FFE7029800F480000499C969884229D115
:10343000FFE7029800F03F000499096A884221D111
:10344000FFE7029847F6C07108400499496AB0EB5B
:10345000811F17D1FFE7029800F440300499896A70
:10346000C9034FF6FF729143A1F58031884209D11B
:10347000FFE7029800F070600499C96AB0EB016F31
:1034800004D0FFE701208DF8170006E0FFE7FFE713
:10349000FFE700208DF81700FFE79DF8170006B042
:1034A00080BD000080B582B00190019803F010FB50
:1034B00002B080BD81B0009001B0704781B0009033
:1034C00001B0704784B00290019100200090FFE7A6
:1034D000029890F83C00012804D1FFE702208DF803
:1034E0000F0044E00299012081F83C00FFE7FFE76C
:1034F000009820F0FF000199C968084300900098E7
:1035000020F440700199896808430090009820F4E5
:1035100080600199496808430090009820F4006099
:103520000199096808430090009820F4805001999F
:10353000096908430090009820F4005001994969F6
:1035400008430090009820F480400199C96908431D
:1035500000900098029909684864FFE702990020EA
:1035600081F83C00FFE700208DF80F00FFE79DF891
:103570000F0004B07047000085B003900291FFE790
:10358000039890F83C00012804D1FFE702208DF851
:1035900013007EE00399012081F83C00FFE7FFE77C
:1035A0000399022081F83D0003980068406801906B
:1035B0000398006880680090019820F070000190E6
:1035C00002980168019808430190019803990968DD
:1035D0004860039800680021C4F2010188423CD091
:1035E000FFE703980068B0F1804F36D0FFE70398FB
:1035F000006840F20041C4F2000188422DD0FFE78C
:103600000398006840F60001C4F20001884224D00B
:10361000FFE70398006840F60041C4F200018842C9
:103620001BD0FFE70398006840F20041C4F201019B
:10363000884212D0FFE70398006844F20001C4F208
:103640000101884209D0FFE70398006841F60001B4
:10365000C4F2000188420ED1FFE7009820F08000FC
:1036600000900298416800980843009000980399E0
:1036700009688860FFE70399012081F83D00FFE7B2
:103680000399002081F83C00FFE700208DF813002B
:10369000FFE79DF8130005B07047000080B582B0C9
:1036A0000090009820B9FFE701208DF807003FE067
:1036B000009890F83D0040B9FFE70099002081F89C
:1036C0003C00009800F038F8FFE70099022081F8EC
:1036D0003D00009951F8040B03F0BEFA0099012057
:1036E00081F84600FFE70099012081F83E0000992B
:1036F00081F83F00009981F84000009981F841006D
:10370000FFE7FFE70099012081F84200009981F866
:103710004300009981F84400009981F84500FFE7D3
:103720000099012081F83D0000208DF80700FFE797
:103730009DF8070002B080BD80B590B00F900F9843
:1037400000680021C4F20101884212D1FFE7FFE7BF
:1037500000200E9043F64400C4F20200016841F0DC
:1037600001010160006800F001000E900E98FFE773
:10377000DEE00F98006841F20041C4F20001884287
:103780001BD1FFE7FFE700200D9043F64000C4F295
:103790000200016841F020010160006800F0200093
:1037A0000D900D98FFE73720079000221146FFF794
:1037B00027F90798FFF71AF9B9E00F98006840F267
:1037C0000041C4F20101884237D1FFE7FFE7002042
:1037D0000C9043F64400C4F20200016841F002017B
:1037E0000160006800F002000C900C98FFE72B20AD
:1037F0000290002205921146FFF702F90298FFF7A6
:10380000F5F8059A2C2003901146FFF7F9F8039874
:10381000FFF7ECF8059A2D2004901146FFF7F0F819
:103820000498FFF7E3F8059A2E2006901146FFF75B
:10383000E7F80698FFF7DAF878E00F98006844F2A6
:103840000001C4F20101884212D1FFE7FFE7002026
:103850000B9043F64400C4F20200016841F4803149
:103860000160006800F480300B900B98FFE75CE08B
:103870000F98006844F20041C4F20101884212D15D
:10388000FFE7FFE700200A9043F64400C4F202007D
:10389000016841F400310160006800F400300A90D2
:1038A0000A98FFE740E00F98006844F60001C4F270
:1038B0000101884212D1FFE7FFE70020099043F69B
:1038C0004400C4F20200016841F4802101600068F4
:1038D00000F4802009900998FFE724E00F98006821
:1038E00041F60001C4F2000188421BD1FFE7FFE767
:1038F0000020089043F64000C4F20200016841F045
:1039000040010160006800F0400008900898FFE75F
:103910002B20019000221146FFF772F80198FFF763
:1039200065F8FFE7FFE7FFE7FFE7FFE7FFE7FFE7F0
:1039300010B080BD83B00190019890F83D0001283F
:1039400004D0FFE701208DF80B006AE00199022006
:1039500081F83D0001980168C86840F00100C86026
:10396000019800680021C4F2010188423CD0FFE7C1
:1039700001980068B0F1804F36D0FFE701980068E9
:1039800040F20041C4F2000188422DD0FFE70198C7
:10399000006840F60001C4F20001884224D0FFE72D
:1039A0000198006840F60041C4F2000188421BD033
:1039B000FFE70198006840F20041C4F2010188422B
:1039C00012D0FFE70198006844F20001C4F201013F
:1039D000884209D0FFE70198006841F60001C4F26F
:1039E0000001884212D1FFE701980068806800F06A
:1039F000070000900098062807D0FFE701980168AB
:103A0000086840F001000860FFE706E001980168DF
:103A1000086840F001000860FFE700208DF80B0007
:103A2000FFE79DF80B0003B07047000080B586B03B
:103A30000490039100208DF80B00FFE7049890F8A4
:103A40003C00012804D1FFE702208DF81700ABE00D
:103A50000499012081F83C00FFE7FFE70499022068
:103A600081F83D000498006880680190019820F07A
:103A700077000190019820F47F400190019804990B
:103A800009688860039800680090002872D0FFE7FA
:103A9000009810286ED0FFE7009820286AD0FFE732
:103AA0000098302866D0FFE70098402855D0FFE7FF
:103AB0000098502837D0FFE70098602840D0FFE7F3
:103AC000009870280BD0FFE70098B0F5805F05D014
:103AD000FFE70098B0F5005F16D052E055E004987B
:103AE0000068039B5A689968DB6803F0A3F904989F
:103AF000006880680190019840F07700019001987B
:103B000004990968886040E004980068039B5A683B
:103B10009968DB6803F08EF904980168886840F4BE
:103B20008040886031E004980068039A5168D26848
:103B300003F076FC04980068502103F095F924E026
:103B400004980068039A5168D26803F091FC0498C5
:103B50000068602103F088F917E004980068039A70
:103B60005168D26803F05CFC04980068402103F0BF
:103B70007BF90AE0049800680399096803F074F976
:103B800003E001208DF80B00FFE70499012081F884
:103B90003D00FFE70499002081F83C00FFE79DF815
:103BA0000B008DF81700FFE79DF8170006B080BDE9
:103BB00080B586B004900391049820B9FFE70120F6
:103BC0008DF8170088E0049890F83D0040B9FFE7B1
:103BD0000499002081F83C00049800F081F8FFE788
:103BE0000499022081F83D0004980168886844F235
:103BF000070290438860049951F8040B03F02CF8F5
:103C000004980068806802900498006880690190B8
:103C100004980068006A00900398016802980843BD
:103C20000290019840F2033188430190039988681B
:103C3000896940EA0121019808430190019840F602
:103C40000C418843019001984FF2F00188430190A4
:103C50000399C868C96940EA0121019808430190A5
:103C600003990869096A000140EA01310198084393
:103C70000190009820F022000090009820F0880029
:103C8000009003994868496940EA01110098084387
:103C9000009002980499096888600198049909685D
:103CA000886100980499096808620499012081F8E4
:103CB0004600049981F83E00049981F83F00049978
:103CC00081F84200049981F84300049981F83D008D
:103CD00000208DF81700FFE79DF8170006B080BDA3
:103CE00080B594B0139000201290119010900F9016
:103CF0000E9013980068B0F1804F5AD1FFE7FFE7AC
:103D000000200D9043F64000C4F20200016841F02B
:103D100001010160006800F001000D900D98FFE7BF
:103D2000FFE700200C9043F63000C4F20200016867
:103D300041F001010160006800F001000C900C9856
:103D4000FFE7FFE700200B9043F63000C4F20200CB
:103D5000016841F002010160006800F002000B9070
:103D60000B98FFE74FF400400E90022001900F9057
:103D700000200290109011900120039012900020DA
:103D8000C4F202000EA90491FDF790FE019B029A75
:103D9000039804994FF0080CCDF838C00F93109297
:103DA0001192129040F20040C4F20200FDF77EFE34
:103DB000B2E01398006840F20041C4F2000188426A
:103DC00032D1FFE7FFE700200A9043F64000C4F23B
:103DD0000200016841F002010160006800F0020089
:103DE0000A900A98FFE7FFE70020099043F63000A9
:103DF000C4F20200016841F002010160006800F0B5
:103E0000020009900998FFE730200E9002200F90E1
:103E1000002110911191129040F20040C4F2020072
:103E20000EA9FDF743FE76E01398006840F6000106
:103E3000C4F20001884232D1FFE7FFE7002008907A
:103E400043F64000C4F20200016841F00401016041
:103E5000006800F0040008900898FFE7FFE70020E2
:103E6000079043F63000C4F20200016841F00201FD
:103E70000160006800F0020007900798FFE7C0208B
:103E80000E9002200F90002110911191129040F29B
:103E90000040C4F202000EA9FDF708FE3AE01398B4
:103EA000006840F60041C4F20001884231D1FFE7CA
:103EB000FFE70020069043F64000C4F202000168CC
:103EC00041F008010160006800F0080006900698C3
:103ED000FFE7FFE70020059043F63000C4F2020040
:103EE000016841F001010160006800F001000590E7
:103EF0000598FFE703200E9002200F9000211091FB
:103F0000119112900020C4F202000EA9FDF7CEFD1F
:103F1000FFE7FFE7FFE7FFE714B080BD80B586B09D
:103F200004900391049890F83E008DF80B000498DB
:103F300090F83F008DF80A00049890F842008DF840
:103F40000900049890F843008DF808000398B8B968
:103F5000FFE79DF80B00012805D1FFE79DF8090058
:103F6000012804D0FFE701208DF8170079E00499BB
:103F7000022081F83E00049981F84200FFE742E008
:103F80000398042817D1FFE79DF80A00012805D1FE
:103F9000FFE79DF80800012804D0FFE701208DF815
:103FA00017005EE00499022081F83F00049981F82F
:103FB0004300FFE726E09DF80B0001280FD1FFE743
:103FC0009DF80A0001280AD1FFE79DF809000128A1
:103FD00005D1FFE79DF80800012804D0FFE7012084
:103FE0008DF817003DE00499022081F83E00049905
:103FF00081F83F00049981F84200049981F8430058
:10400000FFE7FFE7FFE70398019020B1FFE7019882
:10401000042807D00DE0049800680021012202F076
:10402000EDFE14E0049800680421012202F0E6FE8F
:104030000DE00498006800210122009202F0DEFEEB
:10404000009A04980068042102F0D8FEFFE7049863
:104050000168086840F00100086000208DF8170032
:10406000FFE79DF8170006B080BD000081B000900A
:1040700001B0704780B584B0039003980068C068B1
:10408000029003980068006901909DF80400800781
:10409000002824D5FFE79DF80800800700281DD5DB
:1040A000FFE7039801686FF002000861039901209F
:1040B0000877039800688069800720B1FFE70398BC
:1040C000FFF7D4FF06E0039800F04AFA039800F0E7
:1040D00091FBFFE7039900200877FFE7FFE79DF8D2
:1040E00004004007002825D5FFE79DF80800400799
:1040F00000281ED5FFE7039801686FF004000861EF
:1041000003990220087703980068806910F4407FC3
:1041100004D0FFE70398FFF7A9FF06E0039800F03B
:104120001FFA039800F066FBFFE703990020087769
:10413000FFE7FFE79DF804000007002824D5FFE70C
:104140009DF80800000700281DD5FFE703980168C7
:104150006FF008000861039904200877039800684D
:10416000C069800720B1FFE70398FFF77FFF06E0F3
:10417000039800F0F5F9039800F03CFBFFE7039982
:1041800000200877FFE7FFE79DF80400C00600283D
:1041900025D5FFE79DF80800C00600281ED5FFE7DB
:1041A000039801686FF010000861039908200877F0
:1041B00003980068C06910F4407F04D0FFE70398BB
:1041C000FFF754FF06E0039800F0CAF9039800F0E7
:1041D00011FBFFE7039900200877FFE7FFE79DF851
:1041E0000400C00778B1FFE79DF80800C00748B198
:1041F000FFE7039801686FF001000861039800F081
:10420000E3FBFFE7FFE79DF804000006002810D558
:10421000FFE79DF808000006002809D5FFE703988E
:1042200001686FF0800008610398FFF743F9FFE72A
:10423000FFE79DF804004006002810D5FFE79DF831
:1042400008004006002809D5FFE7039801686FF0D1
:1042500040000861039800F0A5FCFFE7FFE79DF828
:1042600004008006002810D5FFE79DF808008006AE
:10427000002809D5FFE7039801686FF02000086166
:104280000398FFF71BF9FFE7FFE704B080BD0000CC
:1042900080B58CB00B9000200A9009900890079090
:1042A00006900B9800680021C4F20101884222D1D7
:1042B000FFE7FFE70020059043F63000C4F202005C
:1042C000016841F010010160006800F010000590E5
:1042D0000598FFE74FF4D440069002210791012092
:1042E000089009910A9041F20000C4F2020006A968
:1042F000FDF7DCFBDFE00B98006840F20041C4F200
:104300000101884223D1FFE7FFE70020049043F634
:104310003000C4F20200016841F00401016000684D
:1043200000F0040004900498FFE74FF470700690CA
:104330000220079000200890099003200A9040F680
:104340000000C4F2020006A9FDF7B0FBB2E00B9832
:10435000006844F20001C4F20101884222D1FFE763
:10436000FFE70020039043F63000C4F2020001682A
:1043700041F010010160006800F010000390039804
:10438000FFE7602006900220079001210891099024
:1043900003200A9041F20000C4F2020006A9FDF7D2
:1043A00085FB86E00B98006844F20041C4F20101ED
:1043B000884223D1FFE7FFE70020029043F6300058
:1043C000C4F20200016841F002010160006800F0DF
:1043D000020002900298FFE74FF4807006900220DE
:1043E000079001210891099003200A9040F20040B3
:1043F000C4F2020006A9FDF759FB59E00B980068CA
:1044000044F60001C4F20101884223D1FFE7FFE72F
:104410000020019043F63000C4F20200016841F030
:1044200002010160006800F0020001900198FFE7BE
:104430004FF4007006900220079001210891099026
:1044400003200A9040F20040C4F2020006A9FDF7E2
:104450002DFB2CE00B98006841F60001C4F200012E
:10446000884223D1FFE7FFE70020009043F63000A9
:10447000C4F20200016841F002010160006800F02E
:10448000020000900098FFE74FF4404006900220A1
:10449000079000200890099009200A9040F20040FF
:1044A000C4F2020006A9FDF701FBFFE7FFE7FFE703
:1044B000FFE7FFE7FFE70CB080BD000080B586B0E6
:1044C00004900391029200208DF80700FFE7049802
:1044D00090F83C00012804D1FFE702208DF8170076
:1044E0003AE00499012081F83C00FFE7FFE70298D9
:1044F00000900C2821D80099DFE801F0071F1F1F4A
:104500000D1F1F1F131F1F1F190004980068039918
:1045100002F0CAFD15E004980068039902F03AFE23
:104520000FE004980068039902F0AEFE09E00498D9
:104530000068039902F022FF03E001208DF80700D4
:10454000FFE7FFE70499002081F83C00FFE79DF8B2
:1045500007008DF81700FFE79DF8170006B080BD33
:1045600081B0009001B0704780B582B00090009893
:1045700020B9FFE701208DF807003FE0009890F890
:104580003D0040B9FFE70099002081F83C00009809
:1045900000F038F8FFE70099022081F83D0000990B
:1045A00051F8040B02F058FB0099012081F84600F5
:1045B000FFE70099012081F83E00009981F83F0053
:1045C000009981F84000009981F84100FFE7FFE77A
:1045D0000099012081F84200009981F84300009978
:1045E00081F84400009981F84500FFE70099012017
:1045F00081F83D0000208DF80700FFE79DF80700D7
:1046000002B080BD81B0009001B0704780B586B027
:1046100004900391029200208DF80700FFE70498B0
:1046200090F83C00012804D1FFE702208DF8170024
:1046300089E00499012081F83C00FFE7FFE7029838
:1046400000900C2800F270800099DFE801F0076DFF
:104650006D6D206D6D6D3A6D6D6D53000498006841
:10466000039902F021FD04980168886940F0080070
:10467000886104980168886920F0040088610398C3
:1046800002690498016888691043886150E00498C1
:104690000068039902F07EFD04980168886940F47F
:1046A0000060886104980168886920F480608861EE
:1046B0000398026904980168886940EA02208861C9
:1046C00036E004980068039902F0DEFD0498016862
:1046D000C86940F00800C86104980168C86920F002
:1046E0000400C8610398026904980168C86910430E
:1046F000C8611DE004980068039902F03FFE049829
:104700000168C86940F40060C86104980168C8691C
:1047100020F48060C8610398026904980168C86940
:1047200040EA0220C86103E001208DF80700FFE79E
:10473000FFE70499002081F83C00FFE79DF807009F
:104740008DF81700FFE79DF8170006B080BD000048
:1047500080B582B00090009820B9FFE701208DF865
:1047600007003FE0009890F83D0040B9FFE700994E
:10477000002081F83C00009800F038F8FFE700992D
:10478000022081F83D00009951F8040B02F064FA10
:104790000099012081F84600FFE70099012081F887
:1047A0003E00009981F83F00009981F8400000998F
:1047B00081F84100FFE7FFE70099012081F84200FE
:1047C000009981F84300009981F84400009981F82C
:1047D0004500FFE70099012081F83D0000208DF899
:1047E0000700FFE79DF8070002B080BD81B0009090
:1047F00001B0704781B0009001B0704780B58CB0B7
:104800000A900991099828B9FFE70A9890F83E00A4
:1048100007901CE00998042805D1FFE70A9890F852
:104820003F00069010E00998082805D1FFE70A9894
:1048300090F84000059004E00A9890F84100059037
:10484000FFE705980690FFE706980790FFE70798AF
:10485000012804D0FFE701208DF82F00AFE0099870
:1048600028B9FFE70A99022081F83E001EE0099866
:10487000042806D1FFE70A99022081F83F0004903E
:1048800012E00998082806D1FFE70A99022081F86A
:104890004000039005E00A99022081F8410003904E
:1048A000FFE703980490FFE70498FFE70A98006881
:1048B00009990122019202F0A1FA01980A99096866
:1048C0000022C4F20102914202900CD0FFE70A9844
:1048D00000684FF60041CBF6FE710844B0FA80F054
:1048E00040090290FFE70298C00738B1FFE70A9835
:1048F0000168486C40F400404864FFE70A9800688B
:104900000021C4F2010188423CD0FFE70A98006808
:10491000B0F1804F36D0FFE70A98006840F20041BE
:10492000C4F2000188422DD0FFE70A98006840F6E3
:104930000001C4F20001884224D0FFE70A98006811
:1049400040F60041C4F2000188421BD0FFE70A98FC
:10495000006840F20041C4F20101884212D0FFE732
:104960000A98006844F20001C4F20101884209D0AB
:10497000FFE70A98006841F60001C4F2000188428E
:1049800012D1FFE70A980068806800F007000890DD
:104990000898062807D0FFE70A980168086840F0E1
:1049A00001000860FFE706E00A980168086840F027
:1049B00001000860FFE700208DF82F00FFE79DF859
:1049C0002F000CB080BD000080B582B0019001982E
:1049D00000680021C4F20101884207D1FFE740F2DC
:1049E0007830C2F2000040688047D9E00198006842
:1049F000B0F1804F07D1FFE740F28030C2F20000F3
:104A000040688047CBE00198006840F20041C4F262
:104A10000001884207D1FFE740F28830C2F200006F
:104A200040688047BAE00198006840F60001C4F28F
:104A30000001884207D1FFE740F29030C2F2000047
:104A400040688047A9E00198006840F60041C4F240
:104A50000001884207D1FFE740F29830C2F200001F
:104A60004068804798E00198006841F20001C4F274
:104A70000001884207D1FFE740F2A030C2F20000F7
:104A80004068804787E00198006841F20041C4F225
:104A90000001884207D1FFE740F2A830C2F20000CF
:104AA0004068804776E00198006840F20041C4F217
:104AB0000101884207D1FFE740F2B030C2F20000A6
:104AC0004068804765E00198006844F20001C4F244
:104AD0000101884207D1FFE740F2B830C2F200007E
:104AE0004068804754E00198006844F20041C4F2F5
:104AF0000101884207D1FFE740F25030C2F20000C6
:104B00004068804743E00198006844F60001C4F221
:104B10000101884207D1FFE740F25830C2F200009D
:104B20004068804732E00198006841F60001C4F215
:104B30000001884207D1FFE740F26030C2F2000076
:104B40004068804721E00198006841F60041C4F2C6
:104B50000001884207D1FFE740F26830C2F200004E
:104B60004068804710E00198006842F20001C4F2FA
:104B70000001884207D1FFE740F27030C2F2000026
:104B800040688047FFE7FFE7FFE7FFE7FFE7FFE752
:104B9000FFE7FFE7FFE7FFE7FFE7FFE7FFE7FFE7E5
:104BA00002B080BD81B0009001B0704780B586B082
:104BB00004900391ADF80A20049890F84200202850
:104BC00048D1FFE7039820B1FFE7BDF80A0020B9FC
:104BD000FFE701208DF8170040E0049901200863E9
:104BE00004990020486304980399BDF80A2002F054
:104BF000CDFF8DF809000498006B012821D1FFE753
:104C0000FFE7002001900498006800680190049874
:104C10000068406801900198FFE7FFE7FFE704980C
:104C2000006850E8030F40F010000090FFE7009983
:104C30000498026842E803100028F0D1FFE7FFE77C
:104C400003E001208DF80900FFE79DF809008DF8C9
:104C5000170003E002208DF81700FFE79DF817000A
:104C600006B080BD80B586B00590ADF812100598ED
:104C7000006841F20001C4F20101884219D1FFE746
:104C8000BDF8121040F2C030C2F200000290A0F84D
:104C90000814D0F80C24BDF8121000F50170039030
:104CA0009047029A03990598B2F80424FFF77EFF13
:104CB00022E00598006841F20041C4F201018842F7
:104CC00019D1FFE7BDF8121040F2D070C2F2000017
:104CD0000090A0F80814D0F80C24BDF8121000F5CC
:104CE000017001909047009A01990598B2F8042448
:104CF000FFF75CFFFFE7FFE706B080BD81B00090E3
:104D000001B0704780B592B01190119800680068AA
:104D1000109011980068C0680F9011980068406961
:104D20000E9000200D900C90109800F00F000D9048
:104D30000D9888B9FFE79DF84000800600280AD545
:104D4000FFE79DF83C008006002804D5FFE7119896
:104D500002F0CAFD02E2FFE70D98002800F0C280D1
:104D6000FFE79DF83800C00738B9FFE7BDF83C0001
:104D700010F4907F00F0B680FFE79DF84000C00778
:104D800058B1FFE79DF83D00C00730B1FFE711992A
:104D9000486C40F001004864FFE79DF84000400780
:104DA00000280BD5FFE79DF83800C00730B1FFE7BA
:104DB0001199486C40F002004864FFE79DF84000FC
:104DC000800700280BD5FFE79DF83800C00730B1F9
:104DD000FFE71199486C40F004004864FFE79DF834
:104DE00040000007002811D5FFE79DF83C00800631
:104DF000002805D4FFE79DF83800C00730B1FFE771
:104E00001199486C40F008004864FFE71198406C25
:104E1000002866D0FFE79DF84000800600280AD5EC
:104E2000FFE79DF83C008006002804D5FFE71198B5
:104E300002F05AFDFFE7119800684069C0F3801046
:104E40000C901198406C0007002804D4FFE70C98E0
:104E500000283ED0FFE7119802F086FC1198006808
:104E60004069400600282FD5FFE7FFE7FFE71198CC
:104E7000006850E8050F20F040000B90FFE70B9909
:104E80001198026842E805100028F0D1FFE7FFE71B
:104E90001198C06B98B1FFE71198C16B47F2A95008
:104EA000C0F6000008651198C06BFCF711FB28B133
:104EB000FFE71198C06B016D8847FFE703E0119889
:104EC000FFF71CFFFFE703E01198FFF717FFFFE76D
:104ED00006E01198FFF712FF119900204864FFE7E0
:104EE000FFE73BE11198006B012840F01781FFE7D5
:104EF0009DF84000C006002840F11081FFE79DF8B2
:104F00003C00C006002840F10981FFE7FFE70020D0
:104F10000A901198006800680A901198006840682B
:104F20000A900A98FFE71198006840694006002837
:104F300040F19A80FFE71198C06B00684068ADF8B7
:104F40002600BDF82600002875D0FFE7BDF8260032
:104F50001199898D88426EDAFFE7BDF82600119914
:104F6000C8851198C06BC069B0F5807F58D0FFE745
:104F7000FFE7FFE71198006850E8030F20F4807006
:104F80000890FFE708991198026842E8031000288A
:104F9000F0D1FFE7FFE7FFE7FFE71198006850E86F
:104FA000050F20F001000790FFE7079911980268AC
:104FB00042E805100028F0D1FFE7FFE7FFE7FFE731
:104FC0001198006850E8050F20F040000690FFE7B8
:104FD00006991198026842E805100028F0D1FFE711
:104FE000FFE71199202081F8420011990020086301
:104FF000FFE7FFE71198006850E8030F20F010006A
:105000000590FFE705991198026842E8031000280F
:10501000F0D1FFE7FFE71198C06BFCF7E3F9FFE77A
:105020001199022048631198818DC28D891A89B225
:10503000FFF718FE17E0BDF826001199898D884208
:1050400010D1FFE71198C06BC069B0F5807F08D11F
:10505000FFE71199022048631198818DFFF702FE46
:10506000FFE7FFE7FFE779E01199888DC98D401AC6
:10507000ADF812001198C08D00284ED0FFE7BDF8A2
:105080001200002849D0FFE7FFE7FFE7119800680A
:1050900050E8030F20F490700390FFE703991198F4
:1050A000026842E803100028F0D1FFE7FFE7FFE7BE
:1050B000FFE71198006850E8050F20F0010002900A
:1050C000FFE702991198026842E805100028F0D124
:1050D000FFE7FFE71199202081F842001199002095
:1050E0000863FFE7FFE71198006850E8030F20F01E
:1050F00010000190FFE701991198026842E803103F
:105100000028F0D1FFE7FFE71199022048631198CA
:10511000BDF81210FFF7A6FDFFE71FE09DF8400065
:10512000000600280AD5FFE79DF83C00000600288D
:1051300004D5FFE7119802F0C1FD0FE09DF8400093
:10514000400600280AD5FFE79DF83C0040060028ED
:1051500004D5FFE7119802F051FBFFE712B080BDC4
:1051600080B582B00090009820B9FFE701208DF84B
:10517000070040E00098806908B1FFE700E0FFE722
:10518000009890F8410040B9FFE70099002081F8AD
:105190004000009800F034F8FFE70099242081F8DF
:1051A000410000980168C86820F40050C860009869
:1051B00002F04EFC00980168086920F490400861F4
:1051C00000980168486920F02A0048610098016849
:1051D000C86840F40050C860009900204864009AF4
:1051E000202182F84110009A82F842100099486309
:1051F0008DF80700FFE79DF8070002B080BD0000B2
:1052000080B5A0B01F9000201E901D901C901B9098
:105210001A901F98006844F60041C4F200018842C9
:1052200035D1FFE7FFE70020199043F64000C4F2B4
:105230000200016841F400210160006800F40020D0
:1052400019901998FFE7FFE70020189043F6300007
:10525000C4F20200016841F004010160006800F03E
:10526000040018901898FFE74FF440601A9002204D
:105270001B9000201C9003201D9008201E9040F6DB
:105280000000C4F202001AA9FCF710FCBFE11F984D
:10529000006845F20001C4F20001884260D1FFE7D6
:1052A000FFE70020179043F64000C4F202000168B7
:1052B00041F480110160006800F480101790179885
:1052C000FFE7FFE70020169043F63000C4F202002B
:1052D000016841F004010160006800F004001690CC
:1052E0001698FFE7FFE70020159043F63000C4F260
:1052F0000200016841F008010160006800F0080048
:1053000015901598FFE74FF480501A9002200A90EC
:105310001B9000200B901C9003200C901D900820E7
:105320000D901E9040F60000C4F202001AA90E91E2
:10533000FCF7BCFBDDF828C00B9B0C9A0D980E996E
:105340004FF0040ECDF868E0CDF86CC01C931D92B0
:105350001E9040F60040C4F20200FCF7A7FB55E1A6
:105360001F98006841F20001C4F20101884267D130
:10537000FFE7FFE70020149043F64400C4F2020068
:10538000016841F010010160006800F01000149005
:105390001498FFE7FFE70020139043F63000C4F2B3
:1053A0000200016841F001010160006800F00100A5
:1053B00013901398FFE74FF4C0601A9002201B90DF
:1053C000002008901C9003201D9007201E900020B4
:1053D000C4F202001AA9FCF769FB089940F6E44000
:1053E000C2F20000099046F24042C4F2020202609A
:1053F0004FF0006242608160C1604FF480620261E0
:1054000041618161C16101624162FCF713FA18B127
:10541000FFE7FBF7B1F9FFE7FFE71F9840F6E4412C
:10542000C2F20001C1631F988863FFE7252007903F
:1054300000221146FDF7E4FA0798FDF7D7FAE4E0F9
:105440001F98006844F20041C4F20001884267D10D
:10545000FFE7FFE70020129043F64000C4F202008D
:10546000016841F400310160006800F400301290DE
:105470001298FFE7FFE70020119043F63000C4F2D6
:105480000200016841F008010160006800F00800B6
:1054900011901198FFE760201A9002201B900020C5
:1054A00005901C9003201D9007201E9040F60040A0
:1054B000C4F202001AA9FCF7F9FA059940F6445023
:1054C000C2F20000069046F28802C4F202020260B4
:1054D0004FF0006242608160C1604FF480620261FF
:1054E00041618161C16101624162FCF7A3F918B1B8
:1054F000FFE7FBF741F9FFE7FFE71F9840F644514C
:10550000C2F20001C1631F988863FFE72620049060
:1055100000221146FDF774FA0498FDF767FA73E06C
:105520001F98006844F60001C4F2000188426AD165
:10553000FFE7FFE70020109043F64000C4F20200AE
:10554000016841F480210160006800F4802010901F
:105550001098FFE7FFE700200F9043F63000C4F2F9
:105560000200016841F008010160006800F00800D5
:105570000F900F98FFE74FF440701A9002201B9095
:10558000002002901C9003201D9007201E9040F6E2
:105590000040C4F202001AA9FCF788FA029940F60A
:1055A000A450C2F20000039046F22802C4F20202A4
:1055B00002604FF0006242608160C1604FF480621F
:1055C000026141618161C1614FF440320262416216
:1055D000FCF730F918B1FFE7FBF7CEF8FFE7FFE77C
:1055E0001F9840F6A451C2F20001C1631F9888635E
:1055F000FFE72720019000221146FDF701FA0198EC
:10560000FDF7F4F9FFE7FFE7FFE7FFE7FFE720B06B
:1056100080BD000081B0009001B0704781B0009063
:1056200001B0704781B0009001B07047FFE7FEE71E
:1056300082B0009000980068406900F48061012009
:10564000B0EB912F1ED1FFE7009801686FF48060E6
:105650004861009900200863009A202182F83D10DB
:10566000009981F83E000099086C40F0040008643D
:10567000FFE70099002081F83C00FFE701208DF84A
:10568000070003E000208DF80700FFE79DF8070002
:1056900002B0704780B586B0DDF824C0DDF820C0C8
:1056A0000490ADF80E10ADF80C20ADF80A30049857
:1056B0000168086840F48060086004980168086820
:1056C00040F4807008600498089B09996A4611604C
:1056D0004FF00111002200F0C3F980B1FFE70498F8
:1056E00000680068C005002805D5FFE704994FF45D
:1056F00000700864FFE703208DF81700B7E0BDF8DD
:105700000E0000F0FE000499096808610498089AE8
:10571000099B0221C0F2010100F026FA20B1FFE747
:1057200001208DF81700A2E0FFE700200190049807
:1057300000684069019004980068806901900198B0
:10574000FFE704980899099A00F026FB80B1FFE76B
:105750000498006C042807D1FFE7049801680868E2
:1057600040F400700860FFE701208DF817007EE02C
:10577000BDF80A00012806D1FFE79DF80C00049946
:105780000968086121E09DF80D0004990968086125
:1057900004980899099A00F0FFFA80B1FFE704988D
:1057A000006C042807D1FFE704980168086840F4FA
:1057B00000700860FFE701208DF8170057E09DF8A2
:1057C0000C00049909680861FFE704980899099A90
:1057D00000F0E2FA80B1FFE70498006C042807D1DA
:1057E000FFE704980168086840F400700860FFE76C
:1057F00001208DF817003AE004980168086840F429
:10580000807008600498089B09996A4611604FF0FF
:105810000111002200F024F980B1FFE7049800682C
:105820000068C005002805D5FFE704994FF4007013
:105830000864FFE703208DF8170018E09DF80E00BC
:1058400040F001000499096808610498089A099BCE
:105850000221C0F2010100F087F920B1FFE7012029
:105860008DF8170003E000208DF81700FFE79DF882
:10587000170006B080BD000080B586B0DDF824C0FA
:10588000DDF820C00490ADF80E10ADF80C20ADF896
:105890000A3004980168086840F480700860049831
:1058A000089B09996A4611604FF00111002200F02F
:1058B000D7F880B1FFE7049800680068C0050028A9
:1058C00005D5FFE704994FF400700864FFE7032053
:1058D0008DF8170069E0BDF80E0000F0FE00049995
:1058E000096808610498089A099B0221C0F2010125
:1058F00000F03AF920B1FFE701208DF8170054E0DD
:10590000FFE7002001900498006840690190049826
:105910000068806901900198FFE704980899099A46
:1059200000F03AFA80B1FFE70498006C042807D130
:10593000FFE704980168086840F400700860FFE71A
:1059400001208DF8170030E0BDF80A00012806D1CB
:10595000FFE79DF80C0004990968086121E09DF8B3
:105960000D0004990968086104980899099A00F0E3
:1059700013FA80B1FFE70498006C042807D1FFE711
:1059800004980168086840F400700860FFE701208F
:105990008DF8170009E09DF80C000499096808616A
:1059A000FFE700208DF81700FFE79DF8170006B00D
:1059B00080BD000080B584B0029001910092FFE7A5
:1059C00002980068406900F004010020B0EB910FDC
:1059D0003ED1FFE70298FFF72BFE20B1FFE7012041
:1059E0008DF80F0038E00198013080B3FFE7FCF735
:1059F00051FA0099401A0199884203D8FFE70198AB
:105A000020BBFFE702980068406900F00401002015
:105A1000B0EB910F19D1FFE7029900200863029AB9
:105A2000202182F83D10029981F83E000299086C0D
:105A300040F020000864FFE70299002081F83C0054
:105A4000FFE701208DF80F0006E0FFE7FFE7B7E76B
:105A500000208DF80F00FFE79DF80F0004B080BD17
:105A600080B588B0DDF828C0069005918DF8132028
:105A70000393FFE79DF8160001280CD1FFE7069875
:105A800000684069BDF814100840401AB0FA80F070
:105A9000400902900BE0069800688069BDF8141078
:105AA0000840401AB0FA80F040090290FFE70298DF
:105AB0009DF8131088424FD1FFE70398013000286A
:105AC00049D0FFE7FCF7E6F90A99401A03998842A2
:105AD00003D8FFE70398E8BBFFE79DF8160001280D
