:020000040800F2
:10000000B02E002059020008BD63000811580008F6
:10001000B96300081D07000881780008000000008F
:100020000000000000000000000000003164000833
:1000300049090008000000002D64000889640008D8
:1000400073020008730200087302000873020008BC
:1000500073020008730200087302000873020008AC
:10006000730200087302000873020008730200089C
:1000700041070008510700086107000871070008E0
:10008000730200087302000873020008730200087C
:1000900021070008310700087302000873020008F6
:1000A000730200087302000873020008730200085C
:1000B000730200087302000873020008730200084C
:1000C000730200087302000873020008730200083C
:1000D0007302000841780008517800086178000830
:1000E000730200087302000873020008730200081C
:1000F000730200087302000873020008730200080C
:1001000073020008730200087302000873020008FB
:100110006D6F000873020008616500087302000833
:10012000730200088107000891070008A107000872
:1001300073020008730200087302000873020008CB
:1001400073020008730200087302000873020008BB
:100150007302000873020008730200087178000837
:10016000730200087302000873020008730200089B
:100170007302000873020008730200080000000008
:10018000730200087302000800F002F800F054F84F
:1001900014A696E8000CB244B344DA4501D100F04D
:1001A0004BF8BAE80F000FA696E83000A5EB04055F
:1001B00004EB0607AAEB0704A7F101074FEA1515A0
:1001C0004FEA3414A4F10104AC4201D300F034F836
:1001D00013F0010F18BFFB1A43F0010300F001F800
:1001E000DBE7184724B6000044B60000103A24BFED
:1001F00078C878C1FAD8520724BF30C830C144BF8C
:1002000004680C6070470000704700000023002461
:1002100000250026103A28BF78C1FBD8520728BF16
:1002200030C148BF0B6070471FB50AF090FC00F06A
:10023000D5F81FBD10B510BD00F0FAF81146FFF754
:10024000F3FF09F099FE00F018F903B4FFF7F2FF8D
:1002500003BC00F01BF9000009488047094800472B
:10026000FEE7FEE7FEE7FEE7FEE7FEE7FEE7FEE766
:10027000FEE7FEE704480549054A064B70470000C3
:100280004D65000889010008B0280020B02E00202C
:10029000B02A0020B02A002053EA020C00F0698046
:1002A0002DE9F04B4FF00006002B1FBFB3FA83F58A
:1002B00003FA05F424FA05F65E4012BF1643B2FABB
:1002C00082F502FA05F4C5F120051EBF22FA05FCED
:1002D00044EA0C04203556EA044C4FEA144418BF93
:1002E000641C4FF000084FF00009904271EB030CC2
:1002F00039D3002919BFB1FA81F701FA07F6B0FA2C
:1003000080F700FA07F6C7F120071EBF20FA07FCA6
:1003100046EA0C062037B6FBF4FCA7EB0507103FB6
:1003200007F01F0BCBF120062CFA06F60CFA0BFB9C
:1003300044BFB3460026202FA4BF5E464FF0000BFB
:100340005BEA060C08BF4FF0010B19EB0B0948EBF9
:100350000608ABFB027C06FB02CC0BFB03CCC01BEC
:1003600071EB0C01C1E70B46024641464846BDE829
:10037000F08B13B5084318BF4FF0FF300146AFF3C1
:100380000080BDE81C4070474FF0000200B51346E6
:1003900094469646203922BFA0E80C50A0E80C50A5
:1003A000B1F12001BFF4F7AF090728BFA0E80C5056
:1003B00048BF0CC05DF804EB890028BF40F8042B4F
:1003C00008BF704748BF20F8022B11F0804F18BFBC
:1003D00000F8012B704770477047704708487CB59C
:1003E0007844009007487844009C0546019004E05A
:1003F0002046016808448047241DAC42F8D17CBDEA
:1004000044B4000042B4000010B500F009F80068E0
:1004100010BD10B5044600F003F8046010BD0000E4
:10042000004870472800002000487047280000203E
:100430007546FFF7F9FFAE4605006946534620F0C2
:100440000700854618B020B5FFF714FFBDE820402F
:100450004FF000064FF000074FF000084FF0000B80
:10046000AC46ACE8C009ACE8C009ACE8C009ACE8EF
:10047000C00921F007018D46704710B50446AFF35F
:1004800000802046BDE81040FFF7DFBE014918207C
:10049000ABBEFEE7260002007047000080B582B0C8
:1004A00001900198806B00900098006C10F0500F44
:1004B0003AD1FFE70099086C40F400700864009896
:1004C0000068806810F0405F2AD1FFE70098007E46
:1004D00030BBFFE700980068C06A10F4700F07D0C7
:1004E000FFE70098006880684005002818D4FFE7FF
:1004F00000980168486820F0200048600099086C66
:1005000020F4807008640098006CC004002806D4B1
:10051000FFE70099086C40F001000864FFE7FFE77F
:10052000009800F023FB10E00098006CC006002843
:1005300004D5FFE7009800F021FB05E00098806BF0
:10054000C16C01988847FFE7FFE702B080BD00005B
:1005500080B582B001900198806B00900099402096
:1005600008640099486C40F004004864009800F06A
:1005700005FB02B080BD000080B582B001900198FB
:10058000806B0090009800F0F5FA02B080BD00008A
:1005900082B0019042F20030C4F201000090009954
:1005A000486820F4403048600198426800994868E3
:1005B0001043486001980168486820F480704860E2
:1005C000019801680269486840EA02204860019881
:1005D0000168486820F040704860019801688268AE
:1005E00048681043486001980168886820F40060FA
:1005F000886001980168C268886810438860019823
:10060000806A0121C0F60071884219D0FFE7019885
:100610000168886820F07060886001980168826ACB
:1006200088681043886001980168886820F040500D
:10063000886001980168C26A8868104388600CE08D
:1006400001980168886820F07060886001980168EE
:10065000886820F040508860FFE70198016888684A
:1006600020F0020088600198027E0168886840EAF4
:1006700042008860019890F82000C8B1FFE7019817
:100680000168486840F40060486001980168486863
:1006900020F46040486001980168426A4EF2000010
:1006A000CFF6FF7000EB423248681043486006E026
:1006B00001980168486820F400604860FFE70198ED
:1006C0000168C86A20F47000C86201980168C269B4
:1006D0000020CFF6F07000EB0252C86A1043C862E7
:1006E00001980168886820F400708860019890F88B
:1006F00030200168886840EA4220886001980168DB
:10070000886820F480608860019801684269886880
:1007100040EA8220886002B070470000FFE7FEE7F1
:1007200080B542F24C10C2F2000000F025FE80BD00
:1007300080B542F24C10C2F2000000F01DFE80BDF8
:1007400080B542F2F420C2F2000001F0D7FA80BD79
:1007500080B542F2D410C2F2000001F0CFFA80BDA1
:1007600080B542F25430C2F2000001F0C7FA80BDF9
:1007700080B542F23420C2F2000001F0BFFA80BD21
:1007800080B542F2B430C2F2000001F0B7FA80BD89
:1007900080B542F29420C2F2000001F0AFFA80BDB1
:1007A00080B542F27410C2F2000001F0A7FA80BDD9
:1007B00082B001900198007810384AF6AB21CAF651
:1007C000AA21A0FB01100009009000994AF68A3086
:1007D000C0F60000405C0199C8650098042807D362
:1007E000FFE701990868042262F30900886506E0C2
:1007F0000199086840F2FF3290438865FFE701984D
:10080000806D02B07047000086B0059000208DF822
:1008100013000598806A03900598806910BBFFE774
:100820000398029003281BD80299DFE801F0020D1B
:100830000218059890F82F00C00720B1FFE70120AB
:100840008DF81300FFE70CE00598C06AB0F1C07F97
:1008500004D1FFE701208DF81300FFE701E000E07D
:10086000FFE745E005988069B0F5005F25D1FFE717
:100870000398019003281ED80199DFE801F00206D1
:10088000021101208DF8130016E0059890F82F0052
:10089000C00720B1FFE701208DF81300FFE70BE050
:1008A0000598C06AB0F1C07F04D1FFE701208DF840
:1008B0001300FFE700E0FFE719E00398009003282A
:1008C00004D3FFE70098032804D00EE001208DF840
:1008D00013000BE0059890F82F00C00720B1FFE748
:1008E00001208DF81300FFE700E0FFE7FFE7FFE7D7
:1008F0009DF8130006B0704784B0039002910192F6
:10090000009303980168086820F48020086000982C
:1009100003990968486003988068402809D1FFE777
:100920000198039909688860029803990968C8606A
:1009300008E002980399096888600198039909689A
:10094000C860FFE704B070477047000072B6FFE769
:10095000FEE7000085B00390029100200190FFE7C0
:10096000039890F83C00012804D1FFE702208DF89D
:100970001300F7E00399012081F83C00FFE7FFE74F
:10098000029800680A281CD3FFE70298008800EB51
:100990004000A0F11E01072000FA01F2039801684F
:1009A000C8689043C86002998868098801EB4101D2
:1009B0001E3900FA01F203980168C8681043C86044
:1009C00018E00298008800EB4001072000FA01F2CD
:1009D000039801680869904308610299886809884A
:1009E00001EB410100FA01F2039801680869104324
:1009F0000861FFE70298406806281BD8FFE70298C5
:100A0000406800EB8000411F1F2000FA01F20398AC
:100A10000168486B9043486302990888496801EB74
:100A20008101053900FA01F203980168486B10430F
:100A300048633DE0029840680C281CD8FFE7029804
:100A4000406800EB8000A0F123011F2000FA01F2B2
:100A500003980168086B9043086302990888496805
:100A600001EB8101233900FA01F203980168086B58
:100A7000104308631BE00298406800EB8000A0F17F
:100A800041011F2000FA01F203980168C86A9043EF
:100A9000C86202990888496801EB8101413900FA6E
:100AA00001F203980168C86A1043C862FFE7FFE7D4
:100AB00042F20030C4F2010000900398006842F254
:100AC0000001C4F2010188420BD1FFE702980068DF
:100AD000122806D1FFE70099486840F4800048607A
:100AE000FFE70398006842F20001C4F20101884266
:100AF0002ED1FFE702980068102805D0FFE7029882
:100B00000068112824D1FFE70099486840F40000EC
:100B1000486002980068102819D1FFE740F20400ED
:100B2000C2F2000000684DF68361C4F21B31A0FBE5
:100B30000110800C00EB800040000190FFE701985D
:100B400020B1FFE7019801380190F8E7FFE7FFE7E0
:100B5000FFE70399002081F83C00FFE700208DF8B3
:100B60001300FFE79DF8130005B0704781B00090B7
:100B700001B0704781B0009001B0704781B0009023
:100B800001B0704780B584B0029000208DF8070056
:100B9000029820B9FFE701208DF80F0042E002988B
:100BA000806A0121C0F60071884201D0FFE7FFE7AB
:100BB0000298006C50B9FFE7029800F037F80299EC
:100BC00000204864029981F83C00FFE70298006C1D
:100BD000C006002817D4FFE70298006C40F002001E
:100BE00020F48850029908640298FFF7D1FC02991A
:100BF000002048640298006C40F0010020F00200E0
:100C00000299086403E001208DF80700FFE7FFE781
:100C10000299002081F83C00FFE79DF807008DF85D
:100C20000F00FFE79DF80F0004B080BD80B58AB0CB
:100C3000099000200890079006900590049009986C
:100C4000006842F20011C4F20101884260D1FFE75E
:100C5000FFE70020039043F64400C4F2020001685D
:100C600041F400710160006800F400700390039883
:100C7000FFE7FFE70020029043F63000C4F20200D5
:100C8000016841F002010160006800F0020002907A
:100C90000298FFE7012004900320059000200090B7
:100CA000069040F20040C4F2020004A901F0F2FAFA
:100CB000009942F27410C2F20000019046F25842CC
:100CC000C4F2020202604FF0007242608160C160B3
:100CD0004FF4806202614FF4006242614FF40052AF
:100CE00082614FF48072C2610162416201F096F943
:100CF00018B1FFE7FFF72AFEFFE7FFE7099842F286
:100D00007411C2F20001816309988863FFE7FFE76D
:100D10000AB080BD80B588B006900591049200208D
:100D200003908DF80700FFE7069890F83C00012833
:100D300004D1FFE702208DF81F0010E10699012081
:100D400081F83C00FFE7FFE706980068806800F044
:100D5000010001281ED0FFE706980168886840F06E
:100D60000100886040F20400C2F2000000684DF605
:100D70008361C4F21B31A0FB0110800C00EB40002A
:100D80000390FFE7039820B1FFE703980138039031
:100D9000F8E7FFE7069800688068C005002807D5D7
:100DA000FFE706980168886820F480708860FFE794
:100DB000069800688068C007002800F0C080FFE740
:100DC0000698006C40F4807040F2016188430699F7
:100DD00008640698006840684005002809D5FFE7C8
:100DE0000698006C40F4805020F400500699086486
:100DF000FFE70698006CC004002806D5FFE70699B7
:100E0000486C20F00600486403E00699002048641E
:100E1000FFE7FFE70699002081F83C00FFE742F278
:100E20000030C4F2010002900698816B40F29D40B0
:100E3000C0F60000C8630698816B40F27950C0F696
:100E4000000008640698816B40F25150C0F6000023
:100E5000C864069801686FF022000860069801686F
:100E6000486840F08060486006980168886840F4EF
:100E70008070886006980168806B4C31059A049BED
:100E800001F084F98DF8070002984068C006E8BBBD
:100E9000FFE70698006842F20001C4F201018842AF
:100EA00024D0FFE70698006842F20011C4F2010165
:100EB000884208D1FFE742F20430C4F20100006822
:100EC000C00698B1FFE70698006842F20021C4F21C
:100ED0000101884219D1FFE742F20430C4F2010057
:100EE000006800F01F000F280FD8FFE70698006881
:100EF000806810F0405F07D1FFE7069801688868B6
:100F000040F080408860FFE7FFE717E00698006840
:100F100042F20001C4F2010188420ED1FFE70698B7
:100F20000068806810F0405F07D1FFE7069801680D
:100F3000886840F080408860FFE7FFE70AE0069994
:100F4000086C40F0100008640699486C40F00100FD
:100F50004864FFE79DF807008DF81F00FFE79DF844
:100F60001F0008B080BD000084B00290019102987B
:100F700090F820008DF803009DF80300012805D0AB
:100F8000FFE79DF8030002280AD1FFE7019A0298C3
:100F9000016848691043486100208DF80F0008E09F
:100FA0000299486A40F48020486201208DF80F00C1
:100FB000FFE79DF80F0004B07047000086B0049072
:100FC0000391049890F820008DF803009DF8030029
:100FD000012806D0FFE79DF80300022840F0B0800A
:100FE000FFE746F20040C4F2000001900199D1F8F9
:100FF000000240F00100C1F800020199D1F800029E
:1010000020F47C50C1F800020398426A0199D1F89B
:10101000000240EA0220C1F800020398406900F093
:101020001F01012088400290029A0199D1F81C0208
:101030009043C1F81C020398C069F0B9FFE7029A17
:101040000199D1F80C029043C1F80C02039A9088E0
:10105000D168526940EA0140019901EBC201C1F82F
:101060004002039A10889168526940EA0140019950
:1010700001EBC201C1F84402FFE70398C0690128EF
:101080001ED1FFE7029A0199D1F80C021043C1F872
:101090000C02039A90881168526940EA0140019954
:1010A00001EBC201C1F84002039A9089916852692C
:1010B00040EA0140019901EBC201C1F84402FFE797
:1010C0000398806940B9FFE7029A0199D1F80402B8
:1010D0009043C1F8040207E0029A0199D1F8040292
:1010E0001043C1F80402FFE70398006940B9FFE725
:1010F000029A0199D1F814029043C1F8140207E052
:10110000029A0199D1F814021043C1F81402FFE7C2
:101110000398006A012808D1FFE7029A0199D1F8E3
:101120001C021043C1F81C02FFE70199D1F800022C
:1011300020F00100C1F8000200208DF8170008E03F
:101140000499486A40F48020486201208DF8170015
:10115000FFE79DF8170006B07047000081B00090CF
:1011600001B0704786B004900391029201930498F5
:1011700090F820008DF803009DF80300012806D0A8
:10118000FFE79DF80300022840F0E880FFE703989E
:1011900080B9FFE704980068C068800748B9FFE796
:1011A0000499486A40F40010486201208DF8170045
:1011B000DDE00FE0049800680069800748B9FFE7A8
:1011C0000499486A40F40010486201208DF8170025
:1011D000CDE0FFE704980068039900EB0110D0F818
:1011E000B00100F00400029988600298806858B944
:1011F000FFE704980068039900EB0110D0F8B001F4
:10120000400D029908600AE004980068039900EB19
:101210000110D0F8B001C00802994860FFE70498B7
:101220000068039900EB0110D0F8B00100F0020053
:101230000299C86004980068039900EB0110D0F887
:10124000B40100F00F00082804D3FFE7029908203A
:1012500008610BE004980068039900EB0110D0F8D6
:10126000B40100F00F0002990861FFE704980068DC
:10127000039900EB0110D0F8B40180B2000A029982
:10128000886104980068039900EB0110D0F8B4015C
:10129000000C0299486104980068039900EB011062
:1012A000D0F8B8010199087004980068039900EB20
:1012B0000110D0F8B801000A01994870049800683C
:1012C000039900EB0110D0F8B801000C0199887067
:1012D00004980068039900EB0110D0F8B801000EE3
:1012E0000199C87004980068039900EB0110D0F8C8
:1012F000BC010199087104980068039900EB011082
:10130000D0F8BC01000A019948710498006803995B
:1013100000EB0110D0F8BC01000C01998871049811
:101320000068039900EB0110D0F8BC01000E019990
:10133000C871039838B9FFE704980168C86840F09D
:101340002000C86006E004980168086940F02000A9
:101350000861FFE700208DF8170008E00499486A4B
:1013600040F48020486201208DF81700FFE79DF8C7
:10137000170006B07047000080B58AB009900020C1
:1013800008900998006840690790099800684068CB
:101390000690099800688068059009980068C06800
:1013A00004900998006800690390099800688069B2
:1013B00002909DF81C00C007002800F09480FFE711
:1013C0009DF81400C00758B3FFE709980168012091
:1013D00088609DF814008007002804D5FFE709986D
:1013E00000F0DCFB1BE09DF814004007002805D549
:1013F000FFE7089840F4006008900FE09DF81400A3
:101400000007002805D5FFE7089840F480500890B1
:1014100003E0099800F0BEFBFFE7FFE7FFE7FFE707
:101420009DF81500C00760B3FFE7099801684FF405
:10143000807088609DF815008007002804D5FFE7BC
:10144000099800F0B3FB1BE09DF815004007002849
:1014500005D5FFE7089840F4005008900FE09DF88C
:1014600015000007002805D5FFE7089840F48040E4
:10147000089003E0099800F095FBFFE7FFE7FFE71E
:10148000FFE79DF81600C00760B3FFE70998016801
:101490004FF4803088609DF816008007002804D53E
:1014A000FFE7099800F08AFB1BE09DF81600400753
:1014B000002805D5FFE7089840F4004008900FE0A9
:1014C0009DF816000007002805D5FFE7089840F4AE
:1014D0008030089003E0099800F06CFBFFE7FFE71D
:1014E000FFE7FFE7FFE79DF81C000007002810D585
:1014F000FFE79DF81000C006002809D5FFE708980F
:1015000040F400700890099801681020C860FFE757
:10151000FFE79DF81C00400700280FD5FFE79DF866
:1015200010000007002808D5FFE709980168082087
:10153000C860099800F064FAFFE7FFE79DF81C0017
:10154000800700280BD5FFE709980068C06880076E
:1015500020B1FFE7099800F057FAFFE7FFE79DF891
:101560001C004006002810D5FFE79DF80C00C006BF
:10157000002809D5FFE7089840F480600890099892
:10158000016810200861FFE7FFE79DF81C00800656
:1015900000280FD5FFE79DF80C000007002808D5AC
:1015A000FFE70998016808200861099800F068FAC7
:1015B000FFE7FFE79DF81C00C00600280BD5FFE7FA
:1015C000099800680069800720B1FFE7099800F0DA
:1015D0005BFAFFE7FFE79DF81E00800700280FD5A4
:1015E000FFE79DF81800C006002808D5FFE7099816
:1015F000016810204860099800F082FAFFE7FFE7D1
:101600009DF81E00C00778B1FFE79DF8180000079D
:10161000002808D5FFE70998016808204860099864
:1016200000F0D0FAFFE7FFE79DF81D000006002854
:1016300040F18D80FFE79DF818004007002840F139
:101640008180FFE79DF81D00C00750B1FFE79DF8BE
:101650000800C00728B1FFE7089840F00100089093
:10166000FFE79DF81D00800700280BD5FFE79DF8D8
:1016700008008007002805D5FFE7089840F0020021
:101680000890FFE79DF81D00400700280BD5FFE7F5
:101690009DF808004007002805D5FFE7089840F0AE
:1016A00004000890FFE79DF81D000007002848D5BA
:1016B000FFE79DF8080010F0700F42D0FFE7029896
:1016C00000F0700001460191102814D0FFE7019846
:1016D000202815D0FFE70198302816D0FFE70198A1
:1016E000402817D0FFE70198502818D0FFE701984D
:1016F000602819D01DE0089840F00800089019E013
:10170000089840F01000089014E0089840F020007D
:1017100008900FE0089840F0400008900AE0089810
:1017200040F08000089005E0089840F48070089030
:1017300000E0FFE709980168886920F0700088617F
:10174000FFE7FFE70998016804204860FFE7089871
:1017500048B1FFE7089A0999486A10434862099816
:10176000FFF7FCFCFFE70AB080BD000080B584B045
:101770000290029820B9FFE701208DF80F00E0E009
:10178000029890F8200020B9FFE7029800F0DEF8F8
:10179000FFE702980168086840F00100086000F067
:1017A0006DFF0190FFE7029800684068C007A8B984
:1017B000FFE700F063FF0199401A0B280DD3FFE704
:1017C0000299486A40F4003048620299052081F885
:1017D000200001208DF80F00B3E0E4E702980168D3
:1017E000086820F00200086000F048FF0190FFE761
:1017F0000298006840688007002815D5FFE700F0D0
:101800003DFF0199401A0B280DD3FFE70299486A62
:1018100040F4003048620299052081F82000012040
:101820008DF80F008DE0E3E70298007E012807D1D4
:10183000FFE702980168086840F08000086006E051
:1018400002980168086820F080000860FFE70298AD
:10185000407E012807D1FFE702980168086840F040
:101860004000086006E002980168086820F0400027
:101870000860FFE70298807E012807D1FFE7029801
:101880000168086840F02000086006E002980168DE
:10189000086820F020000860FFE70298C07E012859
:1018A00007D1FFE702980168086820F0100008607F
:1018B00006E002980168086840F010000860FFE741
:1018C0000298007F012807D1FFE7029801680868A5
:1018D00040F00800086006E002980168086820F0FF
:1018E00008000860FFE70298407F012807D1FFE762
:1018F00002980168086840F00400086006E0029859
:101900000168086820F004000860FFE7029B19687E
:101910005A689868D3F80CC040EA0C00D3F810C09D
:1019200040EA0C005B691843013A1043C861029910
:1019300000204862029A012182F820108DF80F00E1
:10194000FFE79DF80F0004B080BD000080B58CB0AB
:101950000B9000200A9009900890079006900B9831
:10196000006846F20041C4F20001884246D1FFE718
:10197000FFE70020059043F64000C4F20200016832
:1019800041F000710160006800F00070059005985A
:10199000FFE7FFE70020049043F63000C4F20200A6
:1019A000016841F008010160006800F0080004903F
:1019B0000498FFE70320069002210791002102917D
:1019C0000891099009200A9040F60040C4F20200F4
:1019D00006A900F05FFC029A14200190114601F064
:1019E00087F8019801F07AF8029A152003901146C1
:1019F00001F07EF8039801F071F8FFE70CB080BDAC
:101A000081B0009001B0704780B586B00590059810
:101A1000006846F20041C4F20001884212D1FFE79B
:101A2000059840F2AC01C2F2000103910A1D049234
:101A300001F120030021FFF795FB03990498896ABF
:101A400088471BE00598006846F60001C4F20001D3
:101A5000884212D1FFE7059840F2D801C2F2000196
:101A600001910A1D029201F120030021FFF77AFB88
:101A700001990298896A8847FFE7FFE706B080BDB1
:101A800081B0009001B0704780B586B00590059890
:101A9000006846F20041C4F20001884212D1FFE71B
:101AA000059840F2AC01C2F2000103910A1D0492B4
:101AB00001F120030121FFF755FB03990498896A7E
:101AC00088471BE00598006846F60001C4F2000153
:101AD000884212D1FFE7059840F2D801C2F2000116
:101AE00001910A1D029201F120030121FFF73AFB47
:101AF00001990298896A8847FFE7FFE706B080BD31
:101B000081B0009001B0704780B584B00290029817
:101B100090F8200001282FD1FFE70299022081F8D8
:101B2000200002980168086820F00100086000F0B9
:101B3000A5FD0190FFE7029800684068C007A8B1C2
:101B4000FFE700F09BFD0199401A0B280DD3FFE73A
:101B50000299486A40F4003048620299052081F8F1
:101B6000200001208DF80F000FE0E4E7029900202B
:101B700048628DF80F0008E00299486A40F400209E
:101B8000486201208DF80F00FFE79DF80F0004B0B8
:101B900080BD000081B0009001B0704781B000901E
:101BA00001B0704781B0009001B0704781B00090E3
:101BB00001B0704781B0009001B0704781B00090D3
:101BC00001B0704781B0009001B0704780B584B01B
:101BD00002900298806D019000F050FD00900298F4
:101BE00090F8350002280DD0FFE702998020486563
:101BF000FFE70299002081F83400FFE701208DF80B
:101C00000F0055E002980168086820F0160008608F
:101C100002980168486920F0800048610298006CD1
:101C200020B9FFE70298806C38B1FFE7029801689D
:101C3000086820F008000860FFE70298016808685B
:101C400020F001000860FFE7029800680068C00704
:101C5000C8B1FFE700F012FD0099401A062811D321
:101C6000FFE70299202048650299032081F835009A
:101C7000FFE70299002081F83400FFE703208DF888
:101C80000F0015E0E0E70298C16D3F208840019900
:101C900088600299012081F83500FFE70299002051
:101CA00081F83400FFE7FFE700208DF80F00FFE721
:101CB0009DF80F0004B080BD82B00090009890F8AD
:101CC0003500022807D0FFE70099802048650120F1
:101CD0008DF807000EE00099052081F83500009886
:101CE0000168086820F001000860FFE700208DF817
:101CF0000700FFE79DF8070002B0704780B586B087
:101D000005900020039040F20400C2F20000006839
:101D100048F2B511C1F64E31A0FB0110800A0290C5
:101D20000598806D019001980068049004980599C9
:101D3000C96DC840000700281AD5FFE7059800685C
:101D400000684007002812D5FFE705980168086879
:101D500020F0040008600598C16D082088400199B2
:101D600088600599486D40F001004865FFE7FFE78E
:101D700004980599C96DC840C007A0B1FFE7059850
:101D800000684069000600280CD5FFE70598C16D82
:101D900001208840019988600599486D40F0020053
:101DA0004865FFE7FFE704980599C96DC8404007FB
:101DB000002814D5FFE70598006800688007002810
:101DC0000CD5FFE70598C16D042088400199886013
:101DD0000599486D40F004004865FFE7FFE7049867
:101DE0000599C96DC840C006002847D5FFE705988A
:101DF00000680068000700283FD5FFE70598C16D1F
:101E000010208840019988600598006800684003A8
:101E100000281AD5FFE7059800680068000300282D
:101E200009D4FFE70598006C20B1FFE70598016C25
:101E30008847FFE708E00598806C20B1FFE7059828
:101E4000816C8847FFE7FFE716E0059800680068A7
:101E5000C005002807D4FFE705980168086820F04E
:101E600008000860FFE70598006C20B1FFE70598BF
:101E7000016C8847FFE7FFE7FFE7FFE70498059954
:101E8000C96DC8408006002840F18D80FFE70598A5
:101E900000680068C006002840F18480FFE70598CC
:101EA000C16D2020884001998860059890F8350020
:101EB000052834D1FFE705980168086820F016006E
:101EC000086005980168486920F08000486105981D
:101ED000006C20B9FFE70598806C38B1FFE70598E2
:101EE0000168086820F008000860FFE70598C16DE8
:101EF0003F208840019988600599012081F83500CC
:101F0000FFE70599002081F83400FFE70598006D90
:101F100020B1FFE70598016D8847FFE77BE0059852
:101F200000680068400300281AD5FFE7059800689C
:101F300000680003002809D4FFE70598406C20B131
:101F4000FFE70598416C8847FFE708E00598C06BFC
:101F500020B1FFE70598C16B8847FFE7FFE720E066
:101F6000059800680068C005002811D4FFE70598AF
:101F70000168086820F0100008600599012081F8C8
:101F80003500FFE70599002081F83400FFE7FFE7FF
:101F90000598C06B20B1FFE70598C16B8847FFE744
:101FA000FFE7FFE7FFE70598406DA0B3FFE705985F
:101FB000406DC00730B3FFE70599052081F8350073
:101FC00005980168086820F001000860FFE70398A1
:101FD000013003900299884201D9FFE707E0FFE74B
:101FE000059800680068C0070028F0D1FFE7059950
:101FF000012081F83500FFE70599002081F83400C1
:10200000FFE7FFE70598C06C20B1FFE70598C16CBA
:102010008847FFE7FFE706B080BD000080B586B0C7
:1020200004900020039000F029FB0290049820B94E
:10203000FFE701208DF81700A3E00498406A08B17B
:10204000FFE7FFE70499022081F83500FFE70499D4
:10205000002081F83400FFE704980168086820F048
:1020600001000860FFE7049800680068C00790B1AD
:10207000FFE700F003FB0299401A06280AD3FFE7A6
:102080000499202048650499032081F835008DF8D3
:10209000170076E0E7E7049800680068039003986B
:1020A00048F23F01CFF210010840039004990091DB
:1020B0004868D1F808C0CB680A6940EA0C001843A8
:1020C00010434A6910438A691043CA691043096A78
:1020D00001430398084303900498406A042808D1F8
:1020E000FFE70499C86A096B01430398084303900A
:1020F000FFE703980499096808600498006840693C
:102100000390039820F0070003900498416A039815
:10211000084303900498406A04281AD1FFE7049802
:10212000816A0398084303900498C06A80B1FFE76E
:102130000498FEF769FB50B1FFE704994020486519
:102140000499012081F835008DF8170019E0FFE7A8
:10215000FFE703980499096848610498FEF728FB93
:1021600001900498C16D3F208840019988600499CE
:1021700000204865049A012182F835108DF8170077
:10218000FFE79DF8170006B080BD000080B588B05D
:10219000069005910492039300208DF80B00069899
:1021A000806D0190FFE7069890F83400012804D173
:1021B000FFE702208DF81F0045E00699012081F815
:1021C0003400FFE7FFE7069890F8350001282BD18F
:1021D000FFE70699022081F835000699002048653E
:1021E00006980599049A039BFEF786FB0698C16D35
:1021F0003F2088400199886006980168086840F08F
:10220000160008600698006C38B1FFE70698016870
:10221000086840F008000860FFE706980168086851
:1022200040F00100086009E0FFE70699002081F80E
:102230003400FFE702208DF80B00FFE79DF80B004C
:102240008DF81F00FFE79DF81F0008B080BD00005B
:1022500080B584B0039000F011FA029003980190C9
:102260000198013048B1FFE740F21800C2F20000C7
:102270000178019808440190FFE7FFE700F0FEF9BC
:102280000299401A0199884201D2FFE7F6E704B0AB
:1022900080BD00008EB00D900C9100200A90099036
:1022A00008900B90FFE70B980F2800F2CC81FFE716
:1022B0000B99012088400A900C9800680A99084000
:1022C000099009980A99884240F0B881FFE70C9874
:1022D000406800F00300012807D0FFE70C98406831
:1022E00000F0030002282FD1FFE70D9880680890C6
:1022F0000B984100032000FA01F1089888430890E8
:102300000C98C0680B99490000FA01F1089808433D
:10231000089008980D9988600D98406808900B996E
:10232000012000FA01F10898884308900C98406851
:10233000C0F300100B9900FA01F1089808430890C7
:1023400008980D994860FFE70C98406800F003007A
:10235000032818D0FFE70D98C06808900B9841003B
:10236000032000FA01F10898884308900C988068CF
:102370000B99490000FA01F1089808430890089861
:102380000D99C860FFE70C98406800F00300022830
:1023900026D1FFE70D980B996FF0030202EA510175
:1023A0000844006A08900B9800F0070081000F2095
:1023B00000FA01F10898884308900C9800690B997D
:1023C00001F00701890000FA01F10898084308901C
:1023D00008980D990B9B02EA530211440862FFE72B
:1023E0000D98006808900B984100032000FA01F155
:1023F0000898884308900C98406800F003000B99F7
:10240000490000FA01F108980843089008980D99CE
:1024100008600C9880798007002800F00E81FFE7A3
:10242000FFE70020079043F64400C4F20200016871
:1024300041F480410160006800F4804007900798F3
:10244000FFE70B9820F0030043F60801C4F20101F6
:10245000405808900B9800F0030081000F2000FA0C
:1024600001F10898884308900D980021C4F20201F8
:10247000884203D1FFE7002006905EE00D9840F20D
:102480000041C4F20201884203D1FFE70120059018
:1024900050E00D9840F60001C4F20201884203D1D9
:1024A000FFE70220049042E00D9840F60041C4F29C
:1024B0000201884203D1FFE70320039034E00D9826
:1024C00041F20001C4F20201884203D1FFE7042077
:1024D000029026E00D9841F20041C4F202018842C8
:1024E00003D1FFE70520019018E00D9841F60001A7
:1024F000C4F20201884203D1FFE7062000900AE0FF
:102500000D9941F60042C4F202020820914208BF30
:1025100007200090FFE700980190FFE701980290E4
:10252000FFE702980390FFE703980490FFE7049801
:102530000590FFE705980690FFE70698C0B20B9953
:1025400001F00301890000FA01F10898084308909E
:1025500008980B9921F0030143F60802C4F2010226
:10256000885043F60840C4F20100006808900999B9
:102570000898884308900C988079C006002805D5F3
:10258000FFE70999089808430890FFE7089843F681
:102590000841C4F20101086043F60C40C4F2010096
:1025A0000068089009990898884308900C988079E9
:1025B0008006002805D5FFE7099908980843089088
:1025C000FFE7089843F60C41C4F20101086043F6A6
:1025D0000440C4F2010000680890099908988843F3
:1025E00008900C9880798007002805D5FFE70999A5
:1025F000089808430890FFE7089843F60441C4F29E
:102600000101086043F60040C4F201000068089030
:1026100009990898884308900C988079C00728B1D8
:10262000FFE70999089808430890FFE7089843F6E0
:102630000041C4F201010860FFE7FFE7FFE70B98E4
:1026400001300B902FE60EB07047000082B0019071
:10265000ADF802108DF801209DF8010028B1FFE7C8
:10266000BDF802000199886105E0BDF80200000490
:1026700001998861FFE702B07047000042F6A800A8
:10268000C2F200000068704780B58EB00C900C98C4
:1026900020B9FFE701208DF8370043E10C9890F84E
:1026A0003D0040B9FFE70C99002081F83C000C98F0
:1026B00000F03CF9FFE70C99242081F83D000C98CC
:1026C0000168086820F0010008600C98016808683B
:1026D00040F4004008600C980168086820F400404D
:1026E000086000F05FFB0A900C98406848F2A06117
:1026F000C0F2010188420BD8FFE70A9948F28042F4
:10270000C0F21E020020914238BF012009900AE069
:102710000A9940F60012C0F23D020020914238BFF3
:1027200001200990FFE70998012804D1FFE7012063
:102730008DF83700F6E00A984DF68361C4F21B313C
:10274000A0FB0110800C0B900C980068406820F0F2
:102750003F000B9908430C99096848600C98006881
:10276000006A20F03F0008900C98406848F2A06191
:10277000C0F20101884204D8FFE70B9801300790AE
:102780000EE00B984FF49671484344F6D351C1F2D2
:102790006201A0FB0101012000EB91100790FFE70F
:1027A0000898079908430C99096808620C98006812
:1027B000C0694CF6FF71884306900C98406848F257
:1027C000A061C0F2010188421FD8FFE70A980138D2
:1027D0000C9949684900B0FBF1F001306FF31F30EC
:1027E000032803D8FFE7042005900BE00A9801387E
:1027F0000C9949684900B0FBF1F001306FF31F30CC
:102800000590FFE7059804904CE00C98806868B943
:10281000FFE70A9801380C99496801EB4101B0FBC8
:10282000F1F001306FF31F3003900DE00A9801388A
:102830000C99496819225143B0FBF1F00130042191
:1028400061F31F300390FFE70398000518B9FFE715
:102850000120029023E00C98806868B9FFE70A988D
:1028600001380C99496801EB4101B0FBF1F00130EE
:102870006FF31F3001900DE00A9801380C994968F8
:1028800019225143B0FBF1F00130042161F31F30F4
:102890000190FFE7019840F400400290FFE70298A2
:1028A0000490FFE70698049908430C990968C861E9
:1028B0000C980068006820F0C0000C9B1968DA6969
:1028C0001B6A1A43104308600C980068806848F23D
:1028D000FF3188430C9A1168D36812691A43104378
:1028E00088600C980068C06820F0FF000C9B196895
:1028F0005A699B691A431043C8600C9801680868BC
:1029000040F0010008600C99002008640C9A202116
:1029100082F83D100C9908630C9981F83E008DF8FF
:102920003700FFE79DF837000EB080BD80B588B056
:10293000079000200690059004900390029007985D
:10294000006845F60001C4F20001884235D1FFE776
:10295000FFE70020019043F63000C4F20200016856
:1029600041F002010160006800F00200019001984E
:10297000FFE74FF440600290122003900020049083
:10298000032005900420069040F20040C4F20200AB
:1029900002A9FFF77FFCFFE70020009043F640000C
:1029A000C4F20200016841F480010160006800F493
:1029B000800000900098FFE7FFE708B080BD0000AE
:1029C00040F21800C2F20000027842F6A801C2F2FA
:1029D00000010868104408607047000080B582B0AC
:1029E00043F60041C4F20201086840F40070086038
:1029F000086840F480600860086840F480700860EF
:102A0000032000F08FF80020019000F005F800F09E
:102A10003BF8019802B080BD80B582B0009040F2D2
:102A20000400C2F20000006840F21801C2F2000186
:102A30000A784FF47A71B1FBF2F1B0FBF1F000F0DB
:102A4000A9FD20B1FFE701208DF8070018E00098EC
:102A50000F280DD8FFE700994FF0FF30002200F05B
:102A600047F8009840F21C01C2F20001086003E040
:102A700001208DF8070003E000208DF80700FFE734
:102A80009DF8070002B080BD80B582B0FFE700204E
:102A9000019043F64400C4F20200016841F4804111
:102AA0000160006800F4804001900198FFE7FFE7B3
:102AB0000020009043F64000C4F20200016841F09B
:102AC00080510160006800F0805000900098FFE79E
:102AD000052000F027F802B080BD000080B582B06C
:102AE0008DF807009DF9070007F0DEF902B080BD00
:102AF00080B586B08DF817000491039200200290F3
:102B000007F0EAF902909DF91700019002980499E4
:102B1000039A03F055FC0146019807F0E5F906B069
:102B200080BD000080B582B00190019807F0FEF9E9
:102B300002B080BD80B584B002900191029820B9A6
:102B4000FFE701208DF80F0021E1019843F60041D5
:102B5000C4F20201096801F00701884212D9FFE7B7
:102B6000019943F60040C4F202000170006800F0D1
:102B700007000199884204D0FFE701208DF80F007B
:102B800005E1FFE702980078800700282AD5FFE7D3
:102B9000029800784007002809D5FFE743F60801AE
:102BA000C4F20201086840F4E0500860FFE70298B0
:102BB00000780007002809D5FFE743F60801C4F2B2
:102BC0000201086840F460400860FFE743F608012E
:102BD000C4F20201086820F0F000029A92681043E3
:102BE0000860FFE702980078C00700286ED0FFE772
:102BF00002984068012811D1FFE743F60000C4F2B3
:102C00000200006800F400310020B0EB514F04D105
:102C1000FFE701208DF80F00B9E02CE00298406832
:102C2000022805D0FFE702984068032811D1FFE78A
:102C300043F60000C4F20200006800F000710020BA
:102C4000B0EB516F04D1FFE701208DF80F009EE03B
:102C500010E043F60000C4F20200006800F0020138
:102C60000020B0EB510F04D1FFE701208DF80F00D9
:102C70008DE0FFE7FFE743F60801C4F202010868B0
:102C800020F00300029A526810430860FFF7F6FC38
:102C90000090FFE743F60800C4F20200006800F06D
:102CA0000C0002994968B0EB810F0ED0FFE7FFF7E7
:102CB000E5FC0099401A41F28931884204D3FFE7CC
:102CC00003208DF80F0062E0E4E7FFE7019843F688
:102CD0000041C4F20201096801F00701884212D2E2
:102CE000FFE7019943F60040C4F20200017000685A
:102CF00000F007000199884204D0FFE701208DF819
:102D00000F0044E0FFE702980078400700280CD548
:102D1000FFE743F60801C4F20201086820F4E0501E
:102D2000029AD26810430860FFE702980078000713
:102D300000280DD5FFE743F60801C4F20201086838
:102D400020F46040029A126940EAC2000860FFE77E
:102D500000F04CF843F60801C4F202010968C9B258
:102D60000A094AF67231C0F60001895CC84040F297
:102D70000401C2F20001086040F21C00C2F200002F
:102D80000068FFF749FE00208DF80F00FFE79DF86F
:102D90000F0004B080BD000040F20400C2F2000049
:102DA0000068704780B5FFF7F7FF43F60801C4F2EB
:102DB00002010968C1F382224AF68231C0F600019D
:102DC000895CC84080BD000080B5FFF7E5FF43F691
:102DD0000801C4F20201096889B24A0B4AF682313D
:102DE000C0F60001895CC84080BD000080B586B097
:102DF0000020059004900390029043F60800C4F26E
:102E00000200006800F00C000146019140B1FFE7AC
:102E1000019804280AD0FFE7019808280CD04FE059
:102E200042F20040C0F2F40002904FE041F2002074
:102E3000C0F27A00029049E043F60400C4F20200B6
:102E4000016801F03F01059100684002002813D598
:102E5000FFE743F60400C4F202000068C0F38810E4
:102E600041F20021C0F27A01A0FB0101059A002382
:102E7000FDF712FA049012E043F60400C4F20200D7
:102E80000068C0F3881042F20041C0F2F401A0FBD8
:102E90000101059A0023FDF7FFF90490FFE743F6CF
:102EA0000400C4F20200006800F44031022000EB8C
:102EB000D130039004980399B0FBF1F0029005E043
:102EC00042F20040C0F2F4000290FFE7029806B020
:102ED00080BD000080B586B00490049820B9FFE75B
:102EE00001208DF8170050E304980078C0070028EF
:102EF00000F0A580FFE743F60800C4F20200006876
:102F000000F00C00042813D0FFE743F60800C4F2D9
:102F10000200006800F00C0008281ED1FFE743F60D
:102F20000400C4F2020000684002002815D5FFE743
:102F300043F60000C4F20200006800F400310020F3
:102F4000B0EB514F08D0FFE70498406820B9FFE785
:102F500001208DF8170018E370E0FFE7049840683F
:102F6000B0F5803F09D1FFE743F60001C4F202014A
:102F7000086840F48030086020E004984068B0F5AC
:102F8000A02F0DD1FFE743F60001C4F2020108684B
:102F900040F480200860086840F4803008600CE04D
:102FA00043F60001C4F20201086820F48030086092
:102FB000086820F480200860FFE7FFE7FFE7049837
:102FC0004068E8B1FFE7FFF759FB0390FFE743F6DE
:102FD0000000C4F20200006800F400310020B0EBF1
:102FE000514F0CD1FFE7FFF749FB0399401A6528C1
:102FF00004D3FFE703208DF81700C6E2E7E71CE0E3
:10300000FFF73CFB0390FFE743F60000C4F2020029
:10301000006800F400310020B0EB514F0CD0FFE706
:10302000FFF72CFB0399401A652804D3FFE7032020
:103030008DF81700A9E2E7E7FFE7FFE7FFE704984D
:1030400000788007002840F19680FFE743F60800EB
:10305000C4F20200006810F00C0F13D0FFE743F633
:103060000800C4F20200006800F00C0008282CD10F
:10307000FFE743F60400C4F20200006840020028A3
:1030800023D4FFE743F60000C4F20200006800F01A
:1030900002010020B0EB510F09D0FFE70498C0688F
:1030A000012804D0FFE701208DF817006DE243F6F8
:1030B0000001C4F20201086820F0F800049A1269C5
:1030C00040EAC2000860FFE754E00498C06870B3AB
:1030D000FFE70021C4F2472101200860FFF7CEFA84
:1030E0000390FFE743F60000C4F20200006800F01E
:1030F00002010020B0EB510F0CD1FFE7FFF7BEFA41
:103100000399401A032804D3FFE703208DF8170022
:103110003BE2E7E743F60001C4F20201086820F051
:10312000F800049A126940EAC200086021E0002118
:10313000C4F2472100200860FFF7A0FA0390FFE7E0
:1031400043F60000C4F20200006800F00201002013
:10315000B0EB510F0CD0FFE7FFF790FA0399401A3C
:10316000032804D3FFE703208DF817000DE2E7E7FB
:10317000FFE7FFE7FFE704980078000700284BD53A
:10318000FFE70498406918B3FFE740F68061C4F296
:10319000472101200860FFF771FA0390FFE743F62B
:1031A0007400C4F20200006800F002010020B0EBDD
:1031B000510F0CD1FFE7FFF761FA0399401A03287A
:1031C00004D3FFE703208DF81700DEE1E7E722E0F4
:1031D00040F68061C4F2472100200860FFF74EFAF4
:1031E0000390FFE743F67400C4F20200006800F0A9
:1031F00002010020B0EB510F0CD0FFE7FFF73EFAC1
:103200000399401A032804D3FFE703208DF8170021
:10321000BBE1E7E7FFE7FFE70498007840070028F5
:1032200040F1CE80FFE700208DF8070043F6400014
:10323000C4F202000068C000002815D4FFE7FFE7D1
:103240000020009043F64000C4F20200016841F003
:1032500080510160006800F0805000900098FFE706
:1032600001208DF80700FFE747F20000C4F20000DC
:103270000068C005002822D4FFE747F20001C4F22D
:103280000001086840F480700860FFF7F7F90390C8
:10329000FFE747F20000C4F200000068C005002804
:1032A0000CD4FFE7FFF7EAF90399401A032804D387
:1032B000FFE703208DF8170067E1EAE7FFE7FFE784
:1032C00004988068012809D1FFE743F67001C4F231
:1032D0000201086840F0010008601FE0049880685F
:1032E00005280DD1FFE743F67001C4F2020108681A
:1032F00040F004000860086840F0010008600CE03D
:1033000043F67001C4F20201086820F00100086071
:10331000086820F004000860FFE7FFE7FFE7049873
:103320008068F8B1FFE7FFF7A9F90390FFE743F6DC
:103330007000C4F20200006800F002010020B0EB4F
:10334000510F0ED1FFE7FFF799F90399401A41F2A7
:103350008931884204D3FFE703208DF8170014E178
:10336000E5E71EE0FFF78AF90390FFE743F67000F8
:10337000C4F20200006800F002010020B0EB510F1F
:103380000ED0FFE7FFF77AF90399401A41F289312D
:10339000884204D3FFE703208DF81700F5E0E5E746
:1033A000FFE79DF80700012809D1FFE743F6400138
:1033B000C4F20201086820F080500860FFE7FFE7D0
:1033C00004988069002800F0DC80FFE743F60800DD
:1033D000C4F20200006800F00C00082800F08580AC
:1033E000FFE70498806902285CD1FFE76021C4F2FE
:1033F000472100200860FFF741F90390FFE743F6FB
:103400000000C4F20200006800F000710020B0EB80
:10341000516F0CD0FFE7FFF731F90399401A0328E9
:1034200004D3FFE703208DF81700AEE0E7E7049927
:10343000C869D1F820C04B6A8A6A40EA0C0040EAA9
:103440008310D2034FF6FF739A43A2F580321043E4
:10345000C96A40EA016043F60401C4F2020108604F
:103460006021C4F2472101200860FFF707F90390AB
:10347000FFE743F60000C4F20200006800F00071AC
:103480000020B0EB516F0CD1FFE7FFF7F7F803997D
:10349000401A032804D3FFE703208DF8170074E0D7
:1034A000E7E721E06021C4F2472100200860FFF730
:1034B000E5F80390FFE743F60000C4F2020000685D
:1034C00000F000710020B0EB516F0CD0FFE7FFF768
:1034D000D5F80399401A032804D3FFE703208DF899
:1034E000170052E0E7E7FFE74AE004988069012807
:1034F00004D1FFE701208DF8170046E043F60400F1
:10350000C4F202000068029004988069012831D05A
:10351000FFE7029800F480000499C969884229D124
:10352000FFE7029800F03F000499096A884221D120
:10353000FFE7029847F6C07108400499496AB0EB6A
:10354000811F17D1FFE7029800F440300499896A7F
:10355000C9034FF6FF729143A1F58031884209D12A
:10356000FFE7029800F070600499C96AB0EB016F40
:1035700004D0FFE701208DF8170006E0FFE7FFE722
:10358000FFE700208DF81700FFE79DF8170006B051
:1035900080BD000080B582B00190019802F04AFF22
:1035A00002B080BD81B0009001B0704781B0009042
:1035B00001B0704784B00290019100200090FFE7B5
:1035C000029890F83C00012804D1FFE702208DF812
:1035D0000F0044E00299012081F83C00FFE7FFE77B
:1035E000009820F0FF000199C968084300900098F6
:1035F00020F440700199896808430090009820F4F5
:1036000080600199496808430090009820F40060A8
:103610000199096808430090009820F480500199AE
:10362000096908430090009820F400500199496905
:1036300008430090009820F480400199C96908432C
:1036400000900098029909684864FFE702990020F9
:1036500081F83C00FFE700208DF80F00FFE79DF8A0
:103660000F0004B07047000085B003900291FFE79F
:10367000039890F83C00012804D1FFE702208DF860
:1036800013007EE00399012081F83C00FFE7FFE78B
:103690000399022081F83D0003980068406801907A
:1036A0000398006880680090019820F070000190F5
:1036B00002980168019808430190019803990968EC
:1036C0004860039800680021C4F2010188423CD0A0
:1036D000FFE703980068B0F1804F36D0FFE703980A
:1036E000006840F20041C4F2000188422DD0FFE79B
:1036F0000398006840F60001C4F20001884224D01B
:10370000FFE70398006840F60041C4F200018842D8
:103710001BD0FFE70398006840F20041C4F20101AA
:10372000884212D0FFE70398006844F20001C4F217
:103730000101884209D0FFE70398006841F60001C3
:10374000C4F2000188420ED1FFE7009820F080000B
:1037500000900298416800980843009000980399EF
:1037600009688860FFE70399012081F83D00FFE7C1
:103770000399002081F83C00FFE700208DF813003A
:10378000FFE79DF8130005B07047000080B582B0D8
:103790000090009820B9FFE701208DF807003FE076
:1037A000009890F83D0040B9FFE70099002081F8AB
:1037B0003C00009800F038F8FFE70099022081F8FB
:1037C0003D00009951F8040B02F0D2FE009901204F
:1037D00081F84600FFE70099012081F83E0000993A
:1037E00081F83F00009981F84000009981F841007C
:1037F000FFE7FFE70099012081F84200009981F876
:103800004300009981F84400009981F84500FFE7E2
:103810000099012081F83D0000208DF80700FFE7A6
:103820009DF8070002B080BD80B588B0079007986A
:1038300000680021C4F20101884212D1FFE7FFE7CE
:103840000020069043F64400C4F20200016841F0F3
:1038500001010160006800F0010006900698FFE792
:1038600094E00798006841F20001C4F20001884228
:103870001BD1FFE7FFE70020059043F64000C4F2AC
:103880000200016841F010010160006800F01000C2
:1038900005900598FFE73620009000221146FFF7BB
:1038A00027F90098FFF71AF96FE00798006840F2CF
:1038B0000041C4F20101884212D1FFE7FFE7002076
:1038C000049043F64400C4F20200016841F0020192
:1038D0000160006800F0020004900498FFE753E0E4
:1038E0000798006844F20001C4F20101884212D135
:1038F000FFE7FFE70020039043F64400C4F2020014
:10390000016841F480310160006800F48030039068
:103910000398FFE737E00798006844F20041C4F2DB
:103920000101884212D1FFE7FFE70020029043F631
:103930004400C4F20200016841F4003101600068F3
:1039400000F4003002900298FFE71BE0079800683F
:1039500044F60001C4F20101884212D1FFE7FFE7FB
:103960000020019043F64400C4F20200016841F4D3
:1039700080210160006800F4802001900198FFE739
:10398000FFE7FFE7FFE7FFE7FFE7FFE708B080BDDE
:1039900083B00190019890F83D00012804D0FFE722
:1039A00001208DF80B006AE00199022081F83D00AA
:1039B00001980168C86840F00100C860019800687B
:1039C0000021C4F2010188423CD0FFE70198006861
:1039D000B0F1804F36D0FFE70198006840F2004117
:1039E000C4F2000188422DD0FFE70198006840F63C
:1039F0000001C4F20001884224D0FFE7019800686A
:103A000040F60041C4F2000188421BD0FFE7019854
:103A1000006840F20041C4F20101884212D0FFE781
:103A20000198006844F20001C4F20101884209D003
:103A3000FFE70198006841F60001C4F200018842E6
:103A400012D1FFE701980068806800F0070000903D
:103A50000098062807D0FFE701980168086840F041
:103A600001000860FFE706E001980168086840F07F
:103A700001000860FFE700208DF80B00FFE79DF8CC
:103A80000B0003B07047000080B586B0049003912E
:103A900000208DF80B00FFE7049890F83C00012807
:103AA00004D1FFE702208DF81700ABE00499012054
:103AB00081F83C00FFE7FFE70499022081F83D0010
:103AC0000498006880680190019820F077000190C8
:103AD000019820F47F40019001980499096888605A
:103AE000039800680090002872D0FFE70098102823
:103AF0006ED0FFE7009820286AD0FFE700983028B2
:103B000066D0FFE70098402855D0FFE7009850287E
:103B100037D0FFE70098602840D0FFE70098702872
:103B20000BD0FFE70098B0F5805F05D0FFE7009865
:103B3000B0F5005F16D052E055E004980068039B92
:103B40005A689968DB6802F001FE04980068806892
:103B50000190019840F0770001900198049909685C
:103B6000886040E004980068039B5A689968DB68A5
:103B700002F0ECFD04980168886840F48040886099
:103B800031E004980068039A5168D26803F0D4F8D1
:103B900004980068502102F0F3FD24E004980068C6
:103BA000039A5168D26803F0EFF804980068602126
:103BB00002F0E6FD17E004980068039A5168D268A5
:103BC00003F0BAF804980068402102F0D9FD0AE039
:103BD000049800680399096802F0D2FD03E001200F
:103BE0008DF80B00FFE70499012081F83D00FFE705
:103BF0000499002081F83C00FFE79DF80B008DF848
:103C00001700FFE79DF8170006B080BD80B586B0AD
:103C100004900391049820B9FFE701208DF8170064
:103C200088E0049890F83D0040B9FFE7049900202F
:103C300081F83C00049800F081F8FFE70499022025
:103C400081F83D0004980168886844F207029043B7
:103C50008860049951F8040B02F08AFC049800680B
:103C60008068029004980068806901900498006858
:103C7000006A009003980168029808430290019836
:103C800040F203318843019003998868896940EACA
:103C90000121019808430190019840F60C418843A6
:103CA000019001984FF2F001884301900399C86890
:103CB000C96940EA01210198084301900399086904
:103CC000096A000140EA0131019808430190009817
:103CD00020F022000090009820F0880000900399C6
:103CE0004868496940EA0111009808430090029829
:103CF00004990968886001980499096888610098A6
:103D00000499096808620499012081F84600049921
:103D100081F83E00049981F83F00049981F842003F
:103D2000049981F84300049981F83D0000208DF842
:103D30001700FFE79DF8170006B080BD80B594B06E
:103D4000139000201290119010900F900E901398E5
:103D50000068B0F1804F5AD1FFE7FFE700200D90D7
:103D600043F64000C4F20200016841F00101016025
:103D7000006800F001000D900D98FFE7FFE70020BC
:103D80000C9043F63000C4F20200016841F00101DA
:103D90000160006800F001000C900C98FFE7FFE75D
:103DA00000200B9043F63000C4F20200016841F09D
:103DB00002010160006800F002000B900B98FFE721
:103DC0004FF400400E90022001900F9000200290CE
:103DD000109011900120039012900020C4F2020074
:103DE0000EA90491FEF756FA019B029A03980499D2
:103DF0004FF0080CCDF838C00F931092119212902A
:103E000040F20040C4F20200FEF744FAB2E0139818
:103E1000006840F20041C4F20001884232D1FFE75D
:103E2000FFE700200A9043F64000C4F20200016858
:103E300041F002010160006800F002000A900A9857
:103E4000FFE7FFE70020099043F63000C4F20200CC
:103E5000016841F002010160006800F00200099071
:103E60000998FFE730200E9002200F90002110915A
:103E70001191129040F20040C4F202000EA9FEF728
:103E800009FA76E01398006840F60001C4F20001D8
:103E9000884232D1FFE7FFE70020089043F6400058
:103EA000C4F20200016841F004010160006800F002
:103EB000040008900898FFE7FFE70020079043F60A
:103EC0003000C4F20200016841F0020101600068A4
:103ED00000F0020007900798FFE7C0200E90022034
:103EE0000F90002110911191129040F20040C4F205
:103EF00002000EA9FEF7CEF93AE01398006840F6EA
:103F00000041C4F20001884231D1FFE7FFE7002001
:103F1000069043F64000C4F20200016841F0080137
:103F20000160006800F0080006900698FFE7FFE7D0
:103F30000020059043F63000C4F20200016841F011
:103F400001010160006800F0010005900598FFE79D
:103F500003200E9002200F900021109111911290D9
:103F60000020C4F202000EA9FEF794F9FFE7FFE774
:103F7000FFE7FFE714B080BD80B586B004900391E1
:103F8000049890F83E008DF80B00049890F83F00DC
:103F90008DF80A00049890F842008DF80900049802
:103FA00090F843008DF808000398B8B9FFE79DF832
:103FB0000B00012805D1FFE79DF80900012804D076
:103FC000FFE701208DF8170079E00499022081F8BD
:103FD0003E00049981F84200FFE742E0039804287C
:103FE00017D1FFE79DF80A00012805D1FFE79DF8EA
:103FF0000800012804D0FFE701208DF817005EE0DB
:104000000499022081F83F00049981F84300FFE7FA
:1040100026E09DF80B0001280FD1FFE79DF80A006C
:1040200001280AD1FFE79DF80900012805D1FFE723
:104030009DF80800012804D0FFE701208DF8170043
:104040003DE00499022081F83E00049981F83F0088
:10405000049981F84200049981F84300FFE7FFE7E3
:10406000FFE70398019020B1FFE70198042807D0EB
:104070000DE0049800680021012202F04BFB14E0DF
:10408000049800680421012202F044FB0DE004982A
:10409000006800210122009202F03CFB009A049883
:1040A0000068042102F036FBFFE704980168086805
:1040B00040F00100086000208DF81700FFE79DF830
:1040C000170006B080BD000081B0009001B07047BD
:1040D00080B584B0039003980068C068029003988C
:1040E0000068006901909DF804008007002824D52D
:1040F000FFE79DF80800800700281DD5FFE703981B
:1041000001686FF0020008610399012008770398A5
:1041100000688069800720B1FFE70398FFF7D4FFAC
:1041200006E0039800F0CAF9039800F0BFFAFFE731
:10413000039900200877FFE7FFE79DF80400400798
:10414000002825D5FFE79DF80800400700281ED568
:10415000FFE7039801686FF00400086103990220EB
:10416000087703980068806910F4407F04D0FFE767
:104170000398FFF7A9FF06E0039800F09FF9039862
:1041800000F094FAFFE7039900200877FFE7FFE7C4
:104190009DF804000007002824D5FFE79DF80800DB
:1041A000000700281DD5FFE7039801686FF008009D
:1041B000086103990420087703980068C0698007A4
:1041C00020B1FFE70398FFF77FFF06E0039800F0B8
:1041D00075F9039800F06AFAFFE703990020087761
:1041E000FFE7FFE79DF80400C006002825D5FFE79C
:1041F0009DF80800C00600281ED5FFE70398016857
:104200006FF0100008610399082008770398006890
:10421000C06910F4407F04D0FFE70398FFF754FF14
:1042200006E0039800F04AF9039800F03FFAFFE730
:10423000039900200877FFE7FFE79DF80400C00717
:1042400078B1FFE79DF80800C00748B1FFE7039881
:1042500001686FF001000861039800F011FBFFE7AF
:10426000FFE79DF804000006002810D5FFE79DF841
:1042700008000006002809D5FFE7039801686FF0E1
:10428000800008610398FFF78DF9FFE7FFE79DF8CD
:1042900004004006002810D5FFE79DF808004006FE
:1042A000002809D5FFE7039801686FF04000086116
:1042B000039800F0D3FBFFE7FFE79DF804008006BA
:1042C000002810D5FFE79DF808008006002809D5D2
:1042D000FFE7039801686FF0200008610398FFF77B
:1042E00065F9FFE7FFE704B080BD000080B58CB042
:1042F0000B9000200A9009900890079006900B9868
:1043000000680021C4F20101884222D1FFE7FFE7E3
:104310000020059043F63000C4F20200016841F02D
:1043200010010160006800F0100005900598FFE79B
:104330004FF4D44006900221079101200890099182
:104340000A9041F20000C4F2020006A9FDF7A2FFA4
:10435000B2E00B98006840F20041C4F201018842CB
:1043600023D1FFE7FFE70020049043F63000C4F2BA
:104370000200016841F004010160006800F00400DF
:1043800004900498FFE74FF44070069002200790D5
:1043900000200890099003200A9040F60000C4F223
:1043A000020006A9FDF776FF85E00B98006844F24D
:1043B0000001C4F20101884222D1FFE7FFE700209B
:1043C000039043F63000C4F20200016841F010018E
:1043D0000160006800F0100003900398FFE7602080
:1043E00006900220079001210891099003200A906D
:1043F00041F20000C4F2020006A9FDF74BFF59E0AC
:104400000B98006844F20041C4F20101884223D1B4
:10441000FFE7FFE70020029043F63000C4F20200FD
:10442000016841F002010160006800F002000290A2
:104430000298FFE74FF48070069002200790012158
:104440000891099003200A9040F20040C4F2020053
:1044500006A9FDF71FFF2CE00B98006844F6000149
:10446000C4F20101884223D1FFE7FFE70020019059
:1044700043F63000C4F20200016841F0020101601D
:10448000006800F0020001900198FFE74FF400700F
:1044900006900220079001210891099003200A90BC
:1044A00040F20040C4F2020006A9FDF7F3FEFFE768
:1044B000FFE7FFE7FFE7FFE70CB080BD81B00090AA
:1044C00001B0704780B586B004900391029200203D
:1044D0008DF80700FFE7049890F83C00012804D10C
:1044E000FFE702208DF8170089E00499012081F888
:1044F0003C00FFE7FFE7029800900C2800F2708074
:104500000099DFE801F0076D6D6D206D6D6D3A6DFE
:104510006D6D530004980068039902F051FA0498F5
:104520000168886940F0080088610498016888691A
:1045300020F0040088610398026904980168886982
:104540001043886150E004980068039902F0AEFAC5
:1045500004980168886940F40060886104980168E3
:10456000886920F480608861039802690498016872
:10457000886940EA0220886136E00498006803995F
:1045800002F00EFB04980168C86940F00800C86199
:1045900004980168C86920F00400C86103980269A2
:1045A00004980168C8691043C8611DE00498006858
:1045B000039902F06FFB04980168C86940F4006039
:1045C000C86104980168C86920F48060C8610398D4
:1045D000026904980168C86940EA0220C86103E0E2
:1045E00001208DF80700FFE7FFE70499002081F81C
:1045F0003C00FFE79DF807008DF81700FFE79DF8E6
:10460000170006B080BD000080B582B00090009811
:1046100020B9FFE701208DF807003FE0009890F8EF
:104620003D0040B9FFE70099002081F83C00009868
:1046300000F038F8FFE70099022081F83D0000996A
:1046400051F8040B01F094FF0099012081F8460015
:10465000FFE70099012081F83E00009981F83F00B2
:10466000009981F84000009981F84100FFE7FFE7D9
:104670000099012081F84200009981F843000099D7
:1046800081F84400009981F84500FFE70099012076
:1046900081F83D0000208DF80700FFE79DF8070036
:1046A00002B080BD81B0009001B0704781B0009031
:1046B00001B0704780B58CB00A900991099828B96B
:1046C000FFE70A9890F83E0007901CE0099804283C
:1046D00005D1FFE70A9890F83F00069010E009988E
:1046E000082805D1FFE70A9890F84000059004E0FB
:1046F0000A9890F841000590FFE705980690FFE7BB
:1047000006980790FFE70798012804D0FFE70120EB
:104710008DF82F00AFE0099828B9FFE70A99022029
:1047200081F83E001EE00998042806D1FFE70A99A7
:10473000022081F83F00049012E00998082806D171
:10474000FFE70A99022081F84000039005E00A99EA
:10475000022081F841000390FFE703980490FFE7EF
:104760000498FFE70A98006809990122019201F074
:10477000D1FF01980A9909680022C4F2010291420E
:1047800002900CD0FFE70A9800684FF60041CBF684
:10479000FE710844B0FA80F040090290FFE70298E9
:1047A000C00738B1FFE70A980168486C40F4004040
:1047B0004864FFE70A9800680021C4F201018842BA
:1047C0003CD0FFE70A980068B0F1804F36D0FFE791
:1047D0000A98006840F20041C4F2000188422DD0DE
:1047E000FFE70A98006840F60001C4F20001884221
:1047F00024D0FFE70A98006840F60041C4F20001A7
:1048000088421BD0FFE70A98006840F20041C4F2DA
:104810000101884212D0FFE70A98006844F20001C3
:10482000C4F20101884209D0FFE70A98006841F606
:104830000001C4F20001884212D1FFE70A98006823
:10484000806800F0070008900898062807D0FFE766
:104850000A980168086840F001000860FFE706E078
:104860000A980168086840F001000860FFE700202E
:104870008DF82F00FFE79DF82F000CB080BD0000E1
:1048800080B582B00190019800680021C4F2010156
:10489000884207D1FFE740F65800C2F200004068A6
:1048A0008047D9E001980068B0F1804F07D1FFE759
:1048B00040F66000C2F2000040688047CBE00198FB
:1048C000006840F20041C4F20001884207D1FFE7CE
:1048D00040F66800C2F2000040688047BAE00198E4
:1048E000006840F60001C4F20001884207D1FFE7EA
:1048F00040F67000C2F2000040688047A9E00198CD
:10490000006840F60041C4F20001884207D1FFE789
:1049100040F67800C2F200004068804798E00198B5
:10492000006841F20001C4F20001884207D1FFE7AC
:1049300040F68000C2F200004068804787E001989E
:10494000006841F20041C4F20001884207D1FFE74C
:1049500040F68800C2F200004068804776E0019887
:10496000006840F20041C4F20101884207D1FFE72C
:1049700040F69000C2F200004068804765E0019870
:10498000006844F20001C4F20101884207D1FFE748
:1049900040F69800C2F200004068804754E0019859
:1049A000006844F20041C4F20101884207D1FFE7E8
:1049B00040F63000C2F200004068804743E00198B2
:1049C000006844F60001C4F20101884207D1FFE704
:1049D00040F63800C2F200004068804732E001989B
:1049E000006841F60001C4F20001884207D1FFE7E8
:1049F00040F64000C2F200004068804721E0019884
:104A0000006841F60041C4F20001884207D1FFE787
:104A100040F64800C2F200004068804710E001986C
:104A2000006842F20001C4F20001884207D1FFE7AA
:104A300040F65000C2F2000040688047FFE7FFE701
:104A4000FFE7FFE7FFE7FFE7FFE7FFE7FFE7FFE736
:104A5000FFE7FFE7FFE7FFE702B080BD81B000900E
:104A600001B0704780B586B004900391ADF80A207C
:104A7000049890F84200202848D1FFE7039820B11D
:104A8000FFE7BDF80A0020B9FFE701208DF8170005
:104A900040E00499012008630499002048630498C9
:104AA0000399BDF80A2002F0B7FD8DF809000498BB
:104AB000006B012821D1FFE7FFE700200190049857
:104AC00000680068019004980068406801900198AF
:104AD000FFE7FFE7FFE70498006850E8030F40F0A6
:104AE00010000090FFE700990498026842E8031064
:104AF0000028F0D1FFE7FFE703E001208DF809006F
:104B0000FFE79DF809008DF8170003E002208DF8FB
:104B10001700FFE79DF8170006B080BD80B58CB088
:104B20000B90ADF82A100B98006841F20001C4F216
:104B30000101884219D1FFE7BDF82A1040F6A00014
:104B4000C2F200000890A0F80814D0F80C24BDF8B8
:104B50002A1000F5017009909047089A09990B985E
:104B6000B2F80424FFF77EFF91E00B98006844F24E
:104B70000041C4F20001884219D1FFE7BDF82A10B4
:104B800040F6B040C2F200000690A0F80814D0F839
:104B90000C24BDF82A1000F5017007909047069A82
:104BA00007990B98B2F80424FFF75CFF6EE00B98AE
:104BB000006844F60001C4F2000188421FD1FFE7FB
:104BC000BDF82A1041F2C000C2F200000490A0F823
:104BD0000814D0F80C24BDF82A1000F501700590D7
:104BE000904704990598B1F80414FBF7CDFB049A9B
:104BF00005990B98B2F80424FFF734FF45E00B98B1
:104C0000006844F60041C4F20001884219D1FFE770
:104C1000BDF82A1041F2D040C2F200000290A0F884
:104C20000814D0F80C24BDF82A1000F50170039088
:104C30009047029A03990B98B2F80424FFF712FFE9
:104C400022E00B98006841F20041C4F20101884261
:104C500019D1FFE7BDF82A1041F6F040C2F200007A
:104C60000090A0F80814D0F80C24BDF82A1000F524
:104C7000017001909047009A01990B98B2F80424B2
:104C8000FFF7F0FEFFE7FFE7FFE7FFE7FFE70CB006
:104C900080BD000080B584B003900020029003988E
:104CA00000684069C0B2C0090290039890F84100C2
:104CB000212823D1FFE7029800B3FFE7FFE7FFE7D2
:104CC0000398006850E8050F20F080000190FFE78E
:104CD00001990398026842E805100028F0D1FFE727
:104CE000FFE70398806B28B1FFE70398806BFCF720
:104CF0006DFFFFE7039802F07FFAFFE70398006873
:104D00004069C0F380100290039890F84200222876
:104D100023D1FFE7029800B3FFE7FFE7FFE703981F
:104D2000006850E8050F20F040000090FFE7009970
:104D30000398026842E805100028F0D1FFE7FFE77A
:104D40000398C06B28B1FFE70398C06BFCF73EFFE8
:104D5000FFE7039802F0F2F9FFE7002004B080BDFE
:104D600081B0009001B0704780B592B01190119859
:104D700000680068109011980068C0680F90119842
:104D8000006840690E9000200D900C90109800F083
:104D90000F000D900D9888B9FFE79DF84000800640
:104DA00000280AD5FFE79DF83C008006002804D5BE
:104DB000FFE7119802F0DEFA02E2FFE70D98002803
:104DC00000F0C280FFE79DF83800C00738B9FFE760
:104DD000BDF83C0010F4907F00F0B680FFE79DF82E
:104DE0004000C00758B1FFE79DF83D00C00730B153
:104DF000FFE71199486C40F001004864FFE79DF817
:104E00004000400700280BD5FFE79DF83800C00799
:104E100030B1FFE71199486C40F002004864FFE7A9
:104E20009DF84000800700280BD5FFE79DF838006B
:104E3000C00730B1FFE71199486C40F004004864A6
:104E4000FFE79DF840000007002811D5FFE79DF817
:104E50003C008006002805D4FFE79DF83800C00715
:104E600030B1FFE71199486C40F008004864FFE753
:104E70001198406C002866D0FFE79DF8400080063E
:104E800000280AD5FFE79DF83C008006002804D5DD
:104E9000FFE7119802F06EFAFFE711980068406989
:104EA000C0F380100C901198406C0007002804D4C7
:104EB000FFE70C9800283ED0FFE7119802F03EF97A
:104EC000119800684069400600282FD5FFE7FFE7EA
:104ED000FFE71198006850E8050F20F040000B90A4
:104EE000FFE70B991198026842E805100028F0D1FD
:104EF000FFE7FFE71198C06B98B1FFE71198C16B0E
:104F000046F67D70C0F6000008651198C06BFCF78E
:104F1000D3FE28B1FFE71198C06B016D8847FFE70A
:104F200003E01198FFF71CFFFFE703E01198FFF77C
:104F300017FFFFE706E01198FFF712FF1199002015
:104F40004864FFE7FFE73BE11198006B012840F060
:104F50001781FFE79DF84000C006002840F110814E
:104F6000FFE79DF83C00C006002840F10981FFE7FB
:104F7000FFE700200A901198006800680A901198D5
:104F8000006840680A900A98FFE711980068406935
:104F90004006002840F19A80FFE71198C06B006836
:104FA0004068ADF82600BDF82600002875D0FFE760
:104FB000BDF826001199898D88426EDAFFE7BDF8A9
:104FC00026001199C8851198C06BC069B0F5807F23
:104FD00058D0FFE7FFE7FFE71198006850E8030F9C
:104FE00020F480700890FFE708991198026842E861
:104FF00003100028F0D1FFE7FFE7FFE7FFE7119874
:10500000006850E8050F20F001000790FFE70799BE
:105010001198026842E805100028F0D1FFE7FFE789
:10502000FFE7FFE71198006850E8050F20F0400007
:105030000690FFE706991198026842E805100028DB
:10504000F0D1FFE7FFE71199202081F84200119984
:1050500000200863FFE7FFE71198006850E8030F9E
:1050600020F010000590FFE705991198026842E8CA
:1050700003100028F0D1FFE7FFE71198C06BFCF7A1
:10508000A5FDFFE71199022048631198818DC28D1B
:10509000891A89B2FFF742FD17E0BDF82600119981
:1050A000898D884210D1FFE71198C06BC069B0F5B7
:1050B000807F08D1FFE71199022048631198818D04
:1050C000FFF72CFDFFE7FFE7FFE779E01199888DF7
:1050D000C98D401AADF812001198C08D00284ED02D
:1050E000FFE7BDF81200002849D0FFE7FFE7FFE720
:1050F0001198006850E8030F20F490700390FFE7C8
:1051000003991198026842E803100028F0D1FFE7E4
:10511000FFE7FFE7FFE71198006850E8050F20F070
:1051200001000290FFE702991198026842E8051019
:105130000028F0D1FFE7FFE71199202081F8420015
:10514000119900200863FFE7FFE71198006850E815
:10515000030F20F010000190FFE7019911980268F9
:1051600042E803100028F0D1FFE7FFE71199022081
:1051700048631198BDF81210FFF7D0FCFFE71FE05D
:105180009DF84000000600280AD5FFE79DF83C0086
:105190000006002804D5FFE7119802F007FB0FE096
:1051A0009DF84000400600280AD5FFE79DF83C0026
:1051B0004006002804D5FFE7119802F009F8FFE740
:1051C00012B080BD80B582B00090009820B9FFE792
:1051D00001208DF8070040E00098806908B1FFE7E2
:1051E00000E0FFE7009890F8410040B9FFE7009920
:1051F000002081F84000009800F034F8FFE70099A3
:10520000242081F8410000980168C86820F400500B
:10521000C860009802F062F900980168086920F4FB
:105220009040086100980168486920F02A004861B0
:1052300000980168C86840F40050C86000990020D8
:105240004864009A202182F84110009A82F84210A6
:10525000009948638DF80700FFE79DF8070002B04A
:1052600080BD000080B5A2B02190002020901F904A
:105270001E901D901C902198006844F60041C4F2D5
:105280000001884240F09E80FFE7FFE700201B906E
:1052900043F64000C4F20200016841F400210160BD
:1052A000006800F400201B901B98FFE7FFE7002038
:1052B0001A9043F63000C4F20200016841F0040184
:1052C0000160006800F004001A901A98FFE74FF49C
:1052D00040601C9002201D90002010901E90032022
:1052E0000F901F900820209040F60000C4F20200AA
:1052F0001CA9FCF7CFFF0F9A109942F2D410C2F20A
:105300000000119046F24003C4F2020303604FF024
:10531000006343608160C1604FF480630361416159
:105320008161C1610162042343628262C1620163DF
:10533000FCF774FE18B1FFE7FBF708FBFFE7FFE798
:10534000219842F2D411C2F20001C163219888630E
:10535000FFE742F23420C2F200000E9046F27001E4
:10536000C4F2020101604FF00061416040218160A0
:105370000021C1604FF48062026141618161C161BD
:1053800001620422426203228262C1620163FCF76D
:1053900045FE18B1FFE7FBF7D9FAFFE7FFE72198D1
:1053A00042F23421C2F20001816321988863FFE751
:1053B00034200D9000221146FDF79AFB0D98FDF761
:1053C0008DFBD5E12198006841F20001C4F2010192
:1053D000884267D1FFE7FFE70020199043F64400B9
:1053E000C4F20200016841F010010160006800F0A1
:1053F000100019901998FFE7FFE70020189043F676
:105400003000C4F20200016841F00101016000684F
:1054100000F0010018901898FFE74FF4C0601C904E
:1054200002201D9000200B901E9003201F9007204B
:1054300020900020C4F202001CA9FCF72BFF0B995E
:1054400042F29420C2F200000C9046F24042C4F2B4
:10545000020202604FF0006242608160C1604FF45E
:105460008062026141618161C16101624162FCF758
:10547000D5FD18B1FFE7FBF769FAFFE7FFE72198D1
:1054800042F29421C2F20001C16321988863FFE7D0
:1054900025200A9000221146FDF72AFB0A98FDF705
:1054A0001DFB64E12198006844F20041C4F2000150
:1054B00088423ED1FFE7FFE70020179043F6400007
:1054C000C4F20200016841F400310160006800F498
:1054D000003017901798FFE7FFE70020169043F67B
:1054E0003000C4F20200016841F008010160006868
:1054F00000F0080016901698FFE760201C9002202C
:105500001D90002008901E9003201F9007202090DF
:1055100040F60040C4F202001CA9FCF7BBFE089A4A
:10552000262009901146FDF7E3FA0998FDF7D6FA0F
:105530001CE12198006844F60001C4F20001884291
:1055400040F09A80FFE7FFE70020159043F6400007
:10555000C4F20200016841F480210160006800F497
:10556000802015901598FFE7FFE70020149043F680
:105570003000C4F20200016841F0080101600068D7
:1055800000F0080014901498FFE74FF440701C904E
:1055900002201D90002006901E9003201F900720DF
:1055A000209040F60040C4F202001CA9FCF772FEF5
:1055B000069942F2F420C2F20000079046F2280257
:1055C000C4F2020202604FF0006242608160C1607A
:1055D0004FF48062026141618161C1614FF44032E8
:1055E00002624162FCF71AFD18B1FFE7FBF7AEF962
:1055F000FFE7FFE7219842F2F421C2F20001C16304
:1056000021988863FFE742F25430C2F2000005900F
:1056100046F25801C4F2020101604FF0006141609E
:10562000402181600021C1604FF4806202614161CC
:105630008161C16101620422426203228262C1620D
:105640000163FCF7EBFC18B1FFE7FBF77FF9FFE71D
:10565000FFE7219842F25431C2F2000181632198A0
:105660008863FFE72720049000221146FDF740FAE7
:105670000498FDF733FA78E02198006841F2004180
:10568000C4F2010188426FD1FFE7FFE700201390C9
:1056900043F64400C4F20200016841F020010160B9
:1056A000006800F0200013901398FFE7FFE7002048
:1056B000129043F63000C4F20200016841F0040188
:1056C0000160006800F0040012901298FFE7C0200B
:1056D0001C9002201D90002002901E90032001903B
:1056E0001F900820209040F60000C4F202001CA980
:1056F000FCF7D0FD019A029942F2B430C2F20000E8
:10570000039046F22843C4F2020303604FF0206383
:1057100043608160C1604FF48063036141618161D6
:10572000C1614FF440330362042343628262C16269
:105730000163FCF773FC18B1FFE7FBF707F9FFE71C
:10574000FFE7219842F2B431C2F20001C16321980F
:105750008863FFE74720009000221146FDF7C8F953
:105760000098FDF7BBF9FFE7FFE7FFE7FFE7FFE77B
:1057700022B080BD80B584B002900191ADF80220C6
:10578000029890F84200202817D1FFE7019820B135
:10579000FFE7BDF8020020B9FFE701208DF80F00F8
:1057A0000FE002990020086302980199BDF80220D9
:1057B00001F0CAFF8DF80F0003E002208DF80F0002
:1057C000FFE79DF80F0004B080BD000080B582B0F7
:1057D0000190019842F28071C2F2000188420CD11E
:1057E000FFE742F28070C2F2000040F20001C2F214
:1057F00000010122FFF7BEFFFFE702B080BD0000FD
:1058000081B0009001B0704781B0009001B0704746
:10581000FFE7FEE780B586B0002200920592049271
:105820000392029242F20410C2F20000019042F28E
:105830000011C4F2010101604FF4803141608260C7
:1058400001210161017680F82020C2620123C0F6A7
:1058500000738362C260C16180F830204161FBF750
:1058600091F918B1FFE7FBF771F8FFE70820029004
:10587000012003900020049042F20410C2F20000C4
:1058800002A9FBF767F818B1FFE7FBF75FF8FFE73E
:1058900006B080BD80B582B042F24C10C2F200006A
:1058A000019046F20041C4F2000101600321416011
:1058B00000218160C1604FF4A02202614FF4C00258
:1058C00042610176012242768276C1760177417784
:1058D000FBF74CFF18B1FFE7FBF738F8FFE702B022
:1058E00080BD000080B58AB0FFE70020099043F634
:1058F0003000C4F20200016841F400110160006848
:1059000000F4001009900998FFE7FFE700200890D5
:1059100043F63000C4F20200016841F480010160E6
:10592000006800F4800008900898FFE70C200090C1
:10593000002206921146FDF7DBF80098FDF7CEF83D
:10594000069A0D2001901146FDF7D2F80198FDF757
:10595000C5F8069A0E2002901146FDF7C9F8029884
:10596000FDF7BCF8069A0F2003901146FDF7C0F82A
:105970000398FDF7B3F8069A392004901146FDF715
:10598000B7F80498FDF7AAF8069A3A200590114650
:10599000FDF7AEF80598FDF7A1F8069A3B200790B1
:1059A0001146FDF7A5F80798FDF798F80AB080BDF5
:1059B00080B594B0002013901290119010900F9029
:1059C000FFE700200E9043F63000C4F202000168A9
:1059D00041F010010160006800F010000E900E9878
:1059E000FFE7FFE700200D9043F63000C4F202000D
:1059F000016841F080010160006800F080000D90B6
:105A00000D98FFE7FFE700200C9043F63000C4F24A
:105A10000200016841F001010160006800F001002E
:105A20000C900C98FFE7FFE700200B9043F6300046
:105A3000C4F20200016841F002010160006800F058
:105A400002000B900B98FFE7FFE700200A9043F657
:105A50003000C4F20200016841F0080101600068F2
:105A600000F008000A900A98FFE7FFE7002009907D
:105A700043F63000C4F20200016841F00401016005
:105A8000006800F0040009900998FFE740F2004028
:105A9000C4F2020001904FF40041009100220592EF
:105AA000FCF7D4FD059A40F60040C4F202000790CE
:105AB0004FF4F0410291FCF7C9FD059A0020C4F2B1
:105AC000020004904FF480710391FCF7BFFD009A2F
:105AD000019805990F92012206921092119112914C
