:020000040800F2
:10000000E82900205902000845580008D54D00088D
:10001000415800089D040008B16C00080000000071
:10002000000000000000000000000000B9580008B7
:10003000B906000800000000B55800081159000872
:1000400073020008730200087302000873020008BC
:1000500073020008730200087302000873020008AC
:10006000730200087302000873020008730200089C
:10007000C1040008D1040008E1040008F1040008EC
:10008000730200087302000873020008730200087C
:10009000A1040008B10400087302000873020008FC
:1000A000730200087302000873020008730200085C
:1000B000730200087302000873020008730200084C
:1000C000730200087302000873020008730200083C
:1000D00073020008816C000873020008916C00082C
:1000E000730200087302000873020008730200081C
:1000F000730200087302000873020008730200080C
:1001000073020008730200087302000873020008FB
:100110009D63000873020008E95900087302000893
:1001200073020008010500081105000873020008A9
:1001300073020008730200087302000873020008CB
:1001400073020008730200087302000873020008BB
:10015000730200087302000873020008A16C000813
:10016000730200087302000873020008730200089B
:100170007302000873020008730200080000000008
:10018000730200087302000800F002F800F054F84F
:1001900014A696E8000CB244B344DA4501D100F04D
:1001A0004BF8BAE80F000FA696E83000A5EB04055F
:1001B00004EB0607AAEB0704A7F101074FEA1515A0
:1001C0004FEA3414A4F10104AC4201D300F034F836
:1001D00013F0010F18BFFB1A43F0010300F001F800
:1001E000DBE718470895000028950000103A24BF67
:1001F00078C878C1FAD8520724BF30C830C144BF8C
:1002000004680C6070470000704700000023002461
:1002100000250026103A28BF78C1FBD8520728BF16
:1002200030C148BF0B6070471FB509F03CF900F0C2
:10023000D5F81FBD10B510BD00F0FAF81146FFF754
:10024000F3FF08F05FFA00F018F903B4FFF7F2FFCC
:1002500003BC00F01BF9000009488047094800472B
:10026000FEE7FEE7FEE7FEE7FEE7FEE7FEE7FEE766
:10027000FEE7FEE704480549054A064B70470000C3
:10028000D559000889010008E8230020E82900204A
:10029000E8250020E825002053EA020C00F06980E0
:1002A0002DE9F04B4FF00006002B1FBFB3FA83F58A
:1002B00003FA05F424FA05F65E4012BF1643B2FABB
:1002C00082F502FA05F4C5F120051EBF22FA05FCED
:1002D00044EA0C04203556EA044C4FEA144418BF93
:1002E000641C4FF000084FF00009904271EB030CC2
:1002F00039D3002919BFB1FA81F701FA07F6B0FA2C
:1003000080F700FA07F6C7F120071EBF20FA07FCA6
:1003100046EA0C062037B6FBF4FCA7EB0507103FB6
:1003200007F01F0BCBF120062CFA06F60CFA0BFB9C
:1003300044BFB3460026202FA4BF5E464FF0000BFB
:100340005BEA060C08BF4FF0010B19EB0B0948EBF9
:100350000608ABFB027C06FB02CC0BFB03CCC01BEC
:1003600071EB0C01C1E70B46024641464846BDE829
:10037000F08B13B5084318BF4FF0FF300146AFF3C1
:100380000080BDE81C4070474FF0000200B51346E6
:1003900094469646203922BFA0E80C50A0E80C50A5
:1003A000B1F12001BFF4F7AF090728BFA0E80C5056
:1003B00048BF0CC05DF804EB890028BF40F8042B4F
:1003C00008BF704748BF20F8022B11F0804F18BFBC
:1003D00000F8012B704770477047704708487CB59C
:1003E0007844009007487844009C0546019004E05A
:1003F0002046016808448047241DAC42F8D17CBDEA
:10040000289300002693000010B500F009F800685A
:1004100010BD10B5044600F003F8046010BD0000E4
:10042000004870471800002000487047180000205E
:100430007546FFF7F9FFAE4605006946534620F0C2
:100440000700854618B020B5FFF714FFBDE820402F
:100450004FF000064FF000074FF000084FF0000B80
:10046000AC46ACE8C009ACE8C009ACE8C009ACE8EF
:10047000C00921F007018D46704710B50446AFF35F
:1004800000802046BDE81040FFF7DFBE014918207C
:10049000ABBEFEE72600020070470000FFE7FEE764
:1004A00080B541F63050C2F2000000F013FB80BD71
:1004B00080B541F63050C2F2000000F00BFB80BD69
:1004C00080B541F67860C2F2000000F0C5FF80BD43
:1004D00080B541F65850C2F2000000F0BDFF80BD6B
:1004E00080B541F6D860C2F2000000F0B5FF80BDD3
:1004F00080B541F6B850C2F2000000F0ADFF80BDFB
:1005000080B541F63870C2F2000000F0A5FF80BD52
:1005100080B541F61860C2F2000000F09DFF80BD7A
:1005200082B001900198007810384AF6AB21CAF6E3
:10053000AA21A0FB011000090090009949F2E240B5
:10054000C0F60000405C0199C8650098042807D3F4
:10055000FFE701990868042262F30900886506E054
:100560000199086840F2FF3290438865FFE70198DF
:10057000806D02B07047000086B0059000208DF8B5
:1005800013000598806A03900598806910BBFFE707
:100590000398029003281BD80299DFE801F0020DAE
:1005A0000218059890F82F00C00720B1FFE701203E
:1005B0008DF81300FFE70CE00598C06AB0F1C07F2A
:1005C00004D1FFE701208DF81300FFE701E000E010
:1005D000FFE745E005988069B0F5005F25D1FFE7AA
:1005E0000398019003281ED80199DFE801F0020664
:1005F000021101208DF8130016E0059890F82F00E5
:10060000C00720B1FFE701208DF81300FFE70BE0E2
:100610000598C06AB0F1C07F04D1FFE701208DF8D2
:100620001300FFE700E0FFE719E0039800900328BC
:1006300004D3FFE70098032804D00EE001208DF8D2
:1006400013000BE0059890F82F00C00720B1FFE7DA
:1006500001208DF81300FFE700E0FFE7FFE7FFE769
:100660009DF8130006B0704784B003900291019288
:10067000009303980168086820F4802008600098BF
:1006800003990968486003988068402809D1FFE70A
:100690000198039909688860029803990968C860FD
:1006A00008E002980399096888600198039909682D
:1006B000C860FFE704B070477047000072B6FFE7FC
:1006C000FEE7000084B002900191029890F82000AB
:1006D0008DF803009DF80300012805D0FFE79DF881
:1006E000030002280AD1FFE7019A029801684869CD
:1006F0001043486100208DF80F0008E00299486A15
:1007000040F48020486201208DF80F00FFE79DF83B
:100710000F0004B07047000086B004900391049865
:1007200090F820008DF803009DF80300012806D002
:10073000FFE79DF80300022840F0B080FFE746F293
:100740000040C4F2000001900199D1F8000240F08D
:100750000100C1F800020199D1F8000220F47C5098
:10076000C1F800020398426A0199D1F8000240EAF8
:100770000220C1F800020398406900F01F01012027
:1007800088400290029A0199D1F81C029043C1F866
:100790001C020398C069F0B9FFE7029A0199D1F8E9
:1007A0000C029043C1F80C02039A9088D1685269F8
:1007B00040EA0140019901EBC201C1F84002039AED
:1007C00010889168526940EA0140019901EBC20129
:1007D000C1F84402FFE70398C06901281ED1FFE772
:1007E000029A0199D1F80C021043C1F80C02039A45
:1007F00090881168526940EA0140019901EBC201F9
:10080000C1F84002039A90899168526940EA014018
:10081000019901EBC201C1F84402FFE70398806926
:1008200040B9FFE7029A0199D1F804029043C1F858
:10083000040207E0029A0199D1F804021043C1F8BA
:100840000402FFE70398006940B9FFE7029A0199A3
:10085000D1F814029043C1F8140207E0029A0199FA
:10086000D1F814021043C1F81402FFE70398006A9C
:10087000012808D1FFE7029A0199D1F81C02104320
:10088000C1F81C02FFE70199D1F8000220F0010035
:10089000C1F8000200208DF8170008E00499486AAA
:1008A00040F48020486201208DF81700FFE79DF892
:1008B000170006B07047000081B0009001B070478B
:1008C00086B00490039102920193049890F820005E
:1008D0008DF803009DF80300012806D0FFE79DF87E
:1008E0000300022840F0E880FFE7039880B9FFE7A3
:1008F00004980068C068800748B9FFE70499486A0F
:1009000040F40010486201208DF81700DDE00FE090
:10091000049800680069800748B9FFE70499486AAD
:1009200040F40010486201208DF81700CDE0FFE789
:1009300004980068039900EB0110D0F8B00100F0B2
:100940000400029988600298806858B9FFE704980B
:100950000068039900EB0110D0F8B001400D029936
:1009600008600AE004980068039900EB0110D0F8D1
:10097000B001C00802994860FFE704980068039935
:1009800000EB0110D0F8B00100F002000299C8603D
:1009900004980068039900EB0110D0F8B40100F04E
:1009A0000F00082804D3FFE70299082008610BE034
:1009B00004980068039900EB0110D0F8B40100F02E
:1009C0000F0002990861FFE704980068039900EBA3
:1009D0000110D0F8B40180B2000A0299886104982D
:1009E0000068039900EB0110D0F8B401000C0299E3
:1009F000486104980068039900EB0110D0F8B80131
:100A00000199087004980068039900EB0110D0F870
:100A1000B801000A0199487004980068039900EB36
:100A20000110D0F8B801000C019988700498006892
:100A3000039900EB0110D0F8B801000E0199C870BD
:100A400004980068039900EB0110D0F8BC010199EB
:100A5000087104980068039900EB0110D0F8BC01FC
:100A6000000A0199487104980068039900EB01108D
:100A7000D0F8BC01000C01998871049800680399B2
:100A800000EB0110D0F8BC01000E0199C871039869
:100A900038B9FFE704980168C86840F02000C860D2
:100AA00006E004980168086940F020000861FFE74B
:100AB00000208DF8170008E00499486A40F480206F
:100AC000486201208DF81700FFE79DF8170006B077
:100AD0007047000080B58AB00990002008900998FE
:100AE0000068406907900998006840680690099876
:100AF00000688068059009980068C06804900998AB
:100B000000680069039009980068806902909DF868
:100B10001C00C007002800F09480FFE79DF8140037
:100B2000C00758B3FFE709980168012088609DF865
:100B300014008007002804D5FFE7099800F0DCFBCB
:100B40001BE09DF814004007002805D5FFE7089832
:100B500040F4006008900FE09DF8140000070028A2
:100B600005D5FFE7089840F48050089003E0099805
:100B700000F0BEFBFFE7FFE7FFE7FFE79DF815008A
:100B8000C00760B3FFE7099801684FF48070886080
:100B90009DF815008007002804D5FFE7099800F0AC
:100BA000B3FB1BE09DF815004007002805D5FFE7C3
:100BB000089840F4005008900FE09DF815000007D9
:100BC000002805D5FFE7089840F48040089003E02E
:100BD000099800F095FBFFE7FFE7FFE7FFE79DF8C7
:100BE0001600C00760B3FFE7099801684FF4803032
:100BF00088609DF816008007002804D5FFE7099853
:100C000000F08AFB1BE09DF816004007002805D580
:100C1000FFE7089840F4004008900FE09DF81600A8
:100C20000007002805D5FFE7089840F480300890B9
:100C300003E0099800F06CFBFFE7FFE7FFE7FFE741
:100C4000FFE79DF81C000007002810D5FFE79DF87E
:100C50001000C006002809D5FFE7089840F400708E
:100C60000890099801681020C860FFE7FFE79DF829
:100C70001C00400700280FD5FFE79DF81000000773
:100C8000002808D5FFE7099801680820C86009987E
:100C900000F064FAFFE7FFE79DF81C0080070028DA
:100CA0000BD5FFE709980068C068800720B1FFE70F
:100CB000099800F057FAFFE7FFE79DF81C0040068F
:100CC000002810D5FFE79DF80C00C006002809D5C4
:100CD000FFE7089840F480600890099801681020A8
:100CE0000861FFE7FFE79DF81C00800600280FD58C
:100CF000FFE79DF80C000007002808D5FFE70998DA
:100D0000016808200861099800F068FAFFE7FFE72A
:100D10009DF81C00C00600280BD5FFE70998006865
:100D20000069800720B1FFE7099800F05BFAFFE750
:100D3000FFE79DF81E00800700280FD5FFE79DF80C
:100D40001800C006002808D5FFE7099801681020A0
:100D50004860099800F082FAFFE7FFE79DF81E005F
:100D6000C00778B1FFE79DF818000007002808D5F4
:100D7000FFE70998016808204860099800F0D0FA58
:100D8000FFE7FFE79DF81D000006002840F18D8079
:100D9000FFE79DF818004007002840F18180FFE739
:100DA0009DF81D00C00750B1FFE79DF80800C0077F
:100DB00028B1FFE7089840F001000890FFE79DF890
:100DC0001D00800700280BD5FFE79DF8080080076D
:100DD000002805D5FFE7089840F002000890FFE7DB
:100DE0009DF81D00400700280BD5FFE79DF808007F
:100DF0004007002805D5FFE7089840F00400089058
:100E0000FFE79DF81D000007002848D5FFE79DF883
:100E1000080010F0700F42D0FFE7029800F0700059
:100E200001460191102814D0FFE70198202815D021
:100E3000FFE70198302816D0FFE70198402817D027
:100E4000FFE70198502818D0FFE70198602819D0D3
:100E50001DE0089840F00800089019E0089840F05C
:100E60001000089014E0089840F0200008900FE06F
:100E7000089840F0400008900AE0089840F0800090
:100E8000089005E0089840F48070089000E0FFE7C3
:100E900009980168886920F070008861FFE7FFE722
:100EA0000998016804204860FFE7089848B1FFE707
:100EB000089A0999486A104348620998FFF7FCFCB0
:100EC000FFE70AB080BD000080B584B002900298B0
:100ED00020B9FFE701208DF80F00E0E0029890F8BC
:100EE000200020B9FFE7029800F0DEF8FFE7029843
:100EF0000168086840F00100086000F033FF0190CD
:100F0000FFE7029800684068C007A8B9FFE700F053
:100F100029FF0199401A0B280DD3FFE70299486A6F
:100F200040F4003048620299052081F82000012039
:100F30008DF80F00B3E0E4E702980168086820F03C
:100F40000200086000F00EFF0190FFE702980068C1
:100F500040688007002815D5FFE700F003FF0199DE
:100F6000401A0B280DD3FFE70299486A40F400307D
:100F700048620299052081F8200001208DF80F00B9
:100F80008DE0E3E70298007E012807D1FFE7029891
:100F90000168086840F08000086006E00298016877
:100FA000086820F080000860FFE70298407E012872
:100FB00007D1FFE702980168086840F04000086028
:100FC00006E002980168086820F040000860FFE72A
:100FD0000298807E012807D1FFE70298016808681F
:100FE00040F02000086006E002980168086820F0E0
:100FF00020000860FFE70298C07E012807D1FFE7C4
:1010000002980168086820F01000086006E0029865
:101010000168086840F010000860FFE70298007F50
:10102000012807D1FFE702980168086840F008002E
:10103000086006E002980168086820F0080008606F
:10104000FFE70298407F012807D1FFE70298016877
:10105000086840F00400086006E00298016808682B
:1010600020F004000860FFE7029B19685A6898683E
:10107000D3F80CC040EA0C00D3F810C040EA0C00D2
:101080005B691843013A1043C86102990020486225
:10109000029A012182F820108DF80F00FFE79DF8D9
:1010A0000F0004B080BD000080B58CB00B90002014
:1010B0000A9009900890079006900B98006846F2F5
:1010C0000041C4F20001884246D1FFE7FFE700205B
:1010D000059043F64000C4F20200016841F000713F
:1010E0000160006800F0007005900598FFE7FFE7D9
:1010F0000020049043F63000C4F20200016841F081
:1011000008010160006800F0080004900498FFE7FF
:101110000320069002210791002102910891099075
:1011200009200A9040F60040C4F2020006A900F02F
:101130003DFC029A14200190114601F04DF80198EF
:1011400001F040F8029A15200390114601F044F88E
:10115000039801F037F8FFE70CB080BD81B0009034
:1011600001B0704780B586B005900598006846F2DA
:101170000041C4F20001884212D1FFE7059840F215
:101180007801C2F2000103910A1D049201F12003CB
:101190000021FFF795FB03990498896A88471BE0B3
:1011A0000598006846F60001C4F20001884212D199
:1011B000FFE7059840F2A401C2F2000101910A1D67
:1011C000029201F120030021FFF77AFB01990298B6
:1011D000896A8847FFE7FFE706B080BD81B00090CD
:1011E00001B0704780B586B005900598006846F25A
:1011F0000041C4F20001884212D1FFE7059840F295
:101200007801C2F2000103910A1D049201F120034A
:101210000121FFF755FB03990498896A88471BE071
:101220000598006846F60001C4F20001884212D118
:10123000FFE7059840F2A401C2F2000101910A1DE6
:10124000029201F120030121FFF73AFB0199029874
:10125000896A8847FFE7FFE706B080BD81B000904C
:1012600001B0704780B584B00290029890F82000D9
:1012700001282FD1FFE70299022081F8200002986F
:101280000168086820F00100086000F06BFD019023
:10129000FFE7029800684068C007A8B1FFE700F0C8
:1012A00061FD0199401A0B280DD3FFE70299486AA6
:1012B00040F4003048620299052081F820000120A6
:1012C0008DF80F000FE0E4E70299002048628DF8E6
:1012D0000F0008E00299486A40F4002048620120AB
:1012E0008DF80F00FFE79DF80F0004B080BD0000EF
:1012F00081B0009001B0704781B0009001B070479C
:1013000081B0009001B0704781B0009001B070478B
:1013100081B0009001B0704781B0009001B070477B
:1013200081B0009001B0704780B584B002900298FF
:10133000806D019000F016FD0090029890F8350045
:1013400002280DD0FFE7029980204865FFE7029947
:10135000002081F83400FFE701208DF80F0055E0F0
:1013600002980168086820F0160008600298016879
:10137000486920F0800048610298006C20B9FFE7BE
:101380000298806C38B1FFE702980168086820F085
:1013900008000860FFE702980168086820F0010073
:1013A0000860FFE7029800680068C007C8B1FFE75F
:1013B00000F0D8FC0099401A062811D3FFE70299E3
:1013C000202048650299032081F83500FFE7029943
:1013D000002081F83400FFE703208DF80F0015E0AE
:1013E000E0E70298C16D3F2088400199886002992A
:1013F000012081F83500FFE70299002081F83400D0
:10140000FFE7FFE700208DF80F00FFE79DF80F00D2
:1014100004B080BD82B00090009890F8350002289A
:1014200007D0FFE700998020486501208DF807006C
:101430000EE00099052081F83500009801680868E1
:1014400020F001000860FFE700208DF80700FFE7AB
:101450009DF8070002B0704780B586B00590002067
:10146000039040F20000C2F20000006848F2B5119B
:10147000C1F64E31A0FB0110800A02900598806DE4
:10148000019001980068049004980599C96DC840BE
:10149000000700281AD5FFE7059800680068400794
:1014A000002812D5FFE705980168086820F00400BD
:1014B00008600598C16D08208840019988600599E9
:1014C000486D40F001004865FFE7FFE70498059983
:1014D000C96DC840C007A0B1FFE705980068406922
:1014E000000600280CD5FFE70598C16D0120884053
:1014F000019988600599486D40F002004865FFE752
:10150000FFE704980599C96DC8404007002814D525
:10151000FFE7059800680068800700280CD5FFE702
:101520000598C16D04208840019988600599486D2F
:1015300040F004004865FFE7FFE704980599C96D8E
:10154000C840C006002847D5FFE705980068006836
:10155000000700283FD5FFE70598C16D102088409F
:1015600001998860059800680068400300281AD532
:10157000FFE70598006800680003002809D4FFE72A
:101580000598006C20B1FFE70598016C8847FFE7DC
:1015900008E00598806C20B1FFE70598816C8847CA
:1015A000FFE7FFE716E0059800680068C00500281F
:1015B00007D4FFE705980168086820F00800086074
:1015C000FFE70598006C20B1FFE70598016C88479C
:1015D000FFE7FFE7FFE7FFE704980599C96DC840FB
:1015E0008006002840F18D80FFE7059800680068BC
:1015F000C006002840F18480FFE70598C16D2020D7
:10160000884001998860059890F83500052834D104
:10161000FFE705980168086820F016000860059843
:101620000168486920F0800048610598006C20B985
:10163000FFE70598806C38B1FFE7059801680868F6
:1016400020F008000860FFE70598C16D3F20884042
:10165000019988600599012081F83500FFE7059917
:10166000002081F83400FFE70598006D20B1FFE706
:101670000598016D8847FFE77BE0059800680068E2
:10168000400300281AD5FFE70598006800680003AA
:10169000002809D4FFE70598406C20B1FFE70598C2
:1016A000416C8847FFE708E00598C06B20B1FFE771
:1016B0000598C16B8847FFE7FFE720E005980068C1
:1016C0000068C005002811D4FFE705980168086884
:1016D00020F0100008600599012081F83500FFE72F
:1016E0000599002081F83400FFE7FFE70598C06BFB
:1016F00020B1FFE70598C16B8847FFE7FFE7FFE7E9
:10170000FFE70598406DA0B3FFE70598406DC0075F
:1017100030B3FFE70599052081F835000598016889
:10172000086820F001000860FFE70398013003908B
:101730000299884201D9FFE707E0FFE705980068B2
:101740000068C0070028F0D1FFE70599012081F863
:101750003500FFE70599002081F83400FFE7FFE737
:101760000598C06C20B1FFE70598C16C8847FFE77A
:10177000FFE706B080BD000080B586B00490002071
:10178000039000F0EFFA0290049820B9FFE70120DF
:101790008DF81700A3E00498406A08B1FFE7FFE75F
:1017A0000499022081F83500FFE70499002081F8B0
:1017B0003400FFE704980168086820F00100086021
:1017C000FFE7049800680068C00790B1FFE700F0E9
:1017D000C9FA0299401A06280AD3FFE70499202083
:1017E00048650499032081F835008DF8170076E0EC
:1017F000E7E70498006800680390039848F23F0107
:10180000CFF2100108400390049900914868D1F884
:1018100008C0CB680A6940EA0C00184310434A69C3
:1018200010438A691043CA691043096A0143039847
:10183000084303900498406A042808D1FFE70499FC
:10184000C86A096B0143039808430390FFE70398B4
:101850000499096808600498006840690390039837
:1018600020F0070003900498416A0398084303900E
:101870000498406A04281AD1FFE70498816A039803
:10188000084303900498C06A80B1FFE70498FEF70C
:1018900073FE50B1FFE70499402048650499012088
:1018A00081F835008DF8170019E0FFE7FFE703988E
:1018B0000499096848610498FEF732FE0190049883
:1018C000C16D3F20884001998860049900204865D7
:1018D000049A012182F835108DF81700FFE79DF872
:1018E000170006B080BD000080B588B00690059155
:1018F0000492039300208DF80B000698806D0190F0
:10190000FFE7069890F83400012804D1FFE7022091
:101910008DF81F0045E00699012081F83400FFE7AB
:10192000FFE7069890F8350001282BD1FFE70699CC
:10193000022081F83500069900204865069805992F
:10194000049A039BFEF790FE0698C16D3F208840E5
:101950000199886006980168086840F016000860E0
:101960000698006C38B1FFE706980168086840F0F7
:1019700008000860FFE706980168086840F0010069
:10198000086009E0FFE70699002081F83400FFE7CE
:1019900002208DF80B00FFE79DF80B008DF81F006B
:1019A000FFE79DF81F0008B080BD00008EB00D90CD
:1019B0000C9100200A90099008900B90FFE70B987B
:1019C0000F2800F2CC81FFE70B99012088400A9094
:1019D0000C9800680A990840099009980A99884269
:1019E00040F0B881FFE70C98406800F00300012840
:1019F00007D0FFE70C98406800F0030002282FD1C1
:101A0000FFE70D98806808900B984100032000FACA
:101A100001F10898884308900C98C0680B99490018
:101A200000FA01F108980843089008980D99886019
:101A30000D98406808900B99012000FA01F1089870
:101A4000884308900C984068C0F300100B9900FA86
:101A500001F108980843089008980D994860FFE73D
:101A60000C98406800F00300032818D0FFE70D9899
:101A7000C06808900B984100032000FA01F1089813
:101A8000884308900C9880680B99490000FA01F18E
:101A900008980843089008980D99C860FFE70C98CB
:101AA000406800F00300022826D1FFE70D980B994B
:101AB0006FF0030202EA51010844006A08900B9893
:101AC00000F0070081000F2000FA01F10898884318
:101AD00008900C9800690B9901F00701890000FA41
:101AE00001F108980843089008980D990B9B02EAA9
:101AF000530211440862FFE70D98006808900B98A4
:101B00004100032000FA01F10898884308900C98DE
:101B1000406800F003000B99490000FA01F10898B1
:101B20000843089008980D9908600C988079800700
:101B3000002800F00E81FFE7FFE70020079043F642
:101B40004400C4F20200016841F480410160006871
:101B500000F4804007900798FFE70B9820F00300FF
:101B600043F60801C4F20101405808900B9800F0B8
:101B7000030081000F2000FA01F1089888430890C3
:101B80000D980021C4F20201884203D1FFE7002032
:101B900006905EE00D9840F20041C4F202018842D6
:101BA00003D1FFE70120059050E00D9840F60001B9
:101BB000C4F20201884203D1FFE70220049042E010
:101BC0000D9840F60041C4F20201884203D1FFE7BC
:101BD0000320039034E00D9841F20001C4F20201A9
:101BE000884203D1FFE70420029026E00D9841F2DD
:101BF0000041C4F20201884203D1FFE705200190B1
:101C000018E00D9841F60001C4F20201884203D1A8
:101C1000FFE7062000900AE00D9941F60042C4F269
:101C200002020820914208BF07200090FFE70098B9
:101C30000190FFE701980290FFE702980390FFE709
:101C400003980490FFE704980590FFE70598069035
:101C5000FFE70698C0B20B9901F00301890000FA72
:101C600001F108980843089008980B9921F00301A6
:101C700043F60802C4F20102885043F60840C4F259
:101C800001000068089009990898884308900C980A
:101C90008079C006002805D5FFE709990898084310
:101CA0000890FFE7089843F60841C4F20101086074
:101CB00043F60C40C4F201000068089009990898A6
:101CC000884308900C9880798006002805D5FFE7A6
:101CD0000999089808430890FFE7089843F60C41D3
:101CE000C4F20101086043F60440C4F20100006838
:101CF000089009990898884308900C988079800783
:101D0000002805D5FFE70999089808430890FFE7E0
:101D1000089843F60441C4F20101086043F600400C
:101D2000C4F2010000680890099908988843089057
:101D30000C988079C00728B1FFE7099908980843F3
:101D40000890FFE7089843F60041C4F201010860DB
:101D5000FFE7FFE7FFE70B9801300B902FE60EB08F
:101D60007047000042F2E030C2F2000000687047A5
:101D700080B58EB00C900C9820B9FFE701208DF84B
:101D8000370043E10C9890F83D0040B9FFE70C990B
:101D9000002081F83C000C9800F03CF9FFE70C991A
:101DA000242081F83D000C980168086820F00100AB
:101DB00008600C980168086840F4004008600C98BE
:101DC0000168086820F40040086000F05FFB0A909A
:101DD0000C98406848F2A061C0F2010188420BD81B
:101DE000FFE70A9948F28042C0F21E0200209142A9
:101DF00038BF012009900AE00A9940F60012C0F2AB
:101E00003D020020914238BF01200990FFE7099868
:101E1000012804D1FFE701208DF83700F6E00A9889
:101E20004DF68361C4F21B31A0FB0110800C0B90B6
:101E30000C980068406820F03F000B9908430C990B
:101E4000096848600C980068006A20F03F0008901C
:101E50000C98406848F2A061C0F20101884204D8A1
:101E6000FFE70B98013007900EE00B984FF4967146
:101E7000484344F6D351C1F26201A0FB01010120A5
:101E800000EB91100790FFE70898079908430C9919
:101E9000096808620C980068C0694CF6FF718843B5
:101EA00006900C98406848F2A061C0F20101884297
:101EB0001FD8FFE70A9801380C9949684900B0FB20
:101EC000F1F001306FF31F30032803D8FFE704203F
:101ED00005900BE00A9801380C9949684900B0FB5D
:101EE000F1F001306FF31F300590FFE70598049083
:101EF0004CE00C98806868B9FFE70A9801380C99A3
:101F0000496801EB4101B0FBF1F001306FF31F3084
:101F100003900DE00A9801380C9949681922514341
:101F2000B0FBF1F00130042161F31F300390FFE7B3
:101F30000398000518B9FFE70120029023E00C98F0
:101F4000806868B9FFE70A9801380C99496801EB85
:101F50004101B0FBF1F001306FF31F3001900DE053
:101F60000A9801380C99496819225143B0FBF1F0E5
:101F70000130042161F31F300190FFE7019840F424
:101F800000400290FFE702980490FFE7069804994A
:101F900008430C990968C8610C980068006820F033
:101FA000C0000C9B1968DA691B6A1A431043086069
:101FB0000C980068806848F2FF3188430C9A1168D9
:101FC000D36812691A43104388600C980068C0688F
:101FD00020F0FF000C9B19685A699B691A43104353
:101FE000C8600C980168086840F0010008600C990E
:101FF000002008640C9A202182F83D100C99086397
:102000000C9981F83E008DF83700FFE79DF8370006
:102010000EB080BD80B588B0079000200690059076
:102020000490039002900798006845F60001C4F2FE
:102030000001884235D1FFE7FFE70020019043F619
:102040003000C4F20200016841F002010160006842
:1020500000F0020001900198FFE74FF44060029009
:102060001220039000200490032005900420069085
:1020700040F20040C4F2020002A9FFF797FCFFE71C
:102080000020009043F64000C4F20200016841F4D1
:1020900080010160006800F4800000900098FFE774
:1020A000FFE708B080BD000040F20800C2F2000067
:1020B000027842F2E031C2F2000108681044086080
:1020C0007047000080B582B043F60041C4F20201BF
:1020D000086840F400700860086840F48060086098
:1020E000086840F480700860032000F08FF800203A
:1020F000019000F005F800F03BF8019802B080BDB7
:1021000080B582B0009040F20000C2F2000000688A
:1021100040F20801C2F200010A784FF47A71B1FB73
:10212000F2F1B0FBF1F000F0A9FD20B1FFE70120D2
:102130008DF8070018E000980F280DD8FFE70099E8
:102140004FF0FF30002200F047F8009840F20C01F9
:10215000C2F20001086003E001208DF8070003E0EF
:1021600000208DF80700FFE79DF8070002B080BD52
:1021700080B582B0FFE70020019043F64400C4F22E
:102180000200016841F480410160006800F4804071
:1021900001900198FFE7FFE70020009043F6400020
:1021A000C4F20200016841F080510160006800F053
:1021B000805000900098FFE7052000F027F802B05B
:1021C00080BD000080B582B08DF807009DF9070042
:1021D00006F030FA02B080BD80B586B08DF81700E9
:1021E000049103920020029006F03CFA02909DF9BF
:1021F0001700019002980499039A03F025FB014609
:10220000019806F037FA06B080BD000080B582B0B4
:102210000190019806F050FA02B080BD80B584B0FC
:1022200002900191029820B9FFE701208DF80F007C
:1022300021E1019843F60041C4F20201096801F06E
:102240000701884212D9FFE7019943F60040C4F222
:1022500002000170006800F007000199884204D074
:10226000FFE701208DF80F0005E1FFE702980078F5
:10227000800700282AD5FFE7029800784007002849
:1022800009D5FFE743F60801C4F20201086840F4EB
:10229000E0500860FFE7029800780007002809D5A1
:1022A000FFE743F60801C4F20201086840F4604009
:1022B0000860FFE743F60801C4F20201086820F055
:1022C000F000029A926810430860FFE702980078D5
:1022D000C00700286ED0FFE702984068012811D19E
:1022E000FFE743F60000C4F20200006800F400318A
:1022F0000020B0EB514F04D1FFE701208DF80F0013
:10230000B9E02CE002984068022805D0FFE7029867
:102310004068032811D1FFE743F60000C4F2020031
:10232000006800F000710020B0EB516F04D1FFE7AE
:1023300001208DF80F009EE010E043F60000C4F28B
:102340000200006800F002010020B0EB510F04D140
:10235000FFE701208DF80F008DE0FFE7FFE743F670
:102360000801C4F20201086820F00300029A5268D2
:1023700010430860FFF7F6FC0090FFE743F6080003
:10238000C4F20200006800F00C0002994968B0EB4A
:10239000810F0ED0FFE7FFF7E5FC0099401A41F2EC
:1023A0008931884204D3FFE703208DF80F0062E0F3
:1023B000E4E7FFE7019843F60041C4F2020109682F
:1023C00001F00701884212D2FFE7019943F600406D
:1023D000C4F202000170006800F007000199884211
:1023E00004D0FFE701208DF80F0044E0FFE70298DA
:1023F0000078400700280CD5FFE743F60801C4F237
:102400000201086820F4E050029AD2681043086084
:10241000FFE702980078000700280DD5FFE743F694
:102420000801C4F20201086820F46040029A1269AF
:1024300040EAC2000860FFE700F04CF843F60801EC
:10244000C4F202010968C9B20A0949F2CA41C0F6D8
:102450000001895CC84040F20001C2F2000108603E
:1024600040F20C00C2F200000068FFF749FE0020B5
:102470008DF80F00FFE79DF80F0004B080BD00004D
:1024800040F20000C2F200000068704780B5FFF71C
:10249000F7FF43F60801C4F202010968C1F3822282
:1024A00049F2DA41C0F60001895CC84080BD0000F5
:1024B00080B5FFF7E5FF43F60801C4F202010968A1
:1024C00089B24A0B49F2DA41C0F60001895CC84082
:1024D00080BD000080B586B0002005900490039078
:1024E000029043F60800C4F20200006800F00C00FD
:1024F0000146019140B1FFE7019804280AD0FFE7A7
:10250000019808280CD04FE042F20040C0F2F400DD
:1025100002904FE041F20020C0F27A00029049E0C0
:1025200043F60400C4F20200016801F03F01059186
:1025300000684002002813D5FFE743F60400C4F208
:1025400002000068C0F3881041F20021C0F27A0155
:10255000A0FB0101059A0023FDF79EFE049012E006
:1025600043F60400C4F202000068C0F3881042F28F
:102570000041C0F2F401A0FB0101059A0023FDF720
:102580008BFE0490FFE743F60400C4F202000068EB
:1025900000F44031022000EBD130039004980399FD
:1025A000B0FBF1F0029005E042F20040C0F2F4000E
:1025B0000290FFE7029806B080BD000080B586B0AB
:1025C0000490049820B9FFE701208DF8170050E32C
:1025D00004980078C007002800F0A580FFE743F6C4
:1025E0000800C4F20200006800F00C00042813D0B8
:1025F000FFE743F60800C4F20200006800F00C0098
:1026000008281ED1FFE743F60400C4F20200006868
:102610004002002815D5FFE743F60000C4F202008F
:10262000006800F400310020B0EB514F08D0FFE704
:102630000498406820B9FFE701208DF8170018E3DF
:1026400070E0FFE704984068B0F5803F09D1FFE7EC
:1026500043F60001C4F20201086840F480300860CB
:1026600020E004984068B0F5A02F0DD1FFE743F6B5
:102670000001C4F20201086840F480200860086884
:1026800040F4803008600CE043F60001C4F202011F
:10269000086820F480300860086820F48020086012
:1026A000FFE7FFE7FFE704984068E8B1FFE7FFF7BF
:1026B00059FB0390FFE743F60000C4F202000068F4
:1026C00000F400310020B0EB514F0CD1FFE7FFF7D1
:1026D00049FB0399401A652804D3FFE703208DF8CE
:1026E0001700C6E2E7E71CE0FFF73CFB0390FFE7BB
:1026F00043F60000C4F20200006800F4003100203C
:10270000B0EB514F0CD0FFE7FFF72CFB0399401AB9
:10271000652804D3FFE703208DF81700A9E2E7E757
:10272000FFE7FFE7FFE7049800788007002840F103
:102730009680FFE743F60800C4F20200006810F03C
:102740000C0F13D0FFE743F60800C4F20200006844
:1027500000F00C0008282CD1FFE743F60400C4F277
:10276000020000684002002823D4FFE743F600007F
:10277000C4F20200006800F002010020B0EB510F2B
:1027800009D0FFE70498C068012804D0FFE70120C2
:102790008DF817006DE243F60001C4F202010868EB
:1027A00020F0F800049A126940EAC2000860FFE7CE
:1027B00054E00498C06870B3FFE70021C4F24721D9
:1027C00001200860FFF7CEFA0390FFE743F6000010
:1027D000C4F20200006800F002010020B0EB510FCB
:1027E0000CD1FFE7FFF7BEFA0399401A032804D380
:1027F000FFE703208DF817003BE2E7E743F600010F
:10280000C4F20201086820F0F800049A126940EA54
:10281000C200086021E00021C4F2472100200860C6
:10282000FFF7A0FA0390FFE743F60000C4F20200AE
:10283000006800F002010020B0EB510F0CD0FFE760
:10284000FFF790FA0399401A032804D3FFE7032007
:102850008DF817000DE2E7E7FFE7FFE7FFE70498D1
:102860000078000700284BD5FFE70498406918B3AB
:10287000FFE740F68061C4F2472101200860FFF7BE
:1028800071FA0390FFE743F67400C4F20200006897
:1028900000F002010020B0EB510F0CD1FFE7FFF771
:1028A00061FA0399401A032804D3FFE703208DF847
:1028B0001700DEE1E7E722E040F68061C4F247213D
:1028C00000200860FFF74EFA0390FFE743F674001C
:1028D000C4F20200006800F002010020B0EB510FCA
:1028E0000CD0FFE7FFF73EFA0399401A032804D300
:1028F000FFE703208DF81700BBE1E7E7FFE7FFE7FD
:10290000049800784007002840F1CE80FFE70020BF
:102910008DF8070043F64000C4F202000068C000D2
:10292000002815D4FFE7FFE70020009043F64000A1
:10293000C4F20200016841F080510160006800F0BB
:10294000805000900098FFE701208DF80700FFE716
:1029500047F20000C4F200000068C005002822D43D
:10296000FFE747F20001C4F20001086840F48070FC
:102970000860FFF7F7F90390FFE747F20000C4F2A1
:1029800000000068C00500280CD4FFE7FFF7EAF953
:102990000399401A032804D3FFE703208DF817009A
:1029A00067E1EAE7FFE7FFE704988068012809D1BB
:1029B000FFE743F67001C4F20201086840F001002D
:1029C00008601FE00498806805280DD1FFE743F6F2
:1029D0007001C4F20201086840F004000860086851
:1029E00040F0010008600CE043F67001C4F20201FF
:1029F000086820F001000860086820F00400086002
:102A0000FFE7FFE7FFE704988068F8B1FFE7FFF70B
:102A1000A9F90390FFE743F67000C4F202000068D2
:102A200000F002010020B0EB510F0ED1FFE7FFF7DD
:102A300099F90399401A41F28931884204D3FFE79A
:102A400003208DF8170014E1E5E71EE0FFF78AF98F
:102A50000390FFE743F67000C4F20200006800F044
:102A600002010020B0EB510F0ED0FFE7FFF77AF91B
:102A70000399401A41F28931884204D3FFE70320C9
:102A80008DF81700F5E0E5E7FFE79DF8070001285E
:102A900009D1FFE743F64001C4F20201086820F0C3
:102AA00080500860FFE7FFE704988069002800F085
:102AB000DC80FFE743F60800C4F20200006800F083
:102AC0000C00082800F08580FFE704988069022840
:102AD0005CD1FFE76021C4F2472100200860FFF7C6
:102AE00041F90390FFE743F60000C4F202000068DA
:102AF00000F000710020B0EB516F0CD0FFE7FFF742
:102B000031F90399401A032804D3FFE703208DF815
:102B10001700AEE0E7E70499C869D1F820C04B6A16
:102B20008A6A40EA0C0040EA8310D2034FF6FF7332
:102B30009A43A2F580321043C96A40EA016043F625
:102B40000401C4F2020108606021C4F2472101209F
:102B50000860FFF707F90390FFE743F60000C4F2AF
:102B60000200006800F000710020B0EB516F0CD142
:102B7000FFE7FFF7F7F80399401A032804D3FFE7AC
:102B800003208DF8170074E0E7E721E06021C4F22C
:102B9000472100200860FFF7E5F80390FFE743F6C0
:102BA0000000C4F20200006800F000710020B0EBE9
:102BB000516F0CD0FFE7FFF7D5F80399401A0328AF
:102BC00004D3FFE703208DF8170052E0E7E7FFE7A3
:102BD0004AE004988069012804D1FFE701208DF8BC
:102BE000170046E043F60400C4F2020000680290B9
:102BF00004988069012831D0FFE7029800F4800032
:102C00000499C969884229D1FFE7029800F03F0082
:102C10000499096A884221D1FFE7029847F6C071FA
:102C200008400499496AB0EB811F17D1FFE7029869
:102C300000F440300499896AC9034FF6FF7291434A
:102C4000A1F58031884209D1FFE7029800F0706059
:102C50000499C96AB0EB016F04D0FFE701208DF839
:102C6000170006E0FFE7FFE7FFE700208DF81700F9
:102C7000FFE79DF8170006B080BD000080B582B068
:102C80000190019802F01AFE02B080BD81B0009060
:102C900001B0704781B0009001B0704784B00290DD
:102CA000019100200090FFE7029890F83C00012875
:102CB00004D1FFE702208DF80F0044E002990120C3
:102CC00081F83C00FFE7FFE7009820F0FF00019942
:102CD000C96808430090009820F440700199896801
:102CE00008430090009820F48060019949680843E7
:102CF0000090009820F40060019909680843009052
:102D0000009820F4805001990969084300900098C8
:102D100020F400500199496908430090009820F47C
:102D200080400199C9690843009000980299096898
:102D30004864FFE70299002081F83C00FFE700208B
:102D40008DF80F00FFE79DF80F0004B070470000FA
:102D500085B003900291FFE7039890F83C000128AA
:102D600004D1FFE702208DF813007EE003990120D3
:102D700081F83C00FFE7FFE70399022081F83D005E
:102D8000039800684068019003980068806800908C
:102D9000019820F0700001900298016801980843A2
:102DA0000190019803990968486003980068002120
:102DB000C4F2010188423CD0FFE703980068B0F1FB
:102DC000804F36D0FFE70398006840F20041C4F21C
:102DD000000188422DD0FFE70398006840F600010B
:102DE000C4F20001884224D0FFE70398006840F64F
:102DF0000041C4F2000188421BD0FFE7039800683D
:102E000040F20041C4F20101884212D0FFE703986A
:102E1000006844F20001C4F20101884209D0FFE7D2
:102E20000398006841F60001C4F2000188420ED107
:102E3000FFE7009820F08000009002984168009819
:102E4000084300900098039909688860FFE7039998
:102E5000012081F83D00FFE70399002081F83C0044
:102E6000FFE700208DF81300FFE79DF8130005B081
:102E70007047000080B582B00090009820B9FFE74D
:102E800001208DF807003FE0009890F83D0040B920
:102E9000FFE70099002081F83C00009800F038F826
:102EA000FFE70099022081F83D00009951F8040BDA
:102EB00002F0A2FD0099012081F84600FFE7009989
:102EC000012081F83E00009981F83F00009981F8C7
:102ED0004000009981F84100FFE7FFE700990120D9
:102EE00081F84200009981F84300009981F844007C
:102EF000009981F84500FFE70099012081F83D0025
:102F000000208DF80700FFE79DF8070002B080BDA4
:102F100080B588B00790079800680021C4F20101CD
:102F2000884212D1FFE7FFE70020069043F64400F5
:102F3000C4F20200016841F001010160006800F084
:102F4000010006900698FFE794E00798006841F2B8
:102F50000001C4F2000188421BD1FFE7FFE7002017
:102F6000059043F64000C4F20200016841F01001F0
:102F70000160006800F0100005900598FFE736201A
:102F8000009000221146FFF727F90098FFF71AF981
:102F90006FE00798006840F20041C4F201018842E6
:102FA00012D1FFE7FFE70020049043F64400C4F28B
:102FB0000200016841F002010160006800F00200B7
:102FC00004900498FFE753E00798006844F200017A
:102FD000C4F20101884212D1FFE7FFE7002003900D
:102FE00043F64400C4F20200016841F480310160FC
:102FF000006800F4803003900398FFE737E00798FB
:10300000006844F20041C4F20101884212D1FFE796
:10301000FFE70020029043F64400C4F2020001687A
:1030200041F400310160006800F400300290029821
:10303000FFE71BE00798006844F60001C4F20101B5
:10304000884212D1FFE7FFE70020019043F64400D9
:10305000C4F20200016841F480210160006800F4BC
:10306000802001900198FFE7FFE7FFE7FFE7FFE718
:10307000FFE7FFE708B080BD83B00190019890F8AA
:103080003D00012804D0FFE701208DF80B006AE025
:103090000199022081F83D0001980168C86840F05C
:1030A0000100C860019800680021C4F20101884253
:1030B0003CD0FFE701980068B0F1804F36D0FFE7C1
:1030C0000198006840F20041C4F2000188422DD00E
:1030D000FFE70198006840F60001C4F20001884251
:1030E00024D0FFE70198006840F60041C4F20001D7
:1030F00088421BD0FFE70198006840F20041C4F20B
:103100000101884212D0FFE70198006844F20001F3
:10311000C4F20101884209D0FFE70198006841F636
:103120000001C4F20001884212D1FFE70198006853
:10313000806800F0070000900098062807D0FFE79D
:1031400001980168086840F001000860FFE706E0A8
:1031500001980168086840F001000860FFE700205E
:103160008DF80B00FFE79DF80B0003B070470000DF
:1031700080B586B00490039100208DF80B00FFE726
:10318000049890F83C00012804D1FFE702208DF854
:103190001700ABE00499012081F83C00FFE7FFE74E
:1031A0000499022081F83D0004980068806801902D
:1031B000019820F077000190019820F47F40019061
:1031C00001980499096888600398006800900028B5
:1031D00072D0FFE7009810286ED0FFE700982028F3
:1031E0006AD0FFE70098302866D0FFE700984028B3
:1031F00055D0FFE70098502837D0FFE700986028A7
:1032000040D0FFE7009870280BD0FFE70098B0F59A
:10321000805F05D0FFE70098B0F5005F16D052E060
:1032200055E004980068039B5A689968DB6802F0CF
:10323000D1FC0498006880680190019840F0770004
:103240000190019804990968886040E0049800683A
:10325000039B5A689968DB6802F0BCFC049801681B
:10326000886840F48040886031E004980068039AE0
:103270005168D26802F0A4FF04980068502102F05F
:10328000C3FC24E004980068039A5168D26802F0F5
:10329000BFFF04980068602102F0B6FC17E00498B4
:1032A0000068039A5168D26802F08AFF04980068A7
:1032B000402102F0A9FC0AE004980068039909681B
:1032C00002F0A2FC03E001208DF80B00FFE7049957
:1032D000012081F83D00FFE70499002081F83C00BF
:1032E000FFE79DF80B008DF81700FFE79DF817002A
:1032F00006B080BD80B586B004900391049820B9D3
:10330000FFE701208DF8170088E0049890F83D0051
:1033100040B9FFE70499002081F83C00049800F0D0
:1033200081F8FFE70499022081F83D0004980168C4
:10333000886844F2070290438860049951F8040BAE
:1033400002F05AFB049800688068029004980068B4
:103350008069019004980068006A009003980168F1
:10336000029808430290019840F20331884301908B
:1033700003998868896940EA01210198084301900E
:10338000019840F60C418843019001984FF2F001FA
:10339000884301900399C868C96940EA01210198EE
:1033A0000843019003990869096A000140EA013164
:1033B000019808430190009820F0220000900098A6
:1033C00020F08800009003994868496940EA01119B
:1033D0000098084300900298049909688860019851
:1033E0000499096888610098049909680862049939
:1033F000012081F84600049981F83E00049981F883
:103400003F00049981F84200049981F8430004992F
:1034100081F83D0000208DF81700FFE79DF81700A8
:1034200006B080BD80B594B013900020129011902A
:1034300010900F900E9013980068B0F1804F5AD101
:10344000FFE7FFE700200D9043F64000C4F20200C2
:10345000016841F001010160006800F001000D9079
:103460000D98FFE7FFE700200C9043F63000C4F210
:103470000200016841F001010160006800F00100F4
:103480000C900C98FFE7FFE700200B9043F630000C
:10349000C4F20200016841F002010160006800F01E
:1034A00002000B900B98FFE74FF400400E900220B3
:1034B00001900F9000200290109011900120039035
:1034C00012900020C4F202000EA90491FEF76EFAD9
:1034D000019B029A039804994FF0080CCDF838C06C
:1034E0000F9310921192129040F20040C4F2020029
:1034F000FEF75CFAB2E01398006840F20041C4F2B3
:103500000001884232D1FFE7FFE700200A9043F62E
:103510004000C4F20200016841F00201016000684D
:1035200000F002000A900A98FFE7FFE700200990E8
:1035300043F63000C4F20200016841F0020101606C
:10354000006800F0020009900998FFE730200E9013
:1035500002200F90002110911191129040F2004032
:10356000C4F202000EA9FEF721FA76E01398006873
:1035700040F60001C4F20001884232D1FFE7FFE7C4
:103580000020089043F64000C4F20200016841F0B8
:1035900004010160006800F0040008900898FFE74B
:1035A000FFE70020079043F63000C4F202000168F4
:1035B00041F002010160006800F0020007900798E6
:1035C000FFE7C0200E9002200F9000211091119172
:1035D000129040F20040C4F202000EA9FEF7E6F994
:1035E0003AE01398006840F60041C4F200018842B6
:1035F00031D1FFE7FFE70020069043F64000C4F218
:103600000200016841F008010160006800F0080054
:1036100006900698FFE7FFE70020059043F630008C
:10362000C4F20200016841F001010160006800F08D
:10363000010005900598FFE703200E9002200F90EF
:1036400000211091119112900020C4F202000EA9E5
:10365000FEF7ACF9FFE7FFE7FFE7FFE714B080BD37
:1036600080B586B004900391049890F83E008DF8E0
:103670000B00049890F83F008DF80A00049890F829
:1036800042008DF80900049890F843008DF8080076
:103690000398B8B9FFE79DF80B00012805D1FFE7B3
:1036A0009DF80900012804D0FFE701208DF81700DC
:1036B00079E00499022081F83E00049981F84200E3
:1036C000FFE742E00398042817D1FFE79DF80A00BE
:1036D000012805D1FFE79DF80800012804D0FFE785
:1036E00001208DF817005EE00499022081F83F0068
:1036F000049981F84300FFE726E09DF80B000128BC
:103700000FD1FFE79DF80A0001280AD1FFE79DF8D5
:103710000900012805D1FFE79DF80800012804D021
:10372000FFE701208DF817003DE00499022081F8A1
:103730003E00049981F83F00049981F84200049901
:1037400081F84300FFE7FFE7FFE70398019020B10E
:10375000FFE70198042807D00DE0049800680021D5
:10376000012202F01BFA14E00498006804210122EF
:1037700002F014FA0DE00498006800210122009282
:1037800002F00CFA009A04980068042102F006FA8C
:10379000FFE704980168086840F001000860002015
:1037A0008DF81700FFE79DF8170006B080BD0000F8
:1037B00081B0009001B0704780B584B00390039849
:1037C0000068C068029003980068006901909DF845
:1037D00004008007002824D5FFE79DF80800800733
:1037E00000281DD5FFE7039801686FF0020008610B
:1037F000039901200877039800688069800720B149
:10380000FFE70398FFF7D4FF06E0039800F0CAF93A
:10381000039800F0BFFAFFE7039900200877FFE75D
:10382000FFE79DF804004007002825D5FFE79DF835
:103830000800400700281ED5FFE7039801686FF0D5
:1038400004000861039902200877039800688069E2
:1038500010F4407F04D0FFE70398FFF7A9FF06E0CC
:10386000039800F09FF9039800F094FAFFE703999A
:1038700000200877FFE7FFE79DF804000007002815
:1038800024D5FFE79DF80800000700281DD5FFE7B5
:10389000039801686FF00800086103990420087715
:1038A00003980068C069800720B1FFE70398FFF71D
:1038B0007FFF06E0039800F075F9039800F06AFABC
:1038C000FFE7039900200877FFE7FFE79DF8040072
:1038D000C006002825D5FFE79DF80800C00600288F
:1038E0001ED5FFE7039801686FF010000861039987
:1038F0000820087703980068C06910F4407F04D05E
:10390000FFE70398FFF754FF06E0039800F04AF939
:10391000039800F03FFAFFE7039900200877FFE7DC
:10392000FFE79DF80400C00778B1FFE79DF80800A5
:10393000C00748B1FFE7039801686FF00100086114
:10394000039800F011FBFFE7FFE79DF80400000675
:10395000002810D5FFE79DF808000006002809D5CB
:10396000FFE7039801686FF0800008610398FFF794
:103970008DF9FFE7FFE79DF804004006002810D509
:10398000FFE79DF808004006002809D5FFE70398E7
:1039900001686FF040000861039800F0D3FBFFE777
:1039A000FFE79DF804008006002810D5FFE79DF88A
:1039B00008008006002809D5FFE7039801686FF02A
:1039C000200008610398FFF765F9FFE7FFE704B0FF
:1039D00080BD000080B58CB00B9000200A9009904B
:1039E0000890079006900B9800680021C4F201012E
:1039F000884222D1FFE7FFE70020059043F6300020
:103A0000C4F20200016841F010010160006800F09A
:103A1000100005900598FFE74FF4D440069002216E
:103A200007910120089009910A9041F20000C4F228
:103A3000020006A9FDF7BAFFB2E00B98006840F259
:103A40000041C4F20101884223D1FFE7FFE70020D3
:103A5000049043F63000C4F20200016841F0040112
:103A60000160006800F0040004900498FFE74FF440
:103A700040700690022007900020089009900320D3
:103A80000A9040F60000C4F2020006A9FDF78EFF7E
:103A900085E00B98006844F20001C4F201018842FD
:103AA00022D1FFE7FFE70020039043F63000C4F285
:103AB0000200016841F010010160006800F0100090
:103AC00003900398FFE760200690022007900121F1
:103AD0000891099003200A9041F20000C4F202000C
:103AE00006A9FDF763FF59E00B98006844F2004116
:103AF000C4F20101884223D1FFE7FFE700200290D2
:103B000043F63000C4F20200016841F00201016096
:103B1000006800F0020002900298FFE74FF4807006
:103B200006900220079001210891099003200A9035
:103B300040F20040C4F2020006A9FDF737FF2CE076
:103B40000B98006844F60001C4F20101884223D1B9
:103B5000FFE7FFE70020019043F63000C4F20200C7
:103B6000016841F002010160006800F0020001906C
:103B70000198FFE74FF400700690022007900121A2
:103B80000891099003200A9040F20040C4F202001C
:103B900006A9FDF70BFFFFE7FFE7FFE7FFE7FFE7FA
:103BA0000CB080BD81B0009001B0704780B586B088
:103BB00004900391029200208DF80700FFE704981B
:103BC00090F83C00012804D1FFE702208DF817008F
:103BD00089E00499012081F83C00FFE7FFE70298A3
:103BE00000900C2800F270800099DFE801F0076D6A
:103BF0006D6D206D6D6D3A6D6D6D530004980068AC
:103C0000039902F021F904980168886940F00800DE
:103C1000886104980168886920F00400886103982D
:103C200002690498016888691043886150E004982B
:103C30000068039902F07EF904980168886940F4ED
:103C40000060886104980168886920F48060886158
:103C50000398026904980168886940EA0220886133
:103C600036E004980068039902F0DEF904980168D0
:103C7000C86940F00800C86104980168C86920F06C
:103C80000400C8610398026904980168C869104378
:103C9000C8611DE004980068039902F03FFA049897
:103CA0000168C86940F40060C86104980168C86987
:103CB00020F48060C8610398026904980168C869AB
:103CC00040EA0220C86103E001208DF80700FFE709
:103CD000FFE70499002081F83C00FFE79DF807000A
:103CE0008DF81700FFE79DF8170006B080BD0000B3
:103CF00080B582B00090009820B9FFE701208DF8D0
:103D000007003FE0009890F83D0040B9FFE70099B8
:103D1000002081F83C00009800F038F8FFE7009997
:103D2000022081F83D00009951F8040B01F064FE77
:103D30000099012081F84600FFE70099012081F8F1
:103D40003E00009981F83F00009981F840000099F9
:103D500081F84100FFE7FFE70099012081F8420068
:103D6000009981F84300009981F84400009981F896
:103D70004500FFE70099012081F83D0000208DF803
:103D80000700FFE79DF8070002B080BD81B00090FA
:103D900001B0704781B0009001B0704780B58CB021
:103DA0000A900991099828B9FFE70A9890F83E000F
:103DB00007901CE00998042805D1FFE70A9890F8BD
:103DC0003F00069010E00998082805D1FFE70A98FF
:103DD00090F84000059004E00A9890F841000590A2
:103DE000FFE705980690FFE706980790FFE707981A
:103DF000012804D0FFE701208DF82F00AFE00998DB
:103E000028B9FFE70A99022081F83E001EE00998D0
:103E1000042806D1FFE70A99022081F83F000490A8
:103E200012E00998082806D1FFE70A99022081F8D4
:103E30004000039005E00A99022081F841000390B8
:103E4000FFE703980490FFE70498FFE70A980068EB
:103E500009990122019201F0A1FE01980A990968CD
:103E60000022C4F20102914202900CD0FFE70A98AE
:103E700000684FF60041CBF6FE710844B0FA80F0BE
:103E800040090290FFE70298C00738B1FFE70A989F
:103E90000168486C40F400404864FFE70A980068F5
:103EA0000021C4F2010188423CD0FFE70A98006873
:103EB000B0F1804F36D0FFE70A98006840F2004129
:103EC000C4F2000188422DD0FFE70A98006840F64E
:103ED0000001C4F20001884224D0FFE70A9800687C
:103EE00040F60041C4F2000188421BD0FFE70A9867
:103EF000006840F20041C4F20101884212D0FFE79D
:103F00000A98006844F20001C4F20101884209D015
:103F1000FFE70A98006841F60001C4F200018842F8
:103F200012D1FFE70A980068806800F00700089047
:103F30000898062807D0FFE70A980168086840F04B
:103F400001000860FFE706E00A980168086840F091
:103F500001000860FFE700208DF82F00FFE79DF8C3
:103F60002F000CB080BD000080B582B00190019898
:103F700000680021C4F20101884207D1FFE740F246
:103F80008440C2F2000040688047D9E00198006890
:103F9000B0F1804F07D1FFE740F28C40C2F2000041
:103FA00040688047CBE00198006840F20041C4F2CD
:103FB0000001884207D1FFE740F29440C2F20000BE
:103FC00040688047BAE00198006840F60001C4F2FA
:103FD0000001884207D1FFE740F29C40C2F2000096
:103FE00040688047A9E00198006840F60041C4F2AB
:103FF0000001884207D1FFE740F2A440C2F200006E
:104000004068804798E00198006841F20001C4F2DE
:104010000001884207D1FFE740F2AC40C2F2000045
:104020004068804787E00198006841F20041C4F28F
:104030000001884207D1FFE740F2B440C2F200001D
:104040004068804776E00198006840F20041C4F281
:104050000101884207D1FFE740F2BC40C2F20000F4
:104060004068804765E00198006844F20001C4F2AE
:104070000101884207D1FFE740F2C440C2F20000CC
:104080004068804754E00198006844F20041C4F25F
:104090000101884207D1FFE740F25C40C2F2000014
:1040A0004068804743E00198006844F60001C4F28C
:1040B0000101884207D1FFE740F26440C2F20000EC
:1040C0004068804732E00198006841F60001C4F280
:1040D0000001884207D1FFE740F26C40C2F20000C5
:1040E0004068804721E00198006841F60041C4F231
:1040F0000001884207D1FFE740F27440C2F200009D
:104100004068804710E00198006842F20001C4F264
:104110000001884207D1FFE740F27C40C2F2000074
:1041200040688047FFE7FFE7FFE7FFE7FFE7FFE7BC
:10413000FFE7FFE7FFE7FFE7FFE7FFE7FFE7FFE74F
:1041400002B080BD81B0009001B0704780B586B0EC
:1041500004900391ADF80A20049890F842002028BA
:1041600048D1FFE7039820B1FFE7BDF80A0020B966
:10417000FFE701208DF8170040E004990120086353
:1041800004990020486304980399BDF80A2002F0BE
:1041900095FC8DF809000498006B012821D1FFE7F8
:1041A000FFE70020019004980068006801900498DF
:1041B0000068406801900198FFE7FFE7FFE7049877
:1041C000006850E8030F40F010000090FFE70099EE
:1041D0000498026842E803100028F0D1FFE7FFE7E7
:1041E00003E001208DF80900FFE79DF809008DF834
:1041F000170003E002208DF81700FFE79DF8170075
:1042000006B080BD80B58AB00990ADF8221009983B
:10421000006841F20001C4F20101884219D1FFE7B0
:10422000BDF8221040F2CC40C2F200000690A0F887
:104230000814D0F80C24BDF8221000F50170079086
:104240009047069A07990998B2F80424FFF77EFF71
:104250006EE00998006844F60001C4F2000188424B
:104260001FD1FFE7BDF8221040F6EC40C2F200007B
:104270000490A0F80814D0F80C24BDF8221000F522
:1042800001700590904704990598B1F80414FCF763
:104290007BF8049A05990998B2F80424FFF756FFB1
:1042A00045E00998006844F60041C4F200018842E4
:1042B00019D1FFE7BDF8221041F2FC00C2F2000064
:1042C0000290A0F80814D0F80C24BDF8221000F5D4
:1042D000017003909047029A03990998B2F8042458
:1042E000FFF734FF22E00998006841F20041C4F270
:1042F0000101884219D1FFE7BDF8221041F61C10D8
:10430000C2F200000090A0F80814D0F80C24BDF808
:10431000221000F5017001909047009A01990998C8
:10432000B2F80424FFF712FFFFE7FFE7FFE7FFE71C
:104330000AB080BD81B0009001B0704780B592B0E6
:104340001190119800680068109011980068C0687A
:104350000F901198006840690E9000200D900C900D
:10436000109800F00F000D900D9888B9FFE79DF8A8
:104370004000800600280AD5FFE79DF83C00800633
:10438000002804D5FFE7119802F038FA02E2FFE7AF
:104390000D98002800F0C280FFE79DF83800C007A4
:1043A00038B9FFE7BDF83C0010F4907F00F0B6800C
:1043B000FFE79DF84000C00758B1FFE79DF83D00BA
:1043C000C00730B1FFE71199486C40F00100486424
:1043D000FFE79DF84000400700280BD5FFE79DF858
:1043E0003800C00730B1FFE71199486C40F0020077
:1043F0004864FFE79DF84000800700280BD5FFE7E1
:104400009DF83800C00730B1FFE71199486C40F0C3
:1044100004004864FFE79DF840000007002811D51C
:10442000FFE79DF83C008006002805D4FFE79DF8D3
:104430003800C00730B1FFE71199486C40F0080020
:104440004864FFE71198406C002866D0FFE79DF8AC
:104450004000800600280AD5FFE79DF83C00800652
:10446000002804D5FFE7119802F0C8F9FFE711987A
:1044700000684069C0F380100C901198406C0007F0
:10448000002804D4FFE70C9800283ED0FFE71198DD
:1044900002F0B6F8119800684069400600282FD550
:1044A000FFE7FFE7FFE71198006850E8050F20F0ED
:1044B00040000B90FFE70B991198026842E8051045
:1044C0000028F0D1FFE7FFE71198C06B98B1FFE734
:1044D0001198C16B46F2AD30C0F600000865119826
:1044E000C06BFCF797FF28B1FFE71198C06B016D17
:1044F0008847FFE703E01198FFF71CFFFFE703E0A1
:104500001198FFF717FFFFE706E01198FFF712FF7A
:10451000119900204864FFE7FFE73BE11198006B29
:10452000012840F01781FFE79DF84000C0060028F1
:1045300040F11081FFE79DF83C00C006002840F1E3
:104540000981FFE7FFE700200A90119800680068E2
:104550000A901198006840680A900A98FFE711983D
:10456000006840694006002840F19A80FFE71198F2
:10457000C06B00684068ADF82600BDF82600002832
:1045800075D0FFE7BDF826001199898D88426EDA53
:10459000FFE7BDF826001199C8851198C06BC06966
:1045A000B0F5807F58D0FFE7FFE7FFE7119800687C
:1045B00050E8030F20F480700890FFE708991198E5
:1045C000026842E803100028F0D1FFE7FFE7FFE7A9
:1045D000FFE71198006850E8050F20F001000790F0
:1045E000FFE707991198026842E805100028F0D10A
:1045F000FFE7FFE7FFE7FFE71198006850E8050FC6
:1046000020F040000690FFE706991198026842E802
:1046100005100028F0D1FFE7FFE71199202081F86D
:104620004200119900200863FFE7FFE71198006836
:1046300050E8030F20F010000590FFE7059911984E
:10464000026842E803100028F0D1FFE7FFE7119865
:10465000C06BFCF769FEFFE71199022048631198CF
:10466000818DC28D891A89B2FFF7CCFD17E0BDF8A4
:1046700026001199898D884210D1FFE71198C06BEF
:10468000C069B0F5807F08D1FFE711990220486327
:104690001198818DFFF7B6FDFFE7FFE7FFE779E0AF
:1046A0001199888DC98D401AADF812001198C08DEE
:1046B00000284ED0FFE7BDF81200002849D0FFE7E0
:1046C000FFE7FFE71198006850E8030F20F49070AF
:1046D0000390FFE703991198026842E8031000284D
:1046E000F0D1FFE7FFE7FFE7FFE71198006850E828
:1046F000050F20F001000290FFE70299119802686F
:1047000042E805100028F0D1FFE7FFE711992020CB
:1047100081F84200119900200863FFE7FFE7119834
:10472000006850E8030F20F010000190FFE70199A6
:104730001198026842E803100028F0D1FFE7FFE774
:104740001199022048631198BDF81210FFF75AFD25
:10475000FFE71FE09DF84000000600280AD5FFE7AC
:104760009DF83C000006002804D5FFE7119802F0F0
:104770003DFA0FE09DF84000400600280AD5FFE70B
:104780009DF83C004006002804D5FFE7119801F091
:1047900081FFFFE712B080BD80B582B00090009825
:1047A00020B9FFE701208DF8070040E000988069FC
:1047B00008B1FFE700E0FFE7009890F8410040B93A
:1047C000FFE70099002081F84000009800F034F8DD
:1047D000FFE70099242081F8410000980168C8682B
:1047E00020F40050C860009802F0CAF800980168F0
:1047F000086920F49040086100980168486920F039
:104800002A00486100980168C86840F40050C860F8
:10481000009900204864009A202182F84110009AF3
:1048200082F84210009948638DF80700FFE79DF871
:10483000070002B080BD000080B59EB01D90002032
:104840001C901B901A90199018901D98006844F6BF
:104850000041C4F20001884240F09E80FFE7FFE77C
:104860000020179043F64000C4F20200016841F4B2
:1048700000210160006800F4002017901798FFE7FE
:10488000FFE70020169043F63000C4F202000168F2
:1048900041F004010160006800F0040016901698D1
:1048A000FFE74FF4406018900220199000200E900E
:1048B0001A9003200D901B9008201C9040F60000D9
:1048C000C4F2020018A9FDF771F80D9A0E9941F68D
:1048D0005850C2F200000F9046F24003C4F20203A7
:1048E00003604FF0006343608160C1604FF48063F8
:1048F000036141618161C16101620423436282629B
:10490000C1620163FCF738FF18B1FFE7FBF7D6FE81
:10491000FFE7FFE71D9841F65851C2F20001C1635D
:104920001D988863FFE741F6B850C2F200000C9072
:1049300046F27001C4F2020101604FF00061416073
:10494000402181600021C1604FF4806202614161B9
:104950008161C16101620422426203228262C162FA
:104960000163FCF709FF18B1FFE7FBF7A7FEFFE7BC
:10497000FFE71D9841F6B851C2F2000181631D980E
:104980008863FFE734200B9000221146FDF724FCDA
:104990000B98FDF717FC8DE11D98006841F20001AE
:1049A000C4F20101884267D1FFE7FFE700201590BC
:1049B00043F64400C4F20200016841F010010160B6
:1049C000006800F0100015901598FFE7FFE7002041
:1049D000149043F63000C4F20200016841F0010176
:1049E0000160006800F0010014901498FFE74FF494
:1049F000C060189002201990002009901A9003209E
:104A00001B9007201C900020C4F2020018A9FCF79C
:104A1000CDFF099941F61860C2F200000A9046F2F3
:104A20004042C4F2020202604FF0006242608160C4
:104A3000C1604FF48062026141618161C1610162C4
:104A40004162FCF799FE18B1FFE7FBF737FEFFE77D
:104A5000FFE71D9841F61861C2F20001C1631D987D
:104A60008863FFE72520089000221146FDF7B4FB7C
:104A70000898FDF7A7FB1CE11D98006844F60001AB
:104A8000C4F20001884240F09A80FFE7FFE700206F
:104A9000139043F64000C4F20200016841F4802103
:104AA0000160006800F4802013901398FFE7FFE78F
:104AB0000020129043F63000C4F20200016841F079
:104AC00008010160006800F0080012901298FFE7EA
:104AD0004FF44070189002201990002006901A9010
:104AE00003201B9007201C9040F60040C4F20200F7
:104AF00018A9FCF75BFF069941F67860C2F2000046
:104B0000079046F22802C4F2020202604FF00062EF
:104B100042608160C1604FF48062026141618161E5
:104B2000C1614FF4403202624162FCF725FE18B1C8
:104B3000FFE7FBF7C3FDFFE7FFE71D9841F678614C
:104B4000C2F20001C1631D988863FFE741F6D86097
:104B5000C2F20000059046F25801C4F20201016061
:104B60004FF000614160402181600021C1604FF43D
:104B70008062026141618161C1610162042242621D
:104B800003228262C1620163FCF7F6FD18B1FFE700
:104B9000FBF794FDFFE7FFE71D9841F6D861C2F2ED
:104BA000000181631D988863FFE72720049000229D
:104BB0001146FDF711FB0498FDF704FB78E01D9802
:104BC000006841F20041C4F2010188426FD1FFE761
:104BD000FFE70020119043F64400C4F20200016890
:104BE00041F020010160006800F020001190119850
:104BF000FFE7FFE70020109043F63000C4F2020008
:104C0000016841F004010160006800F004001090A8
:104C10001098FFE7C0201890022019900020029001
:104C20001A90032001901B9008201C9040F6000071
:104C3000C4F2020018A9FCF7B9FE019A029941F6E4
:104C40003870C2F20000039046F22843C4F2020317
:104C500003604FF0206343608160C1604FF4806364
:104C6000036141618161C1614FF4403303620423F8
:104C700043628262C1620163FCF77EFD18B1FFE707
:104C8000FBF71CFDFFE7FFE71D9841F63871C2F204
:104C90000001C1631D988863FFE747200090002250
:104CA0001146FDF799FA0098FDF78CFAFFE7FFE748
:104CB000FFE7FFE71EB080BD81B0009001B07047F4
:104CC00081B0009001B0704780B586B00490039128
:104CD000ADF80A20049890F8410020286AD1FFE737
:104CE000039820B1FFE7BDF80A0020B9FFE70120D3
:104CF0008DF8170062E0039804990862BDF80A0075
:104D000004998884BDF80A000499C8840499002095
:104D10004864049A212182F8411004998A6B46F272
:104D20006D51C0F60001D16304998A6B46F2E951D6
:104D3000C0F60001116404998A6B46F2C931C0F6CD
:104D40000001D1640499896B086503A80190049857
:104D50000268806B019909680432BDF80A30FCF7DB
:104D6000C3FD58B1FFE7049910204864049920203E
:104D700081F8410001208DF817001FE004980168B8
:104D80006FF040000860FFE7FFE70498006850E814
:104D9000050F40F080000090FFE70099049802683A
:104DA00042E805100028F0D1FFE7FFE700208DF86A
:104DB000170003E002208DF81700FFE79DF81700A9
:104DC00006B080BD81B0009001B0704781B0009006
:104DD00001B07047FFE7FEE780B582B041F6305082
:104DE000C2F20000019046F20041C4F200010160ED
:104DF0000321416000218160C1604FF4A022026163
:104E00004FF4C00242610176012242768276C17679
:104E100001774177FCF758F818B1FFE7FBF74EFC34
:104E2000FFE702B080BD000080B58AB0FFE7002038
:104E3000099043F63000C4F20200016841F4001109
:104E40000160006800F4001009900998FFE7FFE78F
:104E50000020089043F63000C4F20200016841F4DB
:104E600080010160006800F4800008900898FFE766
:104E70000C200190002206921146FDF7ADF9019831
:104E8000FDF7A0F9069A0D2002901146FDF7A4F94E
:104E90000298FDF797F9069A0E2003901146FDF748
:104EA0009BF90398FDF78EF9069A0F20049011469E
:104EB000FDF792F90498FDF785F9069A39200590D7
:104EC0001146FDF789F90598FDF77CF9069A3A2015
:104ED00007901146FDF780F90798FDF773F90AB0BE
:104EE00080BD000080B58EB000200D900C900B901E
:104EF0000A900990FFE70020089043F63000C4F2C2
:104F00000200016841F010010160006800F010002B
:104F100008900898FFE7FFE70020079043F630006D
:104F2000C4F20200016841F080010160006800F0F5
:104F3000800007900798FFE7FFE70020069043F600
:104F40003000C4F20200016841F001010160006814
:104F500000F0010006900698FFE7FFE700200590AB
:104F600043F63000C4F20200016841F00201016022
:104F7000006800F0020005900598FFE7FFE70020B9
:104F8000049043F63000C4F20200016841F00801C9
:104F90000160006800F0080004900498FFE7FFE754
:104FA0000020039043F63000C4F20200016841F093
:104FB00004010160006800F0040003900398FFE71B
:104FC00008200990002000900A9001200B9040F6E4
:104FD0000040C4F20200019009A90291FCF7E6FC2E
:104FE000009A019802996023099302230A930B9275
:104FF00003220C9207220D92FCF7D8FC0EB080BD64
:1050000080B582B041F69870C2F20000019045F67A
:105010000001C4F20001016048F2A061C0F2010188
:10502000416000218160C1604FF4804202614161B2
:105030008161C1610162FCF79BFE18B1FFE7FBF7DC
:105040003DFBFFE702B080BD80B588B00021009134
:10505000079106910591049103910291019142F209
:105060003400C2F2000044F20042C4F201020260C5
:105070004160816044F29F12C260016180218161C0
:10508000FDF7F8FE18B1FFE7FBF718FBFFE742F268
:105090003400C2F20000FEF72BFE18B1FFE7FBF769
:1050A0000DFBFFE76020019000220292039205921F
:1050B00042F23400C2F2000001A9FEF777FD18B1F8
:1050C000FFE7FBF7FBFAFFE742F23400C2F2000011
:1050D000FEF780FC08B080BD80B588B0002100914B
:1050E000079106910591049103910291019142F279
:1050F0007C00C2F2000044F60002C4F20102026029
:105100004160816044F29F12C2600161802181612F
:10511000FDF7B0FE18B1FFE7FBF7D0FAFFE742F268
:105120007C00C2F20000FEF7E3FD18B1FFE7FBF7D9
:10513000C5FAFFE7602001900022029203920592D7
:1051400042F27C00C2F2000001A9FEF72FFD18B167
:10515000FFE7FBF7B3FAFFE742F27C00C2F2000080
:10516000FEF738FC08B080BD80B598B000210191F1
:10517000179116911591149113911291119110910B
:105180000F910E910D910C910B910A91099108913B
:105190000791069105910491039141F6EC70C2F2DA
:1051A000000002900022C4F20102026041608160AE
:1051B00044F29F12C2600161416180218161FDF76B
:1051C00059FE18B1FFE7FBF779FAFFE74FF480507B
:1051D000149041F6EC70C2F2000014A9FDF7C8FF6C
:1051E00018B1FFE7FBF76AFAFFE741F6EC70C2F28D
:1051F0000000FEF77DFD18B1FFE7FBF75FFAFFE760
:1052000000201290139041F6EC70C2F2000012A937
:10521000FDF79EFD18B1FFE7FBF750FAFFE76020AE
:105220000B9000220C920D920E920F9210921192FE
:1052300041F6EC70C2F200000BA9FEF7B7FC18B102
:10524000FFE7FBF73BFAFFE741F6EC70C2F2000024
:105250000BA90422FEF7AAFC18B1FFE7FBF72EFA10
:10526000FFE741F6EC70C2F200000BA90822FEF73E
:105270009DFC18B1FFE7FBF721FAFFE741F6EC7060
:10528000C2F200000BA90C22FEF790FC18B1FFE758
:10529000FBF714FAFFE700200390049005900690B6
:1052A00007904FF4005108910A9041F6EC70C2F259
:1052B000000003A9FDF7F2FC18B1FFE7FBF7FEF9C8
:1052C000FFE741F6EC70C2F20000FEF783FB18B076
:1052D00080BD000080B58EB005A801902421FBF7A9
:1052E00053F80199002202920492039242F2C40000
:1052F000C2F200004FF080430360426082604FF6CC
:10530000FF73C36002618261032305930692012348
:105310000793089209920A920B930C920D92FDF753
:10532000E9FF18B1FFE7FBF7C9F9FFE70020039099
:10533000049042F2C400C2F2000003A9FDF708FD88
:1053400018B1FFE7FBF7BAF9FFE70EB080BD000028
:1053500080B58EB005A801902421FBF715F80199BE
:10536000002202920492039242F20C10C2F2000058
:1053700040F20043C4F200030360426082604FF6D3
:10538000FF73C360026182610323059306920123C8
:105390000793089209920A920B930C920D92FDF7D3
:1053A000A9FF18B1FFE7FBF789F9FFE70020039099
:1053B000049042F20C10C2F2000003A9FDF7C8FCF1
:1053C00018B1FFE7FBF77AF9FFE70EB080BD0000E8
:1053D00080B58EB005A801902421FAF7D5FF019978
:1053E000002202920492039242F25410C2F2000090
:1053F00040F60003C4F200030360426082604FF68F
:10540000FF73C36002618261032305930692012347
:105410000793089209920A920B930C920D92FDF752
:1054200069FF18B1FFE7FBF749F9FFE70020039098
:10543000049042F25410C2F2000003A9FDF788FC68
:1054400018B1FFE7FBF73AF9FFE70EB080BD0000A7
:1054500080B58EB005A801902421FAF795FF019937
:10546000002202920492039242F29C10C2F20000C7
:1054700040F60043C4F200030360426082604FF6CE
:10548000FF73C360026182610323059306920123C7
:105490000793089209920A920B930C920D92FDF7D2
:1054A00029FF18B1FFE7FBF709F9FFE70020039098
:1054B000049042F29C10C2F2000003A9FDF748FCE0
:1054C00018B1FFE7FBF7FAF8FFE70EB080BD000068
:1054D00080B582B000210191009142F2E410C2F245
:1054E000000041F20002C4F200020260A722426002
:1054F000816040F2E731C16080218161FDF7BAFC33
:1055000018B1FFE7FBF7DAF8FFE700200090019001
:1055100042F2E410C2F200006946FDF719FC18B12E
:10552000FFE7FBF7CBF8FFE702B080BD80B598B08E
:1055300000210191179116911591149113911291D7
:10554000119110910F910E910D910C910B910A9167
:10555000099108910791069105910491039142F2F6
:105560002C20C2F20000029040F20042C4F201027C
:105570000260A7224260816044F61F62C2604FF45D
:105580008072026141618161FDF774FC18B1FFE72F
:10559000FBF794F8FFE74FF48050149042F22C2070
:1055A000C2F2000014A9FDF7E3FD18B1FFE7FBF715
:1055B00085F8FFE742F22C20C2F20000FEF798FBCC
:1055C00018B1FFE7FBF77AF8FFE70020129013907D
:1055D00042F22C20C2F2000012A9FDF7B9FB18B16B
:1055E000FFE7FBF76BF8FFE760200B9040F2DC5021
:1055F0000C9000200D900E900F901090119042F2A0
:105600002C20C2F200000BA90822FEF7CFFA18B135
:10561000FFE7FBF753F8FFE742F22C20C2F200004D
:105620000BA90C22FEF7C2FA18B1FFE7FBF746F808
:10563000FFE70020039004900590069007904FF438
:10564000005108910A9042F22C20C2F2000003A9F6
:10565000FDF724FB18B1FFE7FBF730F8FFE742F254
:105660002C20C2F20000FEF7B5F918B080BD000092
:1056700080B58CB0002100910B910A91099108919D
:10568000079106910591049103910291019142F2D3
:105690007420C2F2000044F20002C4F2010202606F
:1056A0004160816044F29F12C2600161802181618A
:1056B000FDF7E0FB18B1FFE7FBF700F8FFE74FF459
:1056C0008050089042F27420C2F2000008A9FDF751
:1056D0004FFD18B1FFE7FAF7F1FFFFE742F2742040
:1056E000C2F20000FEF704FB18B1FFE7FAF7E6FF8D
:1056F000FFE760200190002202920392059242F29D
:105700007420C2F2000001A9FEF750FA18B1FFE7B9
:10571000FAF7D4FFFFE742F27420C2F2000001A9B9
:105720000422FEF743FA18B1FFE7FAF7C7FFFFE7D5
:1057300042F27420C2F20000FEF74CF90CB080BDBA
:1057400080B582B042F24C30C2F20000019044F6C3
:105750000041C4F2000101604FF4E13141600021D9
:105760008160C16001610C2242618161C161FFF70A
:1057700013F818B1FFE7FAF7A1FFFFE702B080BD09
:1057800080B582B042F2BC20C2F20000019041F22A
:105790000001C4F2010101604FF4E13141600021D8
:1057A0008160C16001610C2242618161C161FEF7CB
:1057B000F3FF18B1FFE7FAF781FFFFE702B080BD02
:1057C00080B582B042F20430C2F20000019044F68B
:1057D0000001C4F2000101604FF4E1314160002199
:1057E0008160C16001610C2242618161C161FEF78B
:1057F000D3FF18B1FFE7FAF761FFFFE702B080BD02
:1058000080B582B042F29430C2F20000019041F2C1
:105810000041C4F2010101604FF4E1314160002117
:105820008160C16001610C2242618161C161FEF74A
:10583000B3FF18B1FFE7FAF741FFFFE702B080BD01
:10584000FFE7FEE7FFE7FEE788B0079006910592C5
:10585000079800F0070004900498C0F1070005289D
:1058600003D3FFE70420019004E00498C0F107008F
:105870000190FFE70198039004980430062803D8AC
:10588000FFE70020009003E0049803380090FFE752
:105890000098029006980399012202FA01F1013959
:1058A0000840029B984005999A40013A11400843EC
:1058B00008B07047704700007047000080B582B0A4
:1058C000009000980138B0F1807F03D3FFE70120FA
:1058D000019019E0009801384EF21401CEF2000157
:1058E00008604FF0FF300F2102F0C4FE4EF21801A5
:1058F000CEF20001002008604EF21002CEF200024B
:10590000072111600190FFE7019802B080BD0000FF
:1059100080B5FCF7C9FB80BD80B594B008A83021E4
:10592000FAF732FD0020079006900590049003904E
:10593000FFE70020029043F64000C4F20200016835
:1059400041F080510160006800F0805002900298A0
:10595000FFE7FFE70020019047F20000C4F20000DB
:10596000016841F480410160006800F480400190CA
:105970000198FFE7012008904FF480300990022140
:105980000E914FF480000F9004201090A8221192E5
:105990001291139008A8FCF711FE18B1FFE7FAF76F
:1059A0008DFEFFE70F200390022004900020059059
:1059B0004FF4A05006904FF48050079003A80521A3
:1059C000FCF72CFC18B1FFE7FAF778FEFFE714B0FC
:1059D00080BD00004EF68851CEF20001086840F408
:1059E000700008607047000080B542F2E410C2F217
:1059F0000000FDF7E1FE80BD83B0029001910298A6
:105A00000068009002980021C4F20101884225D06C
:105A1000FFE70298B0F1804F20D0FFE7029840F2F4
:105A20000041C4F20001884218D0FFE7029840F616
:105A30000001C4F20001884210D0FFE7029840F64E
:105A40000041C4F20001884208D0FFE7029840F20A
:105A50000041C4F2010188420AD1FFE7009820F01A
:105A60007000009001984168009808430090FFE79B
:105A700002980021C4F20101884255D0FFE7029844
:105A8000B0F1804F50D0FFE7029840F20041C4F2DD
:105A90000001884248D0FFE7029840F60001C4F2B6
:105AA0000001884240D0FFE7029840F60041C4F26E
:105AB0000001884238D0FFE7029840F20041C4F26A
:105AC0000101884230D0FFE7029844F20001C4F29D
:105AD0000101884228D0FFE7029844F20041C4F255
